{
  "_format": "hh-sol-artifact-1",
  "contractName": "ConstraintManager",
  "sourceName": "contracts/ConstraintManager.sol",
  "abi": [
    {
      "inputs": [],
      "stateMutability": "nonpayable",
      "type": "constructor"
    },
    {
      "inputs": [
        {
          "internalType": "address",
          "name": "owner",
          "type": "address"
        }
      ],
      "name": "OwnableInvalidOwner",
      "type": "error"
    },
    {
      "inputs": [
        {
          "internalType": "address",
          "name": "account",
          "type": "address"
        }
      ],
      "name": "OwnableUnauthorizedAccount",
      "type": "error"
    },
    {
      "inputs": [],
      "name": "ReentrancyGuardReentrantCall",
      "type": "error"
    },
    {
      "anonymous": false,
      "inputs": [
        {
          "indexed": true,
          "internalType": "bytes32",
          "name": "constraintId",
          "type": "bytes32"
        },
        {
          "indexed": false,
          "internalType": "string",
          "name": "name",
          "type": "string"
        },
        {
          "indexed": false,
          "internalType": "enum ConstraintManager.ConstraintCategory",
          "name": "category",
          "type": "uint8"
        },
        {
          "indexed": true,
          "internalType": "address",
          "name": "creator",
          "type": "address"
        }
      ],
      "name": "ConstraintCreated",
      "type": "event"
    },
    {
      "anonymous": false,
      "inputs": [
        {
          "indexed": true,
          "internalType": "bytes32",
          "name": "constraintId",
          "type": "bytes32"
        },
        {
          "indexed": false,
          "internalType": "bool",
          "name": "result",
          "type": "bool"
        },
        {
          "indexed": false,
          "internalType": "uint256",
          "name": "score",
          "type": "uint256"
        }
      ],
      "name": "ConstraintEvaluated",
      "type": "event"
    },
    {
      "anonymous": false,
      "inputs": [
        {
          "indexed": true,
          "internalType": "bytes32",
          "name": "groupId",
          "type": "bytes32"
        },
        {
          "indexed": false,
          "internalType": "string",
          "name": "name",
          "type": "string"
        },
        {
          "indexed": false,
          "internalType": "uint256",
          "name": "constraintCount",
          "type": "uint256"
        }
      ],
      "name": "ConstraintGroupCreated",
      "type": "event"
    },
    {
      "anonymous": false,
      "inputs": [
        {
          "indexed": true,
          "internalType": "bytes32",
          "name": "constraintId",
          "type": "bytes32"
        },
        {
          "indexed": false,
          "internalType": "string",
          "name": "name",
          "type": "string"
        },
        {
          "indexed": false,
          "internalType": "bool",
          "name": "isActive",
          "type": "bool"
        }
      ],
      "name": "ConstraintUpdated",
      "type": "event"
    },
    {
      "anonymous": false,
      "inputs": [
        {
          "indexed": true,
          "internalType": "address",
          "name": "previousOwner",
          "type": "address"
        },
        {
          "indexed": true,
          "internalType": "address",
          "name": "newOwner",
          "type": "address"
        }
      ],
      "name": "OwnershipTransferred",
      "type": "event"
    },
    {
      "anonymous": false,
      "inputs": [
        {
          "indexed": true,
          "internalType": "bytes32",
          "name": "ruleId",
          "type": "bytes32"
        },
        {
          "indexed": false,
          "internalType": "string",
          "name": "name",
          "type": "string"
        },
        {
          "indexed": false,
          "internalType": "uint256",
          "name": "minScore",
          "type": "uint256"
        }
      ],
      "name": "ValidationRuleCreated",
      "type": "event"
    },
    {
      "inputs": [
        {
          "internalType": "bytes32",
          "name": "",
          "type": "bytes32"
        }
      ],
      "name": "constraintGroups",
      "outputs": [
        {
          "internalType": "bytes32",
          "name": "groupId",
          "type": "bytes32"
        },
        {
          "internalType": "string",
          "name": "name",
          "type": "string"
        },
        {
          "internalType": "string",
          "name": "description",
          "type": "string"
        },
        {
          "internalType": "bool",
          "name": "isActive",
          "type": "bool"
        },
        {
          "internalType": "uint256",
          "name": "minSatisfaction",
          "type": "uint256"
        },
        {
          "internalType": "uint256",
          "name": "totalWeight",
          "type": "uint256"
        },
        {
          "internalType": "uint256",
          "name": "createdAt",
          "type": "uint256"
        },
        {
          "internalType": "address",
          "name": "creator",
          "type": "address"
        }
      ],
      "stateMutability": "view",
      "type": "function"
    },
    {
      "inputs": [
        {
          "internalType": "uint256",
          "name": "",
          "type": "uint256"
        }
      ],
      "name": "constraintIds",
      "outputs": [
        {
          "internalType": "bytes32",
          "name": "",
          "type": "bytes32"
        }
      ],
      "stateMutability": "view",
      "type": "function"
    },
    {
      "inputs": [
        {
          "internalType": "bytes32",
          "name": "",
          "type": "bytes32"
        }
      ],
      "name": "constraints",
      "outputs": [
        {
          "internalType": "bytes32",
          "name": "constraintId",
          "type": "bytes32"
        },
        {
          "internalType": "string",
          "name": "name",
          "type": "string"
        },
        {
          "internalType": "string",
          "name": "description",
          "type": "string"
        },
        {
          "internalType": "enum ConstraintManager.ConstraintCategory",
          "name": "category",
          "type": "uint8"
        },
        {
          "internalType": "enum ConstraintManager.ConstraintOperator",
          "name": "operator",
          "type": "uint8"
        },
        {
          "internalType": "bool",
          "name": "isActive",
          "type": "bool"
        },
        {
          "internalType": "uint256",
          "name": "priority",
          "type": "uint256"
        },
        {
          "internalType": "uint256",
          "name": "weight",
          "type": "uint256"
        },
        {
          "internalType": "uint256",
          "name": "createdAt",
          "type": "uint256"
        },
        {
          "internalType": "uint256",
          "name": "updatedAt",
          "type": "uint256"
        },
        {
          "internalType": "address",
          "name": "creator",
          "type": "address"
        },
        {
          "internalType": "bool",
          "name": "isGlobal",
          "type": "bool"
        }
      ],
      "stateMutability": "view",
      "type": "function"
    },
    {
      "inputs": [
        {
          "internalType": "enum ConstraintManager.ConstraintCategory",
          "name": "",
          "type": "uint8"
        },
        {
          "internalType": "uint256",
          "name": "",
          "type": "uint256"
        }
      ],
      "name": "constraintsByCategory",
      "outputs": [
        {
          "internalType": "bytes32",
          "name": "",
          "type": "bytes32"
        }
      ],
      "stateMutability": "view",
      "type": "function"
    },
    {
      "inputs": [
        {
          "internalType": "string",
          "name": "",
          "type": "string"
        },
        {
          "internalType": "uint256",
          "name": "",
          "type": "uint256"
        }
      ],
      "name": "constraintsByField",
      "outputs": [
        {
          "internalType": "bytes32",
          "name": "",
          "type": "bytes32"
        }
      ],
      "stateMutability": "view",
      "type": "function"
    },
    {
      "inputs": [
        {
          "internalType": "string",
          "name": "_name",
          "type": "string"
        },
        {
          "internalType": "string",
          "name": "_description",
          "type": "string"
        },
        {
          "internalType": "enum ConstraintManager.ConstraintCategory",
          "name": "_category",
          "type": "uint8"
        },
        {
          "internalType": "enum ConstraintManager.ConstraintOperator",
          "name": "_operator",
          "type": "uint8"
        },
        {
          "internalType": "uint256[]",
          "name": "_thresholds",
          "type": "uint256[]"
        },
        {
          "internalType": "uint256",
          "name": "_priority",
          "type": "uint256"
        },
        {
          "internalType": "uint256",
          "name": "_weight",
          "type": "uint256"
        },
        {
          "internalType": "string[]",
          "name": "_applicableFields",
          "type": "string[]"
        },
        {
          "internalType": "bool",
          "name": "_isGlobal",
          "type": "bool"
        }
      ],
      "name": "createConstraint",
      "outputs": [
        {
          "internalType": "bytes32",
          "name": "",
          "type": "bytes32"
        }
      ],
      "stateMutability": "nonpayable",
      "type": "function"
    },
    {
      "inputs": [
        {
          "internalType": "string",
          "name": "_name",
          "type": "string"
        },
        {
          "internalType": "string",
          "name": "_description",
          "type": "string"
        },
        {
          "internalType": "bytes32[]",
          "name": "_constraintIds",
          "type": "bytes32[]"
        },
        {
          "internalType": "uint256",
          "name": "_minSatisfaction",
          "type": "uint256"
        }
      ],
      "name": "createConstraintGroup",
      "outputs": [
        {
          "internalType": "bytes32",
          "name": "",
          "type": "bytes32"
        }
      ],
      "stateMutability": "nonpayable",
      "type": "function"
    },
    {
      "inputs": [
        {
          "internalType": "string",
          "name": "_name",
          "type": "string"
        },
        {
          "internalType": "string",
          "name": "_description",
          "type": "string"
        },
        {
          "internalType": "bytes32[]",
          "name": "_groupIds",
          "type": "bytes32[]"
        },
        {
          "internalType": "uint256",
          "name": "_minScore",
          "type": "uint256"
        }
      ],
      "name": "createValidationRule",
      "outputs": [
        {
          "internalType": "bytes32",
          "name": "",
          "type": "bytes32"
        }
      ],
      "stateMutability": "nonpayable",
      "type": "function"
    },
    {
      "inputs": [
        {
          "internalType": "bytes32",
          "name": "_constraintId",
          "type": "bytes32"
        },
        {
          "internalType": "uint256",
          "name": "_fieldValue",
          "type": "uint256"
        }
      ],
      "name": "evaluateConstraint",
      "outputs": [
        {
          "internalType": "bool",
          "name": "",
          "type": "bool"
        }
      ],
      "stateMutability": "view",
      "type": "function"
    },
    {
      "inputs": [
        {
          "internalType": "bytes32",
          "name": "_groupId",
          "type": "bytes32"
        },
        {
          "internalType": "string[]",
          "name": "_fieldNames",
          "type": "string[]"
        },
        {
          "internalType": "uint256[]",
          "name": "_fieldValues",
          "type": "uint256[]"
        }
      ],
      "name": "evaluateConstraintGroup",
      "outputs": [
        {
          "internalType": "uint256",
          "name": "",
          "type": "uint256"
        }
      ],
      "stateMutability": "view",
      "type": "function"
    },
    {
      "inputs": [
        {
          "internalType": "bytes32",
          "name": "_ruleId",
          "type": "bytes32"
        },
        {
          "internalType": "string[]",
          "name": "_fieldNames",
          "type": "string[]"
        },
        {
          "internalType": "uint256[]",
          "name": "_fieldValues",
          "type": "uint256[]"
        }
      ],
      "name": "evaluateValidationRule",
      "outputs": [
        {
          "internalType": "bool",
          "name": "",
          "type": "bool"
        }
      ],
      "stateMutability": "view",
      "type": "function"
    },
    {
      "inputs": [],
      "name": "getAllConstraintIds",
      "outputs": [
        {
          "internalType": "bytes32[]",
          "name": "",
          "type": "bytes32[]"
        }
      ],
      "stateMutability": "view",
      "type": "function"
    },
    {
      "inputs": [],
      "name": "getAllGroupIds",
      "outputs": [
        {
          "internalType": "bytes32[]",
          "name": "",
          "type": "bytes32[]"
        }
      ],
      "stateMutability": "view",
      "type": "function"
    },
    {
      "inputs": [],
      "name": "getAllRuleIds",
      "outputs": [
        {
          "internalType": "bytes32[]",
          "name": "",
          "type": "bytes32[]"
        }
      ],
      "stateMutability": "view",
      "type": "function"
    },
    {
      "inputs": [
        {
          "internalType": "bytes32",
          "name": "_constraintId",
          "type": "bytes32"
        }
      ],
      "name": "getConstraint",
      "outputs": [
        {
          "components": [
            {
              "internalType": "bytes32",
              "name": "constraintId",
              "type": "bytes32"
            },
            {
              "internalType": "string",
              "name": "name",
              "type": "string"
            },
            {
              "internalType": "string",
              "name": "description",
              "type": "string"
            },
            {
              "internalType": "enum ConstraintManager.ConstraintCategory",
              "name": "category",
              "type": "uint8"
            },
            {
              "internalType": "enum ConstraintManager.ConstraintOperator",
              "name": "operator",
              "type": "uint8"
            },
            {
              "internalType": "uint256[]",
              "name": "thresholds",
              "type": "uint256[]"
            },
            {
              "internalType": "bool",
              "name": "isActive",
              "type": "bool"
            },
            {
              "internalType": "uint256",
              "name": "priority",
              "type": "uint256"
            },
            {
              "internalType": "uint256",
              "name": "weight",
              "type": "uint256"
            },
            {
              "internalType": "string[]",
              "name": "applicableFields",
              "type": "string[]"
            },
            {
              "internalType": "uint256",
              "name": "createdAt",
              "type": "uint256"
            },
            {
              "internalType": "uint256",
              "name": "updatedAt",
              "type": "uint256"
            },
            {
              "internalType": "address",
              "name": "creator",
              "type": "address"
            },
            {
              "internalType": "bool",
              "name": "isGlobal",
              "type": "bool"
            }
          ],
          "internalType": "struct ConstraintManager.Constraint",
          "name": "",
          "type": "tuple"
        }
      ],
      "stateMutability": "view",
      "type": "function"
    },
    {
      "inputs": [
        {
          "internalType": "bytes32",
          "name": "_groupId",
          "type": "bytes32"
        }
      ],
      "name": "getConstraintGroup",
      "outputs": [
        {
          "components": [
            {
              "internalType": "bytes32",
              "name": "groupId",
              "type": "bytes32"
            },
            {
              "internalType": "string",
              "name": "name",
              "type": "string"
            },
            {
              "internalType": "string",
              "name": "description",
              "type": "string"
            },
            {
              "internalType": "bytes32[]",
              "name": "constraintIds",
              "type": "bytes32[]"
            },
            {
              "internalType": "bool",
              "name": "isActive",
              "type": "bool"
            },
            {
              "internalType": "uint256",
              "name": "minSatisfaction",
              "type": "uint256"
            },
            {
              "internalType": "uint256",
              "name": "totalWeight",
              "type": "uint256"
            },
            {
              "internalType": "uint256",
              "name": "createdAt",
              "type": "uint256"
            },
            {
              "internalType": "address",
              "name": "creator",
              "type": "address"
            }
          ],
          "internalType": "struct ConstraintManager.ConstraintGroup",
          "name": "",
          "type": "tuple"
        }
      ],
      "stateMutability": "view",
      "type": "function"
    },
    {
      "inputs": [
        {
          "internalType": "enum ConstraintManager.ConstraintCategory",
          "name": "_category",
          "type": "uint8"
        }
      ],
      "name": "getConstraintsByCategory",
      "outputs": [
        {
          "internalType": "bytes32[]",
          "name": "",
          "type": "bytes32[]"
        }
      ],
      "stateMutability": "view",
      "type": "function"
    },
    {
      "inputs": [
        {
          "internalType": "string",
          "name": "_field",
          "type": "string"
        }
      ],
      "name": "getConstraintsByField",
      "outputs": [
        {
          "internalType": "bytes32[]",
          "name": "",
          "type": "bytes32[]"
        }
      ],
      "stateMutability": "view",
      "type": "function"
    },
    {
      "inputs": [
        {
          "internalType": "bytes32",
          "name": "_ruleId",
          "type": "bytes32"
        }
      ],
      "name": "getValidationRule",
      "outputs": [
        {
          "components": [
            {
              "internalType": "bytes32",
              "name": "ruleId",
              "type": "bytes32"
            },
            {
              "internalType": "string",
              "name": "name",
              "type": "string"
            },
            {
              "internalType": "string",
              "name": "description",
              "type": "string"
            },
            {
              "internalType": "bytes32[]",
              "name": "groupIds",
              "type": "bytes32[]"
            },
            {
              "internalType": "uint256",
              "name": "minScore",
              "type": "uint256"
            },
            {
              "internalType": "bool",
              "name": "isActive",
              "type": "bool"
            },
            {
              "internalType": "uint256",
              "name": "createdAt",
              "type": "uint256"
            },
            {
              "internalType": "address",
              "name": "creator",
              "type": "address"
            }
          ],
          "internalType": "struct ConstraintManager.ValidationRule",
          "name": "",
          "type": "tuple"
        }
      ],
      "stateMutability": "view",
      "type": "function"
    },
    {
      "inputs": [
        {
          "internalType": "uint256",
          "name": "",
          "type": "uint256"
        }
      ],
      "name": "groupIds",
      "outputs": [
        {
          "internalType": "bytes32",
          "name": "",
          "type": "bytes32"
        }
      ],
      "stateMutability": "view",
      "type": "function"
    },
    {
      "inputs": [],
      "name": "owner",
      "outputs": [
        {
          "internalType": "address",
          "name": "",
          "type": "address"
        }
      ],
      "stateMutability": "view",
      "type": "function"
    },
    {
      "inputs": [],
      "name": "renounceOwnership",
      "outputs": [],
      "stateMutability": "nonpayable",
      "type": "function"
    },
    {
      "inputs": [
        {
          "internalType": "uint256",
          "name": "",
          "type": "uint256"
        }
      ],
      "name": "ruleIds",
      "outputs": [
        {
          "internalType": "bytes32",
          "name": "",
          "type": "bytes32"
        }
      ],
      "stateMutability": "view",
      "type": "function"
    },
    {
      "inputs": [
        {
          "internalType": "address",
          "name": "newOwner",
          "type": "address"
        }
      ],
      "name": "transferOwnership",
      "outputs": [],
      "stateMutability": "nonpayable",
      "type": "function"
    },
    {
      "inputs": [
        {
          "internalType": "bytes32",
          "name": "_constraintId",
          "type": "bytes32"
        },
        {
          "internalType": "bool",
          "name": "_isActive",
          "type": "bool"
        },
        {
          "internalType": "uint256",
          "name": "_priority",
          "type": "uint256"
        },
        {
          "internalType": "uint256",
          "name": "_weight",
          "type": "uint256"
        }
      ],
      "name": "updateConstraint",
      "outputs": [],
      "stateMutability": "nonpayable",
      "type": "function"
    },
    {
      "inputs": [
        {
          "internalType": "bytes32",
          "name": "",
          "type": "bytes32"
        }
      ],
      "name": "validationRules",
      "outputs": [
        {
          "internalType": "bytes32",
          "name": "ruleId",
          "type": "bytes32"
        },
        {
          "internalType": "string",
          "name": "name",
          "type": "string"
        },
        {
          "internalType": "string",
          "name": "description",
          "type": "string"
        },
        {
          "internalType": "uint256",
          "name": "minScore",
          "type": "uint256"
        },
        {
          "internalType": "bool",
          "name": "isActive",
          "type": "bool"
        },
        {
          "internalType": "uint256",
          "name": "createdAt",
          "type": "uint256"
        },
        {
          "internalType": "address",
          "name": "creator",
          "type": "address"
        }
      ],
      "stateMutability": "view",
      "type": "function"
    }
  ],
  "bytecode": "0x6080806040523462001a6c57331562001a565760008054336001600160a01b0319821681178355916001600160a01b03909116907f8be0079c531659141344cd1fd0a4f28419497f9722a3daafe3b4186f6b6457e09080a360018055604051608081016001600160401b0381118282101762001097576040526003815260005b606090818110156200009b57602091828285010152016200007f565b82604051620000aa8162001a8e565b600481526336b2b0b760e11b6020820152620000c68262001aea565b52620000d28162001aea565b50604051620000e18162001a8e565b601181527039ba30b73230b9322232bb34b0ba34b7b760791b60208201526200010a8262001b0e565b52620001168162001b0e565b50604051620001258162001a8e565b600981526819185d1850dbdd5b9d60ba1b6020820152620001468262001b1f565b52620001528162001b1f565b50604051620001618162001a8e565b60018152602036818301376005620001798262001aea565b5260405191620001898362001a8e565b600f83526e115c9c9bdc88151a1c995cda1bdb19608a1b6020840152604051620001b38162001a8e565b602081527f4572726f72207468726573686f6c64206e6f7420657863656564696e6720352560208201528351156200133b57825115620012f6576040513060601b60208201526200022c605482875162000215816034840160208c0162001b45565b810142603482015203603481018452018262001ac6565b602081519101209260405191620002438362001a71565b8483528560208401526040830152600060608301526005608083015260a0820152600160c0820152600860e0820152601e6101008201528161012082015242610140820152426101608201523061018082015260016101a082015282600052600260205260406000209080518255602081015180519060018060401b03821162001097578190620002d8600186015462001b6a565b601f811162001a1d575b50602090601f8311600114620019a6576000926200199a575b50508160011b916000199060031b1c19161760018301555b60408101518051906001600160401b038211620010975781906200033b600286015462001b6a565b601f811162001961575b50602090601f8311600114620018ea57600092620018de575b50508160011b916000199060031b1c19161760028301555b60608101516006811015620011685760038301546080830151600a811015620011685761ff0060ff9160081b1692169061ffff19161717600383015560a081015180519060018060401b038211620010975768010000000000000000821162001097576020906004850154836004870155808410620018bb575b500160048401600052602060002060005b838110620018a6575050505060c0810151151560ff8019600585015416911617600583015560e0810151600683015561010081015160078301556101208101518051906801000000000000000082116200109757600884015482600886015580831062001823575b5060200190600884016000526020600020916000905b828210620016fd57505050610140820151600984015550610160810151600a830155610180810151600b9290920180546101a0909201516001600160a81b03199092166001600160a01b03939093169290921790151560a01b60ff60a01b16179055620004ec8262001bc0565b60008052600860205262000521827f5eff886ea0ce6ca488a3d6e336d6c0f75f46d19b42c06ce5ee98e42c96d256c762001c0f565b60005b815181101562000593576200056a836200055a602062000545858762001b30565b51816040519382858094519384920162001b45565b8101600981520301902062001c0f565b60001981146200057d5760010162000524565b634e487b7160e01b600052601160045260246000fd5b505060008051602062004e2383398151915260405160408152620005c884518095816040850152602060608501910162001b45565b600060208201523093601f01601f1916810181900360600190a3604051620005f08162001a8e565b6001815260005b60208110620016eb57506040516200060f8162001a8e565b600981526819185d1850dbdd5b9d60ba1b6020820152620006308262001aea565b526200063c8162001aea565b506040516200064b8162001a8e565b60018152602036818301376000620006638262001aea565b5260405191620006738362001a8e565b600b83526a11185d1848119bdc9b585d60aa1b6020840152604051620006998162001aaa565b602781527f4461746120706f696e7420636f756e74206d75737420626520677265617465726020820152660207468616e20360cc1b60408201528351156200133b57825115620012f65760405160208101903060601b82526200070d605482885162000215816034840160208d0162001b45565b5190209260405191620007208362001a71565b8483528560208401526040830152600160608301526002608083015260a0820152600160c0820152600960e082015260196101008201528161012082015242610140820152426101608201523061018082015260016101a0820152826000526002602052604060002081518155602082015180519060018060401b03821162001097578190620007b4600185015462001b6a565b601f8111620016b2575b50602090601f83116001146200163b576000926200162f575b50508160011b916000199060031b1c19161760018201555b60408201518051906001600160401b0382116200109757819062000817600285015462001b6a565b601f8111620015f6575b50602090601f83116001146200157f5760009262001573575b50508160011b916000199060031b1c19161760028201555b60608201516006811015620011685760038201546080840151600a811015620011685761ff0060ff9160081b1692169061ffff19161717600382015560a082015180519060018060401b03821162001097576801000000000000000082116200109757602090600484015483600486015580841062001550575b500160048301600052602060002060005b8381106200153b57505050506005810160c0830151151560ff8019835416911617905560e08201516006820155610100820151600782015561012082015180519068010000000000000000821162001097576008830154826008850155808310620014b8575b5060200190600883016000526020600020916000905b828210620013925750505050600b906101408301516009820155610160830151600a820155019060018060a01b03610180820151168254916101a060ff60a01b910151151560a01b169160018060a81b03191617179055620009bb8262001bc0565b60016000526008602052620009f1827fad67d757c34507f157cacfa2e3153e9f260a2244f30428821be7be64587ac55f62001c0f565b60005b815181101562000a285762000a15836200055a602062000545858762001b30565b60001981146200057d57600101620009f4565b505060008051602062004e238339815191526040516040815262000a5d84518095816040850152602060608501910162001b45565b600160208201523093601f01601f1916810181900360600190a360405162000a858162001aaa565b6002815260005b6040811062001380575060405162000aa48162001a8e565b60088152676d696e56616c756560c01b602082015262000ac48262001aea565b5262000ad08162001aea565b5060405162000adf8162001a8e565b60088152676d617856616c756560c01b602082015262000aff8262001b0e565b5262000b0b8162001b0e565b5060405162000b1a8162001aaa565b600281526040366020830137600062000b338262001aea565b52620f424062000b438262001b0e565b526040519162000b538362001a8e565b600b83526a56616c75652052616e676560a81b602084015260405162000b798162001aaa565b602581527f56616c75652072616e6765206d757374206265206265747765656e20302d3130602082015264030303030360dc1b60408201528351156200133b57825115620012f65760405160208101903060601b825262000beb605482885162000215816034840160208d0162001b45565b519020926040519162000bfe8362001a71565b8483528560208401526040830152600260608301526006608083015260a0820152600160c0820152600760e082015260146101008201528161012082015242610140820152426101608201523061018082015260016101a0820152826000526002602052604060002081518155602082015180519060018060401b0382116200109757819062000c92600185015462001b6a565b601f8111620012bd575b50602090601f831160011462001246576000926200123a575b50508160011b916000199060031b1c19161760018201555b60408201518051906001600160401b0382116200109757819062000cf5600285015462001b6a565b601f811162001201575b50602090601f83116001146200118a576000926200117e575b50508160011b916000199060031b1c19161760028201555b60608201516006811015620011685760038201546080840151600a811015620011685761ff0060ff9160081b1692169061ffff19161717600382015560a082015180519060018060401b03821162001097576801000000000000000082116200109757602090600484015483600486015580841062001145575b500160048301600052602060002060005b8381106200113057505050506005810160c0830151151560ff8019835416911617905560e08201516006820155610100820151600782015561012082015180519068010000000000000000821162001097576008830154826008850155808310620010ad575b5060200190600883016000526020600020916000905b82821062000f655750505050600b906101408301516009820155610160830151600a820155019060018060a01b03610180820151168254916101a060ff60a01b910151151560a01b169160018060a81b0319161717905562000e998262001bc0565b6002600052600860205262000ecf827f6add646517a5b0f6793cd5891b7937d28a5b2981a5d88ebc7cd776088fea904162001c0f565b60005b815181101562000f065762000ef3836200055a602062000545858762001b30565b60001981146200057d5760010162000ed2565b505060008051602062004e238339815191526040516040815262000f3b84518095816040850152602060608501910162001b45565b600260208201523093601f01601f1916810181900360600190a36040516131e3908162001c408239f35b80518051906001600160401b038211620010975762000f85865462001b6a565b601f811162001055575b50602090601f831160011462000fe057928260019493602093869560009262000fd4575b5050600019600383901b1c191690841b1787555b0194019101909262000e37565b015190508e8062000fb3565b908660005260206000209160005b601f19851681106200103c575083602093600196938796938794601f1981161062001022575b505050811b01875562000fc7565b015160001960f88460031b161c191690558e808062001014565b9192602060018192868501518155019401920162000fee565b6200108590876000526020600020601f850160051c810191602086106200108c575b601f0160051c019062001ba7565b8b62000f8f565b909150819062001077565b634e487b7160e01b600052604160045260246000fd5b600884016000526020600020908382015b8183018110620010d057505062000e21565b80620010df6001925462001b6a565b80620010ee575b5001620010be565b601f81118314620011065750600081555b8b620010e6565b60009082825262001126601f60208420920160051c820185830162001ba7565b81835555620010ff565b60019060208451940193818401550162000dbb565b6200116190600486016000528484600020918201910162001ba7565b8862000daa565b634e487b7160e01b600052602160045260246000fd5b01519050878062000d18565b9250600284016000526020600020906000935b601f1984168510620011e5576001945083601f19811610620011cb575b505050811b01600282015562000d30565b015160001960f88460031b161c19169055878080620011ba565b818101518355602094850194600190930192909101906200119d565b6200123390600286016000526020600020601f850160051c810191602086106200108c57601f0160051c019062001ba7565b8862000cff565b01519050878062000cb5565b9250600184016000526020600020906000935b601f1984168510620012a1576001945083601f1981161062001287575b505050811b01600182015562000ccd565b015160001960f88460031b161c1916905587808062001276565b8181015183556020948501946001909301929091019062001259565b620012ef90600186016000526020600020601f850160051c810191602086106200108c57601f0160051c019062001ba7565b8862000c9c565b60405162461bcd60e51b815260206004820152601a60248201527f5468726573686f6c64732063616e6e6f7420626520656d7074790000000000006044820152606490fd5b60405162461bcd60e51b815260206004820152601460248201527f4e616d652063616e6e6f7420626520656d7074790000000000000000000000006044820152606490fd5b80606060208093850101520162000a8c565b80518051906001600160401b0382116200109757620013b2865462001b6a565b601f811162001482575b50602090601f83116001146200140d57928260019493602093869560009262001401575b5050600019600383901b1c191690841b1787555b0194019101909262000959565b015190508e80620013e0565b908660005260206000209160005b601f198516811062001469575083602093600196938796938794601f198116106200144f575b505050811b018755620013f4565b015160001960f88460031b161c191690558e808062001441565b919260206001819286850151815501940192016200141b565b620014b190876000526020600020601f850160051c810191602086106200108c57601f0160051c019062001ba7565b8b620013bc565b600884016000526020600020908382015b8183018110620014db57505062000943565b80620014ea6001925462001b6a565b80620014f9575b5001620014c9565b601f81118314620015115750600081555b8b620014f1565b60009082825262001531601f60208420920160051c820185830162001ba7565b818355556200150a565b600190602084519401938184015501620008dd565b6200156c90600486016000528484600020918201910162001ba7565b88620008cc565b0151905087806200083a565b9250600284016000526020600020906000935b601f1984168510620015da576001945083601f19811610620015c0575b505050811b01600282015562000852565b015160001960f88460031b161c19169055878080620015af565b8181015183556020948501946001909301929091019062001592565b6200162890600286016000526020600020601f850160051c810191602086106200108c57601f0160051c019062001ba7565b8862000821565b015190508780620007d7565b9250600184016000526020600020906000935b601f198416851062001696576001945083601f198116106200167c575b505050811b016001820155620007ef565b015160001960f88460031b161c191690558780806200166b565b818101518355602094850194600190930192909101906200164e565b620016e490600186016000526020600020601f850160051c810191602086106200108c57601f0160051c019062001ba7565b88620007be565b806060602080938501015201620005f7565b80518051906001600160401b03821162001097576200171d865462001b6a565b601f8111620017ed575b50602090601f8311600114620017785792826001949360209386956000926200176c575b5050600019600383901b1c191690841b1787555b019401910190926200047f565b015190508e806200174b565b908660005260206000209160005b601f1985168110620017d4575083602093600196938796938794601f19811610620017ba575b505050811b0187556200175f565b015160001960f88460031b161c191690558e8080620017ac565b9192602060018192868501518155019401920162001786565b6200181c90876000526020600020601f850160051c810191602086106200108c57601f0160051c019062001ba7565b8b62001727565b600885016000526020600020908382015b81830181106200184657505062000469565b80620018556001925462001b6a565b8062001864575b500162001834565b601f811183146200187c5750600081555b8b6200185c565b6000908282526200189c601f60208420920160051c820185830162001ba7565b8183555562001875565b60019060208451940193818401550162000401565b620018d790600487016000528484600020918201910162001ba7565b88620003f0565b0151905087806200035e565b9250600285016000526020600020906000935b601f198416851062001945576001945083601f198116106200192b575b505050811b01600283015562000376565b015160001960f88460031b161c191690558780806200191a565b81810151835560209485019460019093019290910190620018fd565b6200199390600287016000526020600020601f850160051c810191602086106200108c57601f0160051c019062001ba7565b8862000345565b015190508780620002fb565b9250600185016000526020600020906000935b601f198416851062001a01576001945083601f19811610620019e7575b505050811b01600183015562000313565b015160001960f88460031b161c19169055878080620019d6565b81810151835560209485019460019093019290910190620019b9565b62001a4f90600187016000526020600020601f850160051c810191602086106200108c57601f0160051c019062001ba7565b88620002e2565b631e4fbdf760e01b815260006004820152602490fd5b600080fd5b6101c081019081106001600160401b038211176200109757604052565b604081019081106001600160401b038211176200109757604052565b606081019081106001600160401b038211176200109757604052565b601f909101601f19168101906001600160401b038211908210176200109757604052565b80511562001af85760200190565b634e487b7160e01b600052603260045260246000fd5b80516001101562001af85760400190565b80516002101562001af85760600190565b805182101562001af85760209160051b010190565b60005b83811062001b595750506000910152565b818101518382015260200162001b48565b90600182811c9216801562001b9c575b602083101462001b8657565b634e487b7160e01b600052602260045260246000fd5b91607f169162001b7a565b81811062001bb3575050565b6000815560010162001ba7565b600554680100000000000000008110156200109757600181018060055581101562001af85760056000527f036b6384b5eca791c62761152d0c79bb0604c104a5fb6f4eb0703f3154bb3db00155565b8054906801000000000000000082101562001097576001820180825582101562001af8576000526020600020015556fe6080604052600436101561001257600080fd5b60003560e01c8063039c13b014611e415780630acf909d14611d4e5780630dbf03b314611bf257806314370ff6146113bf57806318ad50521461138e5780632664b362146113555780632e3dcc06146112dd5780632fb7c3c214611271578063317e59421461110c578063361bcc781461105b5780634093d7a11461100a578063575e083b14610fb95780635855e3b914610f755780636203112f14610f04578063715018a614610eab578063787daaac14610b4f57806383a228ee146109d357806385df9d481461095b5780638da5cb5b1461093257806398f70a59146108e1578063bebae906146103b7578063c625645414610379578063d94f6d21146102d3578063ec45e16714610243578063f2fde38b146101b85763f30c2ae11461013a57600080fd5b346101b35760403660031901126101b3576004356001600160401b0381116101b35761016a9036906004016123ed565b61018660206024359281604051938285809451938492016125f1565b8101600981520301902080548210156101b3576020916101a5916127de565b90546040519160031b1c8152f35b600080fd5b346101b35760203660031901126101b3576004356001600160a01b03818116918290036101b3576101e761280f565b811561022a57600054826001600160601b0360a01b821617600055167f8be0079c531659141344cd1fd0a4f28419497f9722a3daafe3b4186f6b6457e0600080a3005b604051631e4fbdf760e01b815260006004820152602490fd5b346101b35760003660031901126101b3576040518060055480825282602080930160056000527f036b6384b5eca791c62761152d0c79bb0604c104a5fb6f4eb0703f3154bb3db09260005b858282106102bd575050506102a5925003836123cc565b6102b9604051928284938452830190612653565b0390f35b855484526001958601958895509301920161028e565b346101b35760203660031901126101b3576004356000526004602052604060002080546103026001830161254b565b9161030f6002820161254b565b60048201549160ff60058201541661035e600683015492600760018060a01b039101541693610350604051988998895260e060208a015260e0890190612614565b908782036040890152612614565b9360608601521515608085015260a084015260c08301520390f35b346101b35760403660031901126101b35760043560068110156101b3576103a2602435916127f6565b80548210156101b3576020916101a5916127de565b346101b3576103c53661245a565b90926103d38151151561283b565b83511561089c5760648211610857576040516020810190610408816103fa42863387612905565b03601f1981018352826123cc565b5190209060005b8551811015610449578061042661044492886129c2565b51600052600360205261043f6040600020541515612ac5565b61299d565b61040f565b50604051848661045883612394565b848352602083019184835260408401526060830152846080830152600160a08301524260c08301523360e083015283600052600460205260406000209082518255518051906001600160401b0382116106a05781906104ba6001850154612511565b601f8111610822575b50602090601f83116001146107b0576000926107a5575b50508160011b916000199060031b1c19161760018201555b604082015180516001600160401b0381116106a0578060028401926105178454612511565b601f8111610768575b50602090601f8311600114610702576000926106f7575b50508160011b916000199060031b1c19161790555b60608201518051906001600160401b0382116106a057600160401b82116106a05760038301548260038501558083106106ca575b5060200160038301600052602060002060005b8381106106b65750505050600790608083015160048201556105ca60a08401511515600583019060ff801983541691151516179055565b60c08301516006820155019060e060018060a01b03910151166001600160601b0360a01b82541617905560075492600160401b8410156106a057600184018060075584101561068a5761067a83927f30a6111f9765e42c2b9c509fa0413990da376997e7c9cf5e5fb8d84489823bf0928460209760076000527fa66cc928b5edb82af9bd49922954155ab7b0942694bea4ce44661d9a8736c6880155604051928392604084526040840190612614565b90878301520390a2604051908152f35b634e487b7160e01b600052603260045260246000fd5b634e487b7160e01b600052604160045260246000fd5b600190602084519401938184015501610593565b600384016000526020600020908382015b81830181106106eb575050610580565b600081556001016106db565b015190508880610537565b6000858152602081209350601f198516905b8181106107505750908460019594939210610737575b505050811b01905561054c565b015160001960f88460031b161c1916905588808061072a565b92936020600181928786015181550195019301610714565b61079590856000526020600020601f850160051c8101916020861061079b575b601f0160051c0190612951565b89610520565b9091508190610788565b0151905087806104da565b9250600184016000526020600020906000935b601f1984168510610807576001945083601f198116106107ee575b505050811b0160018201556104f2565b015160001960f88460031b161c191690558780806107de565b818101518355602094850194600190930192909101906107c3565b61085190600186016000526020600020601f850160051c8101916020861061079b57601f0160051c0190612951565b886104c3565b60405162461bcd60e51b815260206004820152601760248201527f4d696e2073636f7265206d75737420626520302d3130300000000000000000006044820152606490fd5b60405162461bcd60e51b815260206004820152601960248201527f47726f7570204944732063616e6e6f7420626520656d707479000000000000006044820152606490fd5b346101b35760203660031901126101b3576004356007548110156101b35760209060076000527fa66cc928b5edb82af9bd49922954155ab7b0942694bea4ce44661d9a8736c6880154604051908152f35b346101b35760003660031901126101b3576000546040516001600160a01b039091168152602090f35b346101b35760003660031901126101b3576040518060075480825282602080930160076000527fa66cc928b5edb82af9bd49922954155ab7b0942694bea4ce44661d9a8736c6889260005b858282106109bd575050506102a5925003836123cc565b85548452600195860195889550930192016109a6565b346101b3576020806003193601126101b357604051906109f282612378565b6000825260608082840152806040840152808084015260006080840152600060a0840152600060c0840152600060e084015260006101008094015260043560005260038252604060002060086040518095610a4c82612378565b83548252610a5c6001850161254b565b93868301948552610a6f6002820161254b565b9460408401958652610a836003830161315e565b96808501978852610b2b60ff60048501541698608087019915158a5260058501549260a08801938452610b1a60068701549560c08a019687528860078901549860e08c01998a5260018060a01b039c8d910154169a01998a526040519e8f9e8f9181835251910152519a8d610b066101209d8e6040840152610140830190612614565b915190601f19948582850301910152612614565b9151908c83030160808d0152612653565b9751151560a08a01525160c08901525160e088015251908601525116908301520390f35b346101b35760203660031901126101b35760006101a0604051610b71816123b0565b8281526060602082015260606040820152826060820152826080820152606060a08201528260c08201528260e082015282610100820152606061012082015282610140820152826101608201528261018082015201526004356000526002602052604060002060405190610be4826123b0565b80548252610bf46001820161254b565b6020830152610c056002820161254b565b6040830152610c3060ff6003830154610c2382821660608701612939565b60081c1660808401612945565b600481016040518082602082945493848152019060005260206000209260005b818110610e92575050610c65925003826123cc565b60a083015260ff600582015416151560c0830152600681015460e083015260078101546101008301526008810154610c9c81612443565b90610caa60405192836123cc565b808252602082016008840160005260206000206000915b838310610e75578660ff600b88886101208501526009810154610140850152600a810154610160850152015460018060a01b03811661018084015260a01c1615156101a08201526040516020815281516020820152610d4a610d3460208401516101c060408501526101e0840190612614565b6040840151838203601f19016060850152612614565b610d5c60608401516080840190612639565b610d6e608084015160a0840190612646565b60a083015190601f198382030160c08401526020808351928381520192019060005b818110610e5f5750505060c0830151151560e083015260e083015161010083015261010083015161012083015261012083015190601f1983820301610140840152815180825260208201916020808360051b8301019401926000915b838310610e32578680876101a08b61014081015161016085015261016081015161018085015260018060a01b036101808201511682850152015115156101c08301520390f35b9091929394602080610e50600193601f198682030187528951612614565b97019301930191939290610dec565b8251845260209384019390920191600101610d90565b600160208192610e848561254b565b815201920192019190610cc1565b8454835260019485019486945060209093019201610c50565b346101b35760003660031901126101b357610ec461280f565b600080546001600160a01b0319811682556001600160a01b03167f8be0079c531659141344cd1fd0a4f28419497f9722a3daafe3b4186f6b6457e08280a3005b346101b35760203660031901126101b3576004356001600160401b0381116101b357610f61610f526020610f3f6102b99436906004016123ed565b81604051938285809451938492016125f1565b8101600981520301902061315e565b604051918291602083526020830190612653565b346101b35760403660031901126101b3576020610faf6004358060005260028352610fa660406000205415156129d6565b60243590612b08565b6040519015158152f35b346101b35760203660031901126101b3576004356005548110156101b35760209060056000527f036b6384b5eca791c62761152d0c79bb0604c104a5fb6f4eb0703f3154bb3db00154604051908152f35b346101b35760203660031901126101b3576004356006548110156101b35760209060066000527ff652222313e28459528d920b65115c16c04f3efc82aaedc97be59f3f377c0d3f0154604051908152f35b346101b35760203660031901126101b35760043560005260036020526040600020805461108a6001830161254b565b916110976002820161254b565b60ff6004830154169160058101546006820154906110ec600784015493600860018060a01b0391015416946110de604051998a998a526101008060208c01528a0190612614565b9088820360408a0152612614565b9415156060870152608086015260a085015260c084015260e08301520390f35b346101b35760803660031901126101b357600435602435801515908181036101b357604435906064359284600052600260205261114f60406000205415156129d6565b6000858152600260205260409020600b0154336001600160a01b0391821614908115611263575b5015611227577fbf2462b5db2ef7b1e0812c2d3f9df0cc2d956a0841f8e8ac62647a69e4350be0938360016112119510158061121c575b6111b69061287e565b6111c360648311156128c2565b8660005260026020526111ea604060002094600586019060ff801983541691151516179055565b6006840155600783015542600a830155604051928392604084526001604085019101612a22565b9060208301520390a2005b50600a8111156111ad565b60405162461bcd60e51b81526020600482015260146024820152732737ba1031b932b0ba37b91037b91037bbb732b960611b6044820152606490fd5b905060005416331486611176565b346101b35761127f36612765565b826000939293526004602052604060002054156112a257602092610faf92612d35565b60405162461bcd60e51b8152602060048201526013602482015272149d5b1948191bd95cc81b9bdd08195e1a5cdd606a1b6044820152606490fd5b346101b35760003660031901126101b3576040518060065480825282602080930160066000527ff652222313e28459528d920b65115c16c04f3efc82aaedc97be59f3f377c0d3f9260005b8582821061133f575050506102a5925003836123cc565b8554845260019586019588955093019201611328565b346101b357602061138661136836612765565b9180600052600385526113816040600020541515612ac5565b612b9b565b604051908152f35b346101b35760203660031901126101b35760043560068110156101b357610f616113ba6102b9926127f6565b61315e565b346101b3576101203660031901126101b3576004356001600160401b0381116101b3576113f09036906004016123ed565b6024356001600160401b0381116101b35761140f9036906004016123ed565b600660443510156101b357600a60643510156101b3576084356001600160401b0381116101b357611444903690600401612687565b9060e4356001600160401b0381116101b3576114649036906004016126e5565b6101043580151581036101b35761147d8551151561283b565b600160a435101580611be5575b6114939061287e565b6114a2606460c43511156128c2565b835115611ba05760405160208101906114c1816103fa428a3387612905565b51902093604051936114d2856123b0565b85855286602086015260408501526114ef60443560608601612939565b6114fe60643560808601612945565b60a0840152600160c084015260a43560e084015260c4356101008401528161012084015242610140840152426101608401523361018084015215156101a08301528260005260026020526040600020918051835560208101518051906001600160401b0382116106a05781906115776001870154612511565b601f8111611b6b575b50602090601f8311600114611af957600092611aee575b50508160011b916000199060031b1c19161760018401555b60408101518051906001600160401b0382116106a05781906115d46002870154612511565b601f8111611ab9575b50602090601f8311600114611a4757600092611a3c575b50508160011b916000199060031b1c19161760028401555b6003830160608201516006811015611a265781546080840151600a811015611a265761ff0060ff9160081b1692169061ffff19161717905560a08101518051906001600160401b0382116106a057600160401b82116106a0576020906004860154836004880155808410611a06575b500160048501600052602060002060005b8381106119f257505050506116b660c08201511515600585019060ff801983541691151516179055565b60e081015160068401556101008101516007840155610120810151805190600160401b82116106a057600885015482600887015580831061197a575b5060200190600885016000526020600020916000905b8282106118655750505050600b6101408201519360099485820155610160830151600a820155019060018060a01b03610180820151168254916101a060ff60a01b910151151560a01b16916affffffffffffffffffffff60a81b1617179055600554600160401b8110156106a057600181018060055581101561068a57839060056000527f036b6384b5eca791c62761152d0c79bb0604c104a5fb6f4eb0703f3154bb3db001556117c3836117be6044356127f6565b612968565b60005b815181101561180d578061043f856117fa60206117e661180896886129c2565b5181604051938285809451938492016125f1565b810189815203019020612968565b6117c6565b60208486817f3dcbe2d23418716c0e04e70472384cdf48882bf6c4f5c6ae2ba184e26f781af961184860405193604085526040850190612614565b92611857868201604435612639565b8033940390a3604051908152f35b80518051906001600160401b0382116106a0576118828654612511565b601f8111611948575b50602090601f83116001146118d85792826001949360209386956000926118cd575b5050600019600383901b1c191690841b1787555b01940191019092611708565b015190508e806118ad565b908660005260206000209160005b601f1985168110611930575083602093600196938796938794601f19811610611917575b505050811b0187556118c1565b015160001960f88460031b161c191690558e808061190a565b919260206001819286850151815501940192016118e6565b61197490876000526020600020601f850160051c8101916020861061079b57601f0160051c0190612951565b8b61188b565b600886016000526020600020908382015b818301811061199b5750506116f2565b806119a860019254612511565b806119b5575b500161198b565b601f811183146119cb5750600081555b8b6119ae565b6000908282526119e9601f60208420920160051c8201858301612951565b818355556119c5565b60019060208451940193818401550161168c565b611a20906004880160005284846000209182019101612951565b8861167b565b634e487b7160e01b600052602160045260246000fd5b0151905087806115f4565b9250600286016000526020600020906000935b601f1984168510611a9e576001945083601f19811610611a85575b505050811b01600284015561160c565b015160001960f88460031b161c19169055878080611a75565b81810151835560209485019460019093019290910190611a5a565b611ae890600288016000526020600020601f850160051c8101916020861061079b57601f0160051c0190612951565b886115dd565b015190508780611597565b9250600186016000526020600020906000935b601f1984168510611b50576001945083601f19811610611b37575b505050811b0160018401556115af565b015160001960f88460031b161c19169055878080611b27565b81810151835560209485019460019093019290910190611b0c565b611b9a90600188016000526020600020601f850160051c8101916020861061079b57601f0160051c0190612951565b88611580565b60405162461bcd60e51b815260206004820152601a60248201527f5468726573686f6c64732063616e6e6f7420626520656d7074790000000000006044820152606490fd5b50600a60a435111561148a565b346101b3576020806003193601126101b357604051611c1081612394565b60008152600060e0606092838582015283604082015283808201528260808201528260a08201528260c08201520152600435600052600482526040600020908260076040518094611c6082612394565b80548252611c706001820161254b565b848301908152611d2f611c856002840161254b565b9660408501978852611c996003850161315e565b90808601918252611d1e600486015499608088019a8b52611d0a60ff6005890154169660a08a01971515885260e060068a01549960c08c019a8b5260018060a01b039c8d910154169a01998a526040519e8f9e8f9d8e5251908d0152516101206101009c8d60408201520190612614565b90518c601f19948582850301910152612614565b9151908a83030160808b0152612653565b955160a088015251151560c08701525160e08601525116908301520390f35b346101b35760203660031901126101b357600435600052600260205260406000208054611d7d6001830161254b565b9160ff611d8c6002830161254b565b600383015492826005820154166006820154600783015490600984015492611e05611de6600b600a88015497015497611dd86040519d8e9d8e528d610180908160208201520190612614565b8c810360408e015290612614565b98611df660608c018a8316612639565b8860808c019160081c16612646565b151560a089015260c088015260e087015261010086015261012085015260018060a01b03811661014085015260a01c1615156101608301520390f35b346101b357611e4f3661245a565b9092611e5d8151151561283b565b8351156123335781151580612328575b156122e3576040516020810190611e8a816103fa42863387612905565b519020906000926000935b8651851015611ef557611ee9611eef91611eaf878a6129c2565b51600052600280602052611ec960406000205415156129d6565b611ed3888b6129c2565b5160005260205260076040600020015490612ab8565b9461299d565b93611e95565b869450859060405192611f0784612378565b858452602084019285845260408501528660608501526001608085015260a084015260c08301524260e08301523361010083015283600052600360205260406000209082518255518051906001600160401b0382116106a0578190611f6f6001850154612511565b601f81116122ae575b50602090601f831160011461223c57600092612231575b50508160011b916000199060031b1c19161760018201555b60408201518051906001600160401b0382116106a0578190611fcc6002850154612511565b601f81116121fc575b50602090601f831160011461218a5760009261217f575b50508160011b916000199060031b1c19161760028201555b60608201518051906001600160401b0382116106a057600160401b82116106a0576003830154826003850155808310612152575b5060200160038301600052602060002060005b83811061213e575050505060089061207860808401511515600483019060ff801983541691151516179055565b60a0830151600582015560c0830151600682015560e08301516007820155019061010060018060a01b03910151166001600160601b0360a01b82541617905560065492600160401b8410156106a057600184018060065584101561068a5761067a83927f03ad316109899b9c79acfa76d4c687f6a3cbb32bc598fc11696e10e44e5e103e928460209760066000527ff652222313e28459528d920b65115c16c04f3efc82aaedc97be59f3f377c0d3f015551604051928392604084526040840190612614565b60019060208451940193818401550161204b565b600384016000526020600020908382015b8183018110612173575050612038565b60008155600101612163565b015190508780611fec565b9250600284016000526020600020906000935b601f19841685106121e1576001945083601f198116106121c8575b505050811b016002820155612004565b015160001960f88460031b161c191690558780806121b8565b8181015183556020948501946001909301929091019061219d565b61222b90600286016000526020600020601f850160051c8101916020861061079b57601f0160051c0190612951565b88611fd5565b015190508780611f8f565b9250600184016000526020600020906000935b601f1984168510612293576001945083601f1981161061227a575b505050811b016001820155611fa7565b015160001960f88460031b161c1916905587808061226a565b8181015183556020948501946001909301929091019061224f565b6122dd90600186016000526020600020601f850160051c8101916020861061079b57601f0160051c0190612951565b88611f78565b60405162461bcd60e51b815260206004820152601860248201527f496e76616c6964206d696e20736174697366616374696f6e00000000000000006044820152606490fd5b508351821115611e6d565b60405162461bcd60e51b815260206004820152601e60248201527f436f6e73747261696e74204944732063616e6e6f7420626520656d70747900006044820152606490fd5b61012081019081106001600160401b038211176106a057604052565b61010081019081106001600160401b038211176106a057604052565b6101c081019081106001600160401b038211176106a057604052565b90601f801991011681019081106001600160401b038211176106a057604052565b81601f820112156101b3578035906001600160401b0382116106a05760405192612421601f8401601f1916602001856123cc565b828452602083830101116101b357816000926020809301838601378301015290565b6001600160401b0381116106a05760051b60200190565b9060806003198301126101b3576001600160401b03906004358281116101b35783612487916004016123ed565b926024358381116101b3578161249f916004016123ed565b926044359081116101b357816023820112156101b3578060040135916124c483612443565b926124d260405194856123cc565b80845260209260248486019260051b8201019283116101b357602401905b82821061250257505050509060643590565b813581529083019083016124f0565b90600182811c92168015612541575b602083101461252b57565b634e487b7160e01b600052602260045260246000fd5b91607f1691612520565b906040519182600082549261255f84612511565b9081845260019485811690816000146125ce575060011461258b575b5050612589925003836123cc565b565b9093915060005260209081600020936000915b8183106125b65750506125899350820101388061257b565b8554888401850152948501948794509183019161259e565b91505061258994506020925060ff191682840152151560051b820101388061257b565b60005b8381106126045750506000910152565b81810151838201526020016125f4565b9060209161262d815180928185528580860191016125f1565b601f01601f1916010190565b906006821015611a265752565b90600a821015611a265752565b90815180825260208080930193019160005b828110612673575050505090565b835185529381019392810192600101612665565b81601f820112156101b35780359161269e83612443565b926126ac60405194856123cc565b808452602092838086019260051b8201019283116101b3578301905b8282106126d6575050505090565b813581529083019083016126c8565b9080601f830112156101b3578135906126fd82612443565b9261270b60405194856123cc565b828452602092838086019160051b830101928084116101b357848301915b8483106127395750505050505090565b82356001600160401b0381116101b357869161275a848480948901016123ed565b815201920191612729565b60606003198201126101b357600435916001600160401b036024358181116101b35783612794916004016126e5565b926044359182116101b3576127ab91600401612687565b90565b80541561068a57600052602060002090600090565b80546001101561068a57600052600160206000200190600090565b805482101561068a5760005260206000200190600090565b6006811015611a26576000526008602052604060002090565b6000546001600160a01b0316330361282357565b60405163118cdaa760e01b8152336004820152602490fd5b1561284257565b60405162461bcd60e51b81526020600482015260146024820152734e616d652063616e6e6f7420626520656d70747960601b6044820152606490fd5b1561288557565b60405162461bcd60e51b815260206004820152601560248201527405072696f72697479206d75737420626520312d313605c1b6044820152606490fd5b156128c957565b60405162461bcd60e51b81526020600482015260146024820152730576569676874206d75737420626520302d3130360641b6044820152606490fd5b60349392916001600160601b03199060601b16815261292e8251809360206014850191016125f1565b019060148201520190565b6006821015611a265752565b600a821015611a265752565b81811061295c575050565b60008155600101612951565b8054600160401b8110156106a057612985916001820181556127de565b819291549060031b91821b91600019901b1916179055565b60001981146129ac5760010190565b634e487b7160e01b600052601160045260246000fd5b805182101561068a5760209160051b010190565b156129dd57565b60405162461bcd60e51b815260206004820152601960248201527f436f6e73747261696e7420646f6573206e6f74206578697374000000000000006044820152606490fd5b9060009291805491612a3383612511565b918282526001938481169081600014612a955750600114612a55575b50505050565b90919394506000526020928360002092846000945b838610612a81575050505001019038808080612a4f565b805485870183015294019385908201612a6a565b9294505050602093945060ff191683830152151560051b01019038808080612a4f565b919082018092116129ac57565b15612acc57565b60405162461bcd60e51b815260206004820152601460248201527311dc9bdd5c08191bd95cc81b9bdd08195e1a5cdd60621b6044820152606490fd5b600052600260205260406000209060ff60058301541615612b2c576127ab91612f52565b5050600090565b15612b3a57565b60405162461bcd60e51b815260206004820152603360248201527f4669656c64206e616d657320616e642076616c75657320617272617973206d756044820152720e6e840d0c2ecca40e6c2daca40d8cadccee8d606b1b6064820152608490fd5b612ba88251845114612b33565b60005260039182602052604091826000209160ff60048401541615612d0b5760009460009381810154945b858110612be4575050505050505090565b612bf0818484016127de565b905490841b1c60005260026020528660002060ff600582015416612c1e575b50612c199061299d565b612bd3565b60009060088101545b808310612c35575050612c0f565b9460009b929a999b9891989796979493945b8751811015612cf357612c70612c778e612c648f60088f016127de565b50905192838092612a22565b03826123cc565b60208151910120612c88828a6129c2565b516020815191012014612ca4575b612c9f9061299d565b612c47565b612cae818a6129c2565b5115612c9657612cc8612cc1828b6129c2565b518b612f52565b15612c96575094919a98612ce7612ced9199929998979895949561299d565b9a61299d565b91612c27565b5094919a9899612ced9098919897969794939461299d565b5050505050600090565b8115612d1f570490565b634e487b7160e01b600052601260045260246000fd5b612d428251845114612b33565b600052600460205260406000209160ff60058401541615612da15760038301546000928392835b838110612da957505050508115612da1576064810290808204606414901517156129ac57600491612d9991612d15565b910154111590565b505050600090565b612db681600389016127de565b90549060031b1c6000526003602052604060002060ff600482015416612de6575b50612de19061299d565b612d69565b909594612df68760038a016127de565b90549060031b1c91604051809363133259b160e11b825260648201906004830152606060248301528651809152608490818301918160051b84010191602089019160005b818110612f23575050505081810360031901604483015285518082526020918201918701906000905b808210612f075750505090806020920381305afa928315612efb57600093612ec7575b506064830292808404606414901517156129ac57612eb2926003612eac92015490612d15565b90612ab8565b93606481018091116129ac5794612de1612dd7565b9092506020813d602011612ef3575b81612ee3602093836123cc565b810103126101b357519138612e86565b3d9150612ed6565b6040513d6000823e3d90fd5b9193509160208060019286518152019401920186939291612e63565b91936001919395506020612f4281926083198c82030188528851612614565b9601940191019187949392612e3a565b906004820191825480156131555760ff60038093015460081c16600a811015611a265780612f905750509091612f87906127ae565b9054911b1c1490565b60018103612faf5750509091612fa5906127ae565b9054911b1c141590565b60028103612fcd5750509091612fc4906127ae565b9054911b1c1090565b808303612feb5750509091612fe1906127ae565b9054911b1c111590565b600481036130095750509091613000906127ae565b9054911b1c1190565b60058103613028575050909161301e906127ae565b9054911b1c101590565b600681036130b7575060021161307257613041836127ae565b905490821b1c8210159283613057575b50505090565b613063919293506127c3565b9054911b1c1015388080613051565b60405162461bcd60e51b815260206004820152601d60248201527f4245545745454e2072657175697265732032207468726573686f6c64730000006044820152606490fd5b6007146130c75750505050600090565b600211613106576130d7836127ae565b905490821b1c82109283156130ec5750505090565b6130f8919293506127c3565b9054911b1c10388080613051565b60405162461bcd60e51b815260206004820152602160248201527f4e4f545f4245545745454e2072657175697265732032207468726573686f6c646044820152607360f81b6064820152608490fd5b50505050600090565b9060405191828154918282526020928383019160005283600020936000905b82821061319357505050612589925003836123cc565b85548452600195860195889550938101939091019061317d56fea2646970667358221220ee9745d8334bb933e7c842cc358711a77dc0105cfc83752029c04bc62f32376264736f6c634300081400333dcbe2d23418716c0e04e70472384cdf48882bf6c4f5c6ae2ba184e26f781af9",
  "linkReferences": {},
  "deployedLinkReferences": {}
}