{
  "_format": "hh-sol-artifact-1",
  "contractName": "DataFeatureExtractor",
  "sourceName": "contracts/DataFeatureExtractor.sol",
  "abi": [
    {
      "inputs": [],
      "stateMutability": "nonpayable",
      "type": "constructor"
    },
    {
      "inputs": [
        {
          "internalType": "address",
          "name": "owner",
          "type": "address"
        }
      ],
      "name": "OwnableInvalidOwner",
      "type": "error"
    },
    {
      "inputs": [
        {
          "internalType": "address",
          "name": "account",
          "type": "address"
        }
      ],
      "name": "OwnableUnauthorizedAccount",
      "type": "error"
    },
    {
      "inputs": [],
      "name": "ReentrancyGuardReentrantCall",
      "type": "error"
    },
    {
      "anonymous": false,
      "inputs": [
        {
          "indexed": true,
          "internalType": "address",
          "name": "calculator",
          "type": "address"
        },
        {
          "indexed": false,
          "internalType": "bool",
          "name": "isAuthorized",
          "type": "bool"
        }
      ],
      "name": "CalculatorAuthorized",
      "type": "event"
    },
    {
      "anonymous": false,
      "inputs": [
        {
          "indexed": true,
          "internalType": "bytes32",
          "name": "featureId",
          "type": "bytes32"
        },
        {
          "indexed": true,
          "internalType": "address",
          "name": "calculator",
          "type": "address"
        },
        {
          "indexed": false,
          "internalType": "enum DataFeatureExtractor.DataType",
          "name": "dataType",
          "type": "uint8"
        },
        {
          "indexed": false,
          "internalType": "uint256",
          "name": "dataCount",
          "type": "uint256"
        }
      ],
      "name": "FeaturesCalculated",
      "type": "event"
    },
    {
      "anonymous": false,
      "inputs": [
        {
          "indexed": true,
          "internalType": "address",
          "name": "previousOwner",
          "type": "address"
        },
        {
          "indexed": true,
          "internalType": "address",
          "name": "newOwner",
          "type": "address"
        }
      ],
      "name": "OwnershipTransferred",
      "type": "event"
    },
    {
      "anonymous": false,
      "inputs": [
        {
          "indexed": true,
          "internalType": "bytes32",
          "name": "featureId",
          "type": "bytes32"
        },
        {
          "indexed": false,
          "internalType": "uint256",
          "name": "mean",
          "type": "uint256"
        },
        {
          "indexed": false,
          "internalType": "uint256",
          "name": "standardDeviation",
          "type": "uint256"
        },
        {
          "indexed": false,
          "internalType": "uint256",
          "name": "minValue",
          "type": "uint256"
        },
        {
          "indexed": false,
          "internalType": "uint256",
          "name": "maxValue",
          "type": "uint256"
        }
      ],
      "name": "StatisticalMetricsUpdated",
      "type": "event"
    },
    {
      "inputs": [
        {
          "internalType": "uint256",
          "name": "",
          "type": "uint256"
        }
      ],
      "name": "allFeatureIds",
      "outputs": [
        {
          "internalType": "bytes32",
          "name": "",
          "type": "bytes32"
        }
      ],
      "stateMutability": "view",
      "type": "function"
    },
    {
      "inputs": [
        {
          "internalType": "address",
          "name": "_calculator",
          "type": "address"
        },
        {
          "internalType": "bool",
          "name": "_isAuthorized",
          "type": "bool"
        }
      ],
      "name": "authorizeCalculator",
      "outputs": [],
      "stateMutability": "nonpayable",
      "type": "function"
    },
    {
      "inputs": [
        {
          "internalType": "address",
          "name": "",
          "type": "address"
        }
      ],
      "name": "authorizedCalculators",
      "outputs": [
        {
          "internalType": "bool",
          "name": "",
          "type": "bool"
        }
      ],
      "stateMutability": "view",
      "type": "function"
    },
    {
      "inputs": [
        {
          "internalType": "enum DataFeatureExtractor.DataType",
          "name": "_dataType",
          "type": "uint8"
        },
        {
          "internalType": "uint256",
          "name": "_dataCount",
          "type": "uint256"
        },
        {
          "internalType": "uint256[]",
          "name": "_numericalFeatures",
          "type": "uint256[]"
        },
        {
          "internalType": "string[]",
          "name": "_categoricalFeatures",
          "type": "string[]"
        }
      ],
      "name": "calculateDataFeatures",
      "outputs": [
        {
          "internalType": "bytes32",
          "name": "",
          "type": "bytes32"
        }
      ],
      "stateMutability": "nonpayable",
      "type": "function"
    },
    {
      "inputs": [
        {
          "internalType": "bytes32",
          "name": "_featureId",
          "type": "bytes32"
        }
      ],
      "name": "calculateDataQualityScore",
      "outputs": [
        {
          "internalType": "uint256",
          "name": "",
          "type": "uint256"
        }
      ],
      "stateMutability": "view",
      "type": "function"
    },
    {
      "inputs": [
        {
          "internalType": "enum DataFeatureExtractor.DataType[]",
          "name": "_dataTypes",
          "type": "uint8[]"
        },
        {
          "internalType": "uint256[]",
          "name": "_dataCounts",
          "type": "uint256[]"
        },
        {
          "internalType": "uint256[][]",
          "name": "_numericalFeaturesArray",
          "type": "uint256[][]"
        },
        {
          "internalType": "string[][]",
          "name": "_categoricalFeaturesArray",
          "type": "string[][]"
        }
      ],
      "name": "calculateMultipleFeatures",
      "outputs": [
        {
          "internalType": "bytes32[]",
          "name": "",
          "type": "bytes32[]"
        }
      ],
      "stateMutability": "nonpayable",
      "type": "function"
    },
    {
      "inputs": [
        {
          "internalType": "bytes32",
          "name": "",
          "type": "bytes32"
        }
      ],
      "name": "dataFeatures",
      "outputs": [
        {
          "internalType": "enum DataFeatureExtractor.DataType",
          "name": "dataType",
          "type": "uint8"
        },
        {
          "internalType": "uint256",
          "name": "dataCount",
          "type": "uint256"
        },
        {
          "internalType": "uint256",
          "name": "timestamp",
          "type": "uint256"
        },
        {
          "internalType": "string",
          "name": "featureHash",
          "type": "string"
        },
        {
          "internalType": "bool",
          "name": "isCalculated",
          "type": "bool"
        },
        {
          "internalType": "address",
          "name": "calculator",
          "type": "address"
        }
      ],
      "stateMutability": "view",
      "type": "function"
    },
    {
      "inputs": [],
      "name": "getAllFeatureIds",
      "outputs": [
        {
          "internalType": "bytes32[]",
          "name": "",
          "type": "bytes32[]"
        }
      ],
      "stateMutability": "view",
      "type": "function"
    },
    {
      "inputs": [
        {
          "internalType": "bytes32",
          "name": "_featureId",
          "type": "bytes32"
        }
      ],
      "name": "getDataFeatures",
      "outputs": [
        {
          "components": [
            {
              "internalType": "enum DataFeatureExtractor.DataType",
              "name": "dataType",
              "type": "uint8"
            },
            {
              "internalType": "uint256",
              "name": "dataCount",
              "type": "uint256"
            },
            {
              "internalType": "uint256[]",
              "name": "numericalFeatures",
              "type": "uint256[]"
            },
            {
              "internalType": "string[]",
              "name": "categoricalFeatures",
              "type": "string[]"
            },
            {
              "internalType": "uint256",
              "name": "timestamp",
              "type": "uint256"
            },
            {
              "internalType": "string",
              "name": "featureHash",
              "type": "string"
            },
            {
              "internalType": "bool",
              "name": "isCalculated",
              "type": "bool"
            },
            {
              "internalType": "address",
              "name": "calculator",
              "type": "address"
            }
          ],
          "internalType": "struct DataFeatureExtractor.DataFeatures",
          "name": "",
          "type": "tuple"
        }
      ],
      "stateMutability": "view",
      "type": "function"
    },
    {
      "inputs": [
        {
          "internalType": "bytes32",
          "name": "_featureId",
          "type": "bytes32"
        }
      ],
      "name": "getFeatureSummary",
      "outputs": [
        {
          "internalType": "string",
          "name": "",
          "type": "string"
        }
      ],
      "stateMutability": "view",
      "type": "function"
    },
    {
      "inputs": [
        {
          "internalType": "bytes32",
          "name": "_featureId",
          "type": "bytes32"
        }
      ],
      "name": "getStatisticalMetrics",
      "outputs": [
        {
          "components": [
            {
              "internalType": "uint256",
              "name": "mean",
              "type": "uint256"
            },
            {
              "internalType": "uint256",
              "name": "median",
              "type": "uint256"
            },
            {
              "internalType": "uint256",
              "name": "standardDeviation",
              "type": "uint256"
            },
            {
              "internalType": "uint256",
              "name": "variance",
              "type": "uint256"
            },
            {
              "internalType": "uint256",
              "name": "minValue",
              "type": "uint256"
            },
            {
              "internalType": "uint256",
              "name": "maxValue",
              "type": "uint256"
            },
            {
              "internalType": "uint256",
              "name": "range",
              "type": "uint256"
            },
            {
              "internalType": "uint256",
              "name": "skewness",
              "type": "uint256"
            },
            {
              "internalType": "uint256",
              "name": "kurtosis",
              "type": "uint256"
            },
            {
              "internalType": "uint256[]",
              "name": "quantiles",
              "type": "uint256[]"
            }
          ],
          "internalType": "struct DataFeatureExtractor.StatisticalMetrics",
          "name": "",
          "type": "tuple"
        }
      ],
      "stateMutability": "view",
      "type": "function"
    },
    {
      "inputs": [
        {
          "internalType": "address",
          "name": "_user",
          "type": "address"
        }
      ],
      "name": "getUserFeatureIds",
      "outputs": [
        {
          "internalType": "bytes32[]",
          "name": "",
          "type": "bytes32[]"
        }
      ],
      "stateMutability": "view",
      "type": "function"
    },
    {
      "inputs": [
        {
          "internalType": "address",
          "name": "_address",
          "type": "address"
        }
      ],
      "name": "isAuthorizedCalculator",
      "outputs": [
        {
          "internalType": "bool",
          "name": "",
          "type": "bool"
        }
      ],
      "stateMutability": "view",
      "type": "function"
    },
    {
      "inputs": [],
      "name": "nextFeatureId",
      "outputs": [
        {
          "internalType": "uint256",
          "name": "",
          "type": "uint256"
        }
      ],
      "stateMutability": "view",
      "type": "function"
    },
    {
      "inputs": [],
      "name": "owner",
      "outputs": [
        {
          "internalType": "address",
          "name": "",
          "type": "address"
        }
      ],
      "stateMutability": "view",
      "type": "function"
    },
    {
      "inputs": [],
      "name": "renounceOwnership",
      "outputs": [],
      "stateMutability": "nonpayable",
      "type": "function"
    },
    {
      "inputs": [
        {
          "internalType": "bytes32",
          "name": "",
          "type": "bytes32"
        }
      ],
      "name": "statisticalMetrics",
      "outputs": [
        {
          "internalType": "uint256",
          "name": "mean",
          "type": "uint256"
        },
        {
          "internalType": "uint256",
          "name": "median",
          "type": "uint256"
        },
        {
          "internalType": "uint256",
          "name": "standardDeviation",
          "type": "uint256"
        },
        {
          "internalType": "uint256",
          "name": "variance",
          "type": "uint256"
        },
        {
          "internalType": "uint256",
          "name": "minValue",
          "type": "uint256"
        },
        {
          "internalType": "uint256",
          "name": "maxValue",
          "type": "uint256"
        },
        {
          "internalType": "uint256",
          "name": "range",
          "type": "uint256"
        },
        {
          "internalType": "uint256",
          "name": "skewness",
          "type": "uint256"
        },
        {
          "internalType": "uint256",
          "name": "kurtosis",
          "type": "uint256"
        }
      ],
      "stateMutability": "view",
      "type": "function"
    },
    {
      "inputs": [
        {
          "internalType": "address",
          "name": "newOwner",
          "type": "address"
        }
      ],
      "name": "transferOwnership",
      "outputs": [],
      "stateMutability": "nonpayable",
      "type": "function"
    },
    {
      "inputs": [
        {
          "internalType": "bytes32",
          "name": "_featureId",
          "type": "bytes32"
        },
        {
          "components": [
            {
              "internalType": "uint256",
              "name": "mean",
              "type": "uint256"
            },
            {
              "internalType": "uint256",
              "name": "median",
              "type": "uint256"
            },
            {
              "internalType": "uint256",
              "name": "standardDeviation",
              "type": "uint256"
            },
            {
              "internalType": "uint256",
              "name": "variance",
              "type": "uint256"
            },
            {
              "internalType": "uint256",
              "name": "minValue",
              "type": "uint256"
            },
            {
              "internalType": "uint256",
              "name": "maxValue",
              "type": "uint256"
            },
            {
              "internalType": "uint256",
              "name": "range",
              "type": "uint256"
            },
            {
              "internalType": "uint256",
              "name": "skewness",
              "type": "uint256"
            },
            {
              "internalType": "uint256",
              "name": "kurtosis",
              "type": "uint256"
            },
            {
              "internalType": "uint256[]",
              "name": "quantiles",
              "type": "uint256[]"
            }
          ],
          "internalType": "struct DataFeatureExtractor.StatisticalMetrics",
          "name": "_metrics",
          "type": "tuple"
        }
      ],
      "name": "updateStatisticalMetrics",
      "outputs": [],
      "stateMutability": "nonpayable",
      "type": "function"
    },
    {
      "inputs": [
        {
          "internalType": "address",
          "name": "",
          "type": "address"
        },
        {
          "internalType": "uint256",
          "name": "",
          "type": "uint256"
        }
      ],
      "name": "userCalculations",
      "outputs": [
        {
          "internalType": "bytes32",
          "name": "",
          "type": "bytes32"
        }
      ],
      "stateMutability": "view",
      "type": "function"
    }
  ],
  "bytecode": "0x6080806040523461009a5733156100845760008054336001600160a01b0319821681178355604080519390929091906001600160a01b03167f8be0079c531659141344cd1fd0a4f28419497f9722a3daafe3b4186f6b6457e08380a3600180556001600655338152600760205220600160ff198254161790556125dc90816100a08239f35b631e4fbdf760e01b815260006004820152602490fd5b600080fdfe6080604052600436101561001257600080fd5b60e0600035811c9081630752cdb214610f1e578163242f207a14610eeb578163255fe6e214610e735781632eae16c214610dec5781632f6b13c714610c0457816344685dfa1461091c5781635bd517be14610b615781635e9e3059146109f8578163606120e2146109da578163714ffbe6146109b4578163715018a61461095b578163746f698a1461091c578163771c5d95146108c45781638da5cb5b1461089b5781638e31410f1461084a578163a2857def14610551578163b988d847146104cd57508063d04d1c7214610445578063d3686b251461018e5763f2fde38b146100fb57600080fd5b34610189576020366003190112610189576101146111be565b61011c6113c0565b6001600160a01b0390811690811561017057600054826bffffffffffffffffffffffff60a01b821617600055167f8be0079c531659141344cd1fd0a4f28419497f9722a3daafe3b4186f6b6457e0600080a3005b604051631e4fbdf760e01b815260006004820152602490fd5b600080fd5b34610189576080366003190112610189576004356001600160401b038082116101895736602383011215610189578160040135916101cb8361102d565b916101d9604051938461100c565b8383526020918284019060249182600597881b83010191368311610189578301905b82821061042e5750505080358281116101895761021c903690600401611044565b604435918383116101895736602384011215610189578260040135926102418461102d565b9361024f604051958661100c565b80855282878601918a1b8301019136831161018957838101915b838310610408575050505060643584811161018957366023820112156101895780600401356102978161102d565b956102a5604051978861100c565b81875283888801928b1b8401019236841161018957848101925b8484106103e2575050505050336000526007855260ff6040600020541680156103ce575b6102ec906113ec565b6102f98651835114611db7565b6103068651845114611db7565b6103138651855114611db7565b85519461031f8661102d565b9561032d604051978861100c565b80875261033c601f199161102d565b0190369087013760005b86518110156103bc576103598188611e03565b51888110156103a757906103926103a2926103748387611e03565b5161037f8489611e03565b519061038b858b611e03565b5192611480565b61039c8289611e03565b5261145b565b610346565b82634e487b7160e01b60005260216004526000fd5b604051806103ca88826111d4565b0390f35b506000546001600160a01b031633146102e3565b8335838111610189578a916103fd83928936918701016110bd565b8152019301926102bf565b82358881116101895789916104238392883691870101611044565b815201920191610269565b8135888110156101895781529085019085016101fb565b346101895760403660031901126101895761045e6111be565b6024359081151590818303610189577f54fce7b38295d46d13b65779570e13b919343079ed5bcefc2722e5234e6fd127916104c460209261049d6113c0565b60018060a01b031694856000526007845260406000209060ff801983541691151516179055565b604051908152a2005b34610189576020366003190112610189576101209060043560005260036020526040600020908154916001810154916002820154600383015460048401546005850154916006860154936008600788015497015497604051998a5260208a015260408901526060880152608087015260a086015260c0850152830152610100820152f35b346101895760031960403682011261018957602435906001600160401b03821161018957610140908236030112610189576040519061058f82610fd5565b806004013582526024810135602083015260448101356040830152606481013560608301526084810135608083015260a481013560a083015260c481013560c083015260e481013583830152610104810135610100830152610124810135906001600160401b03821161018957600461060b9236920101611044565b61012082015233600052600760205260ff604060002054168015610836575b610633906113ec565b60043560009081526002602052604090206006015460081c6001600160a01b0316156107f85761066281611e24565b156107b357600435600052600360205260096040600020825181556020830151936001948583015560408401516002830155606084015160038301556080840151600483015560a0840151600583015560c084015160068301558301516007820155610100830151600882015501916101208201518051906001600160401b03821161079d57600160401b821161079d576020908554838755808410610780575b50019360005260206000209360005b82811061076d578480519060408101519060a06080820151910151916040519384526020840152604083015260608201527f232c89c6b6ad6fee080ccd0660e069455674a0671436112bf18779c4bb760481608060043592a2005b8390602083519301928188015501610712565b610797908760005284846000209182019101611444565b86610703565b634e487b7160e01b600052604160045260246000fd5b60405162461bcd60e51b815260206004820152601b60248201527f496e76616c696420737461746973746963616c206d65747269637300000000006044820152606490fd5b60405162461bcd60e51b81526020600482015260166024820152751199585d1d5c9948191bd95cc81b9bdd08195e1a5cdd60521b6044820152606490fd5b506000546001600160a01b0316331461062a565b34610189576020366003190112610189576004356005548110156101895760209060056000527f036b6384b5eca791c62761152d0c79bb0604c104a5fb6f4eb0703f3154bb3db00154604051908152f35b34610189576000366003190112610189576000546040516001600160a01b039091168152602090f35b34610189576040366003190112610189576108dd6111be565b6001600160a01b03166000908152600460205260409020805460243591908210156101895760209161090e91611392565b90546040519160031b1c8152f35b34610189576020366003190112610189576001600160a01b0361093d6111be565b166000526007602052602060ff604060002054166040519015158152f35b34610189576000366003190112610189576109746113c0565b600080546001600160a01b0319811682556001600160a01b03167f8be0079c531659141344cd1fd0a4f28419497f9722a3daafe3b4186f6b6457e08280a3005b346101895760203660031901126101895760206109d26004356123c7565b604051908152f35b34610189576000366003190112610189576020600654604051908152f35b3461018957602090816003193601126101895760405190610a1882610fd5565b600082528282016000905260408201600090526060820160009052608082016000905260a082016000905260c0820160009052808201600090526101009182810160009052610120809101606090526004356000526003845260406000209160405193610a8485610fd5565b835485526001840154918686019283526002850154906040870191825260038601546060880190815260048701546080890190815260058801549060a08a0191825260068901549260c08b0193845260078a015495858c0196875260088b015498888d01998a52604051806009819e0190610afe91611fc3565b03610b09908d61100c565b8a8d019b8c526040518e819f9e829f8352519101525160408d01525160608c01525160808b01525160a08a01525160c0890152519087015251908501525190830152516101408083015261016082016103ca91611232565b34610189576020366003190112610189576004356000526002602052610bc6604060002060ff81541690610be16001820154916004810154600660405192610bb784610bb081600585016112fc565b038561100c565b0154936040519687809761120f565b6020860152604085015260c0606085015260c0840190611199565b60ff82161515608084015260089190911c6001600160a01b031660a08301520390f35b34610189576020806003193601126101895760405191610c2383610fb9565b6000835260008284015260008160609485604082015285808201528260808201528560a08201528260c082015201526004356000526002825260406000209260405193610c6f85610fb9565b610c7d60ff82541686611438565b600192838201549085870191825260405194610ca786610ca08160028801611fc3565b038761100c565b6040880195865260038401908154610cbe8161102d565b92610ccc604051948561100c565b81845260009081528981208a8086015b848410610dc0575050505050888601918252506004840154608089019081526040519485610d0d81600584016112fc565b03610d18908761100c565b60a08a01958652600601549460c08a019760ff871615158952848b0195600160a01b60019003809860081c1687526040519b8b8d9c8d528c01905190610d5d9161120f565b5160408b01525161010080988b01526101208a01610d7a91611232565b9251601f1993848b82030160808c0152610d9391611266565b915160a08a015251918882030160c0890152610dae91611199565b94511515908601525116908301520390f35b85918291604051610ddc81610dd581896112fc565b038261100c565b8152019201920191908b90610cdc565b3461018957600036600319011261018957604051806005549182815260208091019260056000527f036b6384b5eca791c62761152d0c79bb0604c104a5fb6f4eb0703f3154bb3db0916000905b828210610e5c576103ca85610e508189038261100c565b604051918291826111d4565b835486529485019460019384019390910190610e39565b3461018957602080600319360112610189576001600160a01b03610e956111be565b1660005260048152604060002090604051908181845491828152019360005281600020916000905b828210610ed4576103ca85610e508189038261100c565b835486529485019460019384019390910190610ebd565b34610189576020366003190112610189576103ca610f0a600435612000565b604051918291602083526020830190611199565b34610189576080366003190112610189576004356005811015610189576001600160401b0360443581811161018957610f5b903690600401611044565b9160643591821161018957602092610f7a6109d29336906004016110bd565b91336000526007855260ff604060002054168015610fa5575b610f9c906113ec565b60243590611480565b506000546001600160a01b03163314610f93565b61010081019081106001600160401b0382111761079d57604052565b61014081019081106001600160401b0382111761079d57604052565b604081019081106001600160401b0382111761079d57604052565b90601f801991011681019081106001600160401b0382111761079d57604052565b6001600160401b03811161079d5760051b60200190565b81601f820112156101895780359161105b8361102d565b92611069604051948561100c565b808452602092838086019260051b820101928311610189578301905b828210611093575050505090565b81358152908301908301611085565b6001600160401b03811161079d57601f01601f191660200190565b9080601f83011215610189578135916110d58361102d565b926040906110e58251958661100c565b808552602093848087019260051b8501019381851161018957858101925b858410611114575050505050505090565b83356001600160401b03811161018957820183603f8201121561018957878101359161113f836110a2565b61114b8851918261100c565b838152858885850101116101895760008a8581968b8397018386013783010152815201930192611103565b60005b8381106111895750506000910152565b8181015183820152602001611179565b906020916111b281518092818552858086019101611176565b601f01601f1916010190565b600435906001600160a01b038216820361018957565b6020908160408183019282815285518094520193019160005b8281106111fb575050505090565b8351855293810193928101926001016111ed565b90600582101561121c5752565b634e487b7160e01b600052602160045260246000fd5b90815180825260208080930193019160005b828110611252575050505090565b835185529381019392810192600101611244565b908082519081815260208091019281808460051b8301019501936000915b8483106112945750505050505090565b90919293949584806112b2600193601f198682030187528a51611199565b9801930193019194939290611284565b90600182811c921680156112f2575b60208310146112dc57565b634e487b7160e01b600052602260045260246000fd5b91607f16916112d1565b906000929180549161130d836112c2565b91828252600193848116908160001461136f575060011461132f575b50505050565b90919394506000526020928360002092846000945b83861061135b575050505001019038808080611329565b805485870183015294019385908201611344565b9294505050602093945060ff191683830152151560051b01019038808080611329565b80548210156113aa5760005260206000200190600090565b634e487b7160e01b600052603260045260246000fd5b6000546001600160a01b031633036113d457565b60405163118cdaa760e01b8152336004820152602490fd5b156113f357565b60405162461bcd60e51b815260206004820152601960248201527f4e6f7420617574686f72697a65642063616c63756c61746f72000000000000006044820152606490fd5b600582101561121c5752565b81811061144f575050565b60008155600101611444565b600019811461146a5760010190565b634e487b7160e01b600052601160045260246000fd5b91928115611d6857835115801590611d5e575b15611d1957600583101561121c5760065460405161150381602081019333855287604083015286606083015260e060808301526114e96114d761010084018b611232565b838103601f190160a085015287611266565b904260c084015260e083015203601f19810183528261100c565b519020936040519161151483610fb9565b61151e8584611438565b60208301918483526040840190815260608401918252426080850152604051602081018181106001600160401b0382111761079d576040526000815260a0850152600160c08501523360e08501528660005260026020526040600020928451600581101561121c5760ff80198654169116178455516001840155600283019051908151916001600160401b03831161079d57600160401b831161079d576020908254848455808510611cfc575b500190600052602060002060005b838110611ce8575050505051805190600160401b821161079d576003830154826003850155808310611c6f575b5060200190600383016000526020600020916000905b828210611b5a57505050506080820151600482015560a08201518051906001600160401b03821161079d5761165460058401546112c2565b601f8111611b25575b50602090601f8311600114611ab057918060e09492600694600092611aa5575b50508160011b916000199060031b1c19161760058201555b01916116b360c08201511515849060ff801983541691151516179055565b01518154610100600160a81b03191660089190911b610100600160a81b03161790556000838152600260205260409020805460ff1690600582101561121c57600181015491600382016117296004840154936040519586946020860152604085015260a06060850152600260c085019101611fc3565b92601f198385030160808401528154808552602085019460208260051b820101936000526020600020956000915b838310611a73575050505061177a935060a083015203601f19810183528261100c565b60208151910120604051908160608101106001600160401b0360608401111761079d576060820160405260408252604036602084013760005b602081106119a15750508360005260026020526005604060002001908051906001600160401b03821161079d5781906117ec84546112c2565b601f8111611964575b50602090601f83116001146118fe576000926118f3575b50508160011b916000199060031b1c19161790555b33600052600460205260406000208054600160401b81101561079d5761184c91600182018155611392565b81549060031b9085821b91600019901b1916179055600554600160401b81101561079d5760018101806005558110156113aa57839060056000527f036b6384b5eca791c62761152d0c79bb0604c104a5fb6f4eb0703f3154bb3db001556118b460065461145b565b6006556118c4604051809361120f565b6020820152817f860bc54f8cfe0b47717f11497e6ba4075744fd6cf99f862e59c0ebcbbb85e58360403393a390565b01519050388061180c565b6000858152602081209350601f198516905b81811061194c5750908460019594939210611933575b505050811b019055611821565b015160001960f88460031b161c19169055388080611926565b92936020600181928786015181550195019301611910565b61199190856000526020600020601f850160051c81019160208610611997575b601f0160051c0190611444565b386117f5565b9091508190611984565b80601f03601f811161146a57600381901b906001600160fd1b0381160361146a5760ff811161146a576001811b15611a5d5782901c9060f0821660ff8316039160ff831161146a576119fb9060f41b600f60f81b16612564565b600182901b926001600160ff1b038316830361146a57611a359160001a611a228588612553565b5360f81b6001600160f81b031916612564565b916001810180911161146a57611a52611a589360001a9186612553565b5361145b565b6117b3565b634e487b7160e01b600052601260045260246000fd5b91939550919360206001611a918193601f198682030187528a6112fc565b980193019301909287959396949296611757565b01519050388061167d565b906005840160005260206000209160005b601f1985168110611b0d57509260e0949260019260069583601f19811610611af4575b505050811b016005820155611695565b015160001960f88460031b161c19169055388080611ae4565b91926020600181928685015181550194019201611ac1565b611b5490600585016000526020600020601f850160051c8101916020861061199757601f0160051c0190611444565b3861165d565b80518051906001600160401b03821161079d57611b7786546112c2565b601f8111611c3d575b50602090601f8311600114611bcd579282600194936020938695600092611bc2575b5050600019600383901b1c191690841b1787555b0194019101909261161c565b015190503880611ba2565b908660005260206000209160005b601f1985168110611c25575083602093600196938796938794601f19811610611c0c575b505050811b018755611bb6565b015160001960f88460031b161c19169055388080611bff565b91926020600181928685015181550194019201611bdb565b611c6990876000526020600020601f850160051c8101916020861061199757601f0160051c0190611444565b38611b80565b600384016000526020600020908382015b8183018110611c90575050611606565b80611c9d600192546112c2565b80611caa575b5001611c80565b601f908181118414611cc3575050600081555b38611ca3565b611cdf60009284845260208420920160051c8201858301611444565b81835555611cbd565b6001906020845194019381840155016115d9565b611d13908460005285846000209182019101611444565b386115cb565b60405162461bcd60e51b815260206004820152601e60248201527f4d7573742068617665206174206c65617374206f6e65206665617475726500006044820152606490fd5b5080511515611493565b60405162461bcd60e51b815260206004820152602160248201527f4461746120636f756e74206d7573742062652067726561746572207468616e206044820152600360fc1b6064820152608490fd5b15611dbe57565b60405162461bcd60e51b815260206004820152601860248201527f4172726179206c656e67746873206d757374206d6174636800000000000000006044820152606490fd5b80518210156113aa5760209160051b010190565b9190820391821161146a57565b6080810180519060a08301908151808411611fb95760c08501938451918215600014611f325750505090915051905103611eaa575b60408101518015801580611f25575b611ebf575b50506103e88060e083015111908115611eb0575b50611eaa5761012001515180611e98575b50600190565b606410611ea55738611e92565b600090565b50600090565b90506101008201511138611e81565b8180029180830414171561146a576060820190815160658102908082046065149015171561146a57606490048111918215611f02575b5050611eaa573880611e6d565b9091505160638102908082046063149015171561146a5760649004113880611ef5565b5060608301511515611e68565b90611f3c91611e17565b03611f4a575b505050611e59565b8251611f598351835190611e17565b60658102908082046065149015171561146a576064900410928315611f88575b505050611eaa57388080611f42565b611f99929350519251905190611e17565b60638102908082046063149015171561146a576064900411388080611f79565b5050505050600090565b90815480825260208092019260005281600020916000905b828210611fe9575050505090565b835485529384019360019384019390910190611fdb565b600052602060028152604060002060038252604060002060ff6006830154161561210e5781604591612045600161203d60ff61210b9754166122b0565b930154612148565b946120fc61206060026120588554612148565b940154612148565b926040519788956902230ba30aa3cb8329d160b51b8588015261208c8151809287602a8b019101611176565b8601680161021b7bab73a1d160bd1b602a8201526120b38251809387603385019101611176565b01670161026b2b0b71d160c51b60338201526120d88251809386603b85019101611176565b0191690161029ba322232bb1d160b51b603b84015283519384918785019101611176565b0103602581018452018261100c565b90565b50507f4665617475726573206e6f742063616c63756c617465640000000000000000006040519161213e83610ff1565b6017835282015290565b806000917a184f03e93ff9f4daa797ed6e38ed64bf6a1f010000000000000000808210156122a2575b506d04ee2d6d415b85acef810000000080831015612293575b50662386f26fc1000080831015612284575b506305f5e10080831015612275575b5061271080831015612266575b506064821015612256575b600a8092101561224c575b600190816021818601956121e1876110a2565b966121ef604051988961100c565b8088526121fe601f19916110a2565b01366020890137860101905b612216575b5050505090565b600019019083906f181899199a1a9b1b9c1cb0b131b232b360811b8282061a8353049182156122475791908261220a565b61220f565b91600101916121ce565b91906064600291049101916121c3565b600491939204910191386121b8565b600891939204910191386121ab565b6010919392049101913861219c565b6020919392049101913861218a565b604093508104915038612171565b600581101561121c57801561239e5760018114612376576002811461234e576003811461232657600414612301576040516122ea81610ff1565b60078152662ab735b737bbb760c91b602082015290565b60405161230d81610ff1565b6009815268139d5b595c9a58d85b60ba1b602082015290565b5060405161233381610ff1565b600b81526a10d85d1959dbdc9a58d85b60aa1b602082015290565b5060405161235b81610ff1565b600b81526a54696d652053657269657360a81b602082015290565b5060405161238381610ff1565b600b81526a14dd185d1a5cdd1a58d85b60aa1b602082015290565b506040516123ab81610ff1565b600c81526b115e1c195c9a5b595b9d185b60a21b602082015290565b60009081526002602052604081209060036020526040812060ff6006840154161561254d57816001840154612545575b600282015482549190600183901c811161251f5750601e810180911161250b57600690925b0154801515918291826124d9575b5050156124b75750601981018091116124a357600290925b01546005811061247057506019820180921161245c575090565b634e487b7160e01b81526011600452602490fd5b600381106124885750600f820180921161245c575090565b60011115612494575090565b600a820180921161245c575090565b634e487b7160e01b82526011600452602482fd5b9290926124c7575b600290612442565b91600a81018091116124a357916124bf565b909150600a820291808304600a14901517156124f75710388061242a565b634e487b7160e01b85526011600452602485fd5b634e487b7160e01b84526011600452602484fd5b82909391931115612533575b60069061241c565b91600f810180911161250b579161252b565b5060146123f7565b50905090565b9081518110156113aa570160200190565b60f81c600a81101561258b5760300160ff811161146a5760f81b6001600160f81b03191690565b60570160ff811161146a5760f81b6001600160f81b0319169056fea26469706673582212206248ef1cfd459adefc38d0889684b57ceb731a1468e21d287fbcaf3e301a447364736f6c63430008140033",
  "linkReferences": {},
  "deployedLinkReferences": {}
}