{
  "_format": "hh-sol-artifact-1",
  "contractName": "InfluenceRanking",
  "sourceName": "contracts/InfluenceRanking.sol",
  "abi": [
    {
      "inputs": [
        {
          "internalType": "address",
          "name": "_userRegistry",
          "type": "address"
        },
        {
          "internalType": "address",
          "name": "_datasetManager",
          "type": "address"
        },
        {
          "internalType": "address payable",
          "name": "_researchNFT",
          "type": "address"
        },
        {
          "internalType": "address",
          "name": "_zkpVerifier",
          "type": "address"
        }
      ],
      "stateMutability": "nonpayable",
      "type": "constructor"
    },
    {
      "inputs": [
        {
          "internalType": "address",
          "name": "owner",
          "type": "address"
        }
      ],
      "name": "OwnableInvalidOwner",
      "type": "error"
    },
    {
      "inputs": [
        {
          "internalType": "address",
          "name": "account",
          "type": "address"
        }
      ],
      "name": "OwnableUnauthorizedAccount",
      "type": "error"
    },
    {
      "inputs": [],
      "name": "ReentrancyGuardReentrantCall",
      "type": "error"
    },
    {
      "anonymous": false,
      "inputs": [
        {
          "indexed": true,
          "internalType": "address",
          "name": "user",
          "type": "address"
        },
        {
          "indexed": false,
          "internalType": "uint256",
          "name": "oldInfluence",
          "type": "uint256"
        },
        {
          "indexed": false,
          "internalType": "uint256",
          "name": "newInfluence",
          "type": "uint256"
        },
        {
          "indexed": false,
          "internalType": "uint256",
          "name": "newRank",
          "type": "uint256"
        }
      ],
      "name": "InfluenceUpdated",
      "type": "event"
    },
    {
      "anonymous": false,
      "inputs": [
        {
          "indexed": true,
          "internalType": "address",
          "name": "previousOwner",
          "type": "address"
        },
        {
          "indexed": true,
          "internalType": "address",
          "name": "newOwner",
          "type": "address"
        }
      ],
      "name": "OwnershipTransferred",
      "type": "event"
    },
    {
      "anonymous": false,
      "inputs": [
        {
          "indexed": false,
          "internalType": "enum InfluenceRanking.RankingType",
          "name": "rankingType",
          "type": "uint8"
        },
        {
          "indexed": false,
          "internalType": "string",
          "name": "identifier",
          "type": "string"
        },
        {
          "indexed": false,
          "internalType": "uint256",
          "name": "timestamp",
          "type": "uint256"
        }
      ],
      "name": "RankingUpdated",
      "type": "event"
    },
    {
      "anonymous": false,
      "inputs": [
        {
          "indexed": false,
          "internalType": "uint256",
          "name": "publicationWeight",
          "type": "uint256"
        },
        {
          "indexed": false,
          "internalType": "uint256",
          "name": "reviewWeight",
          "type": "uint256"
        },
        {
          "indexed": false,
          "internalType": "uint256",
          "name": "dataWeight",
          "type": "uint256"
        },
        {
          "indexed": false,
          "internalType": "uint256",
          "name": "collaborationWeight",
          "type": "uint256"
        },
        {
          "indexed": false,
          "internalType": "uint256",
          "name": "governanceWeight",
          "type": "uint256"
        }
      ],
      "name": "WeightsUpdated",
      "type": "event"
    },
    {
      "inputs": [],
      "name": "DECAY_BASE",
      "outputs": [
        {
          "internalType": "uint256",
          "name": "",
          "type": "uint256"
        }
      ],
      "stateMutability": "view",
      "type": "function"
    },
    {
      "inputs": [
        {
          "internalType": "address[]",
          "name": "_users",
          "type": "address[]"
        }
      ],
      "name": "batchUpdateInfluence",
      "outputs": [],
      "stateMutability": "nonpayable",
      "type": "function"
    },
    {
      "inputs": [
        {
          "internalType": "address",
          "name": "_user",
          "type": "address"
        }
      ],
      "name": "calculateCollaborationScore",
      "outputs": [
        {
          "internalType": "uint256",
          "name": "",
          "type": "uint256"
        }
      ],
      "stateMutability": "view",
      "type": "function"
    },
    {
      "inputs": [
        {
          "internalType": "address",
          "name": "_user",
          "type": "address"
        }
      ],
      "name": "calculateDataContribution",
      "outputs": [
        {
          "internalType": "uint256",
          "name": "",
          "type": "uint256"
        }
      ],
      "stateMutability": "view",
      "type": "function"
    },
    {
      "inputs": [
        {
          "internalType": "address",
          "name": "_user",
          "type": "address"
        }
      ],
      "name": "calculateGovernanceScore",
      "outputs": [
        {
          "internalType": "uint256",
          "name": "",
          "type": "uint256"
        }
      ],
      "stateMutability": "view",
      "type": "function"
    },
    {
      "inputs": [
        {
          "internalType": "address",
          "name": "_user",
          "type": "address"
        }
      ],
      "name": "calculatePublicationScore",
      "outputs": [
        {
          "internalType": "uint256",
          "name": "",
          "type": "uint256"
        }
      ],
      "stateMutability": "view",
      "type": "function"
    },
    {
      "inputs": [
        {
          "internalType": "address",
          "name": "_user",
          "type": "address"
        }
      ],
      "name": "calculateReviewScore",
      "outputs": [
        {
          "internalType": "uint256",
          "name": "",
          "type": "uint256"
        }
      ],
      "stateMutability": "view",
      "type": "function"
    },
    {
      "inputs": [],
      "name": "collaborationWeight",
      "outputs": [
        {
          "internalType": "uint256",
          "name": "",
          "type": "uint256"
        }
      ],
      "stateMutability": "view",
      "type": "function"
    },
    {
      "inputs": [],
      "name": "dataWeight",
      "outputs": [
        {
          "internalType": "uint256",
          "name": "",
          "type": "uint256"
        }
      ],
      "stateMutability": "view",
      "type": "function"
    },
    {
      "inputs": [],
      "name": "datasetManager",
      "outputs": [
        {
          "internalType": "contract DatasetManager",
          "name": "",
          "type": "address"
        }
      ],
      "stateMutability": "view",
      "type": "function"
    },
    {
      "inputs": [
        {
          "internalType": "string",
          "name": "",
          "type": "string"
        }
      ],
      "name": "fieldRankings",
      "outputs": [
        {
          "internalType": "string",
          "name": "fieldName",
          "type": "string"
        }
      ],
      "stateMutability": "view",
      "type": "function"
    },
    {
      "inputs": [
        {
          "internalType": "string",
          "name": "_field",
          "type": "string"
        },
        {
          "internalType": "uint256",
          "name": "_limit",
          "type": "uint256"
        }
      ],
      "name": "getFieldRanking",
      "outputs": [
        {
          "internalType": "address[]",
          "name": "users",
          "type": "address[]"
        },
        {
          "internalType": "uint256[]",
          "name": "influences",
          "type": "uint256[]"
        }
      ],
      "stateMutability": "view",
      "type": "function"
    },
    {
      "inputs": [
        {
          "internalType": "uint256",
          "name": "_limit",
          "type": "uint256"
        }
      ],
      "name": "getGlobalTopRanking",
      "outputs": [
        {
          "internalType": "address[]",
          "name": "users",
          "type": "address[]"
        },
        {
          "internalType": "uint256[]",
          "name": "influences",
          "type": "uint256[]"
        },
        {
          "internalType": "uint256[]",
          "name": "ranks",
          "type": "uint256[]"
        }
      ],
      "stateMutability": "view",
      "type": "function"
    },
    {
      "inputs": [],
      "name": "getRankingStats",
      "outputs": [
        {
          "internalType": "uint256",
          "name": "totalRankedUsers",
          "type": "uint256"
        },
        {
          "internalType": "uint256",
          "name": "averageInfluence",
          "type": "uint256"
        },
        {
          "internalType": "uint256",
          "name": "topInfluence",
          "type": "uint256"
        },
        {
          "internalType": "uint256",
          "name": "lastUpdateTime",
          "type": "uint256"
        }
      ],
      "stateMutability": "view",
      "type": "function"
    },
    {
      "inputs": [
        {
          "internalType": "address",
          "name": "_user",
          "type": "address"
        }
      ],
      "name": "getUserInfluenceDetails",
      "outputs": [
        {
          "internalType": "uint256",
          "name": "publicationScore",
          "type": "uint256"
        },
        {
          "internalType": "uint256",
          "name": "reviewScore",
          "type": "uint256"
        },
        {
          "internalType": "uint256",
          "name": "dataContribution",
          "type": "uint256"
        },
        {
          "internalType": "uint256",
          "name": "collaborationScore",
          "type": "uint256"
        },
        {
          "internalType": "uint256",
          "name": "governanceScore",
          "type": "uint256"
        },
        {
          "internalType": "uint256",
          "name": "totalInfluence",
          "type": "uint256"
        },
        {
          "internalType": "uint256",
          "name": "rank",
          "type": "uint256"
        },
        {
          "internalType": "uint256",
          "name": "lastUpdateTime",
          "type": "uint256"
        }
      ],
      "stateMutability": "view",
      "type": "function"
    },
    {
      "inputs": [
        {
          "internalType": "address",
          "name": "",
          "type": "address"
        }
      ],
      "name": "globalRankPosition",
      "outputs": [
        {
          "internalType": "uint256",
          "name": "",
          "type": "uint256"
        }
      ],
      "stateMutability": "view",
      "type": "function"
    },
    {
      "inputs": [
        {
          "internalType": "uint256",
          "name": "",
          "type": "uint256"
        }
      ],
      "name": "globalRanking",
      "outputs": [
        {
          "internalType": "address",
          "name": "",
          "type": "address"
        }
      ],
      "stateMutability": "view",
      "type": "function"
    },
    {
      "inputs": [],
      "name": "governanceWeight",
      "outputs": [
        {
          "internalType": "uint256",
          "name": "",
          "type": "uint256"
        }
      ],
      "stateMutability": "view",
      "type": "function"
    },
    {
      "inputs": [
        {
          "internalType": "enum InfluenceRanking.TimePeriod",
          "name": "",
          "type": "uint8"
        },
        {
          "internalType": "address",
          "name": "",
          "type": "address"
        }
      ],
      "name": "historicalInfluence",
      "outputs": [
        {
          "internalType": "uint256",
          "name": "publicationScore",
          "type": "uint256"
        },
        {
          "internalType": "uint256",
          "name": "reviewScore",
          "type": "uint256"
        },
        {
          "internalType": "uint256",
          "name": "dataContribution",
          "type": "uint256"
        },
        {
          "internalType": "uint256",
          "name": "collaborationScore",
          "type": "uint256"
        },
        {
          "internalType": "uint256",
          "name": "governanceScore",
          "type": "uint256"
        },
        {
          "internalType": "uint256",
          "name": "totalInfluence",
          "type": "uint256"
        },
        {
          "internalType": "uint256",
          "name": "lastUpdateTime",
          "type": "uint256"
        },
        {
          "internalType": "uint256",
          "name": "rank",
          "type": "uint256"
        }
      ],
      "stateMutability": "view",
      "type": "function"
    },
    {
      "inputs": [
        {
          "internalType": "string",
          "name": "",
          "type": "string"
        }
      ],
      "name": "institutionRankings",
      "outputs": [
        {
          "internalType": "string",
          "name": "name",
          "type": "string"
        },
        {
          "internalType": "uint256",
          "name": "totalInfluence",
          "type": "uint256"
        },
        {
          "internalType": "uint256",
          "name": "memberCount",
          "type": "uint256"
        },
        {
          "internalType": "uint256",
          "name": "avgInfluence",
          "type": "uint256"
        },
        {
          "internalType": "uint256",
          "name": "rank",
          "type": "uint256"
        }
      ],
      "stateMutability": "view",
      "type": "function"
    },
    {
      "inputs": [],
      "name": "lastGlobalUpdate",
      "outputs": [
        {
          "internalType": "uint256",
          "name": "",
          "type": "uint256"
        }
      ],
      "stateMutability": "view",
      "type": "function"
    },
    {
      "inputs": [],
      "name": "maxRankingSize",
      "outputs": [
        {
          "internalType": "uint256",
          "name": "",
          "type": "uint256"
        }
      ],
      "stateMutability": "view",
      "type": "function"
    },
    {
      "inputs": [],
      "name": "owner",
      "outputs": [
        {
          "internalType": "address",
          "name": "",
          "type": "address"
        }
      ],
      "stateMutability": "view",
      "type": "function"
    },
    {
      "inputs": [],
      "name": "publicationWeight",
      "outputs": [
        {
          "internalType": "uint256",
          "name": "",
          "type": "uint256"
        }
      ],
      "stateMutability": "view",
      "type": "function"
    },
    {
      "inputs": [],
      "name": "rankingUpdateInterval",
      "outputs": [
        {
          "internalType": "uint256",
          "name": "",
          "type": "uint256"
        }
      ],
      "stateMutability": "view",
      "type": "function"
    },
    {
      "inputs": [],
      "name": "renounceOwnership",
      "outputs": [],
      "stateMutability": "nonpayable",
      "type": "function"
    },
    {
      "inputs": [],
      "name": "researchNFT",
      "outputs": [
        {
          "internalType": "contract ResearchNFT",
          "name": "",
          "type": "address"
        }
      ],
      "stateMutability": "view",
      "type": "function"
    },
    {
      "inputs": [],
      "name": "reviewWeight",
      "outputs": [
        {
          "internalType": "uint256",
          "name": "",
          "type": "uint256"
        }
      ],
      "stateMutability": "view",
      "type": "function"
    },
    {
      "inputs": [
        {
          "internalType": "uint256",
          "name": "_publicationWeight",
          "type": "uint256"
        },
        {
          "internalType": "uint256",
          "name": "_reviewWeight",
          "type": "uint256"
        },
        {
          "internalType": "uint256",
          "name": "_dataWeight",
          "type": "uint256"
        },
        {
          "internalType": "uint256",
          "name": "_collaborationWeight",
          "type": "uint256"
        },
        {
          "internalType": "uint256",
          "name": "_governanceWeight",
          "type": "uint256"
        }
      ],
      "name": "setInfluenceWeights",
      "outputs": [],
      "stateMutability": "nonpayable",
      "type": "function"
    },
    {
      "inputs": [
        {
          "internalType": "uint256",
          "name": "_size",
          "type": "uint256"
        }
      ],
      "name": "setMaxRankingSize",
      "outputs": [],
      "stateMutability": "nonpayable",
      "type": "function"
    },
    {
      "inputs": [
        {
          "internalType": "uint256",
          "name": "_interval",
          "type": "uint256"
        }
      ],
      "name": "setRankingUpdateInterval",
      "outputs": [],
      "stateMutability": "nonpayable",
      "type": "function"
    },
    {
      "inputs": [],
      "name": "timeDecayRate",
      "outputs": [
        {
          "internalType": "uint256",
          "name": "",
          "type": "uint256"
        }
      ],
      "stateMutability": "view",
      "type": "function"
    },
    {
      "inputs": [
        {
          "internalType": "address",
          "name": "newOwner",
          "type": "address"
        }
      ],
      "name": "transferOwnership",
      "outputs": [],
      "stateMutability": "nonpayable",
      "type": "function"
    },
    {
      "inputs": [],
      "name": "updateGlobalRanking",
      "outputs": [],
      "stateMutability": "nonpayable",
      "type": "function"
    },
    {
      "inputs": [
        {
          "internalType": "address",
          "name": "_user",
          "type": "address"
        }
      ],
      "name": "updateUserInfluence",
      "outputs": [],
      "stateMutability": "nonpayable",
      "type": "function"
    },
    {
      "inputs": [
        {
          "internalType": "address",
          "name": "",
          "type": "address"
        }
      ],
      "name": "userInfluence",
      "outputs": [
        {
          "internalType": "uint256",
          "name": "publicationScore",
          "type": "uint256"
        },
        {
          "internalType": "uint256",
          "name": "reviewScore",
          "type": "uint256"
        },
        {
          "internalType": "uint256",
          "name": "dataContribution",
          "type": "uint256"
        },
        {
          "internalType": "uint256",
          "name": "collaborationScore",
          "type": "uint256"
        },
        {
          "internalType": "uint256",
          "name": "governanceScore",
          "type": "uint256"
        },
        {
          "internalType": "uint256",
          "name": "totalInfluence",
          "type": "uint256"
        },
        {
          "internalType": "uint256",
          "name": "lastUpdateTime",
          "type": "uint256"
        },
        {
          "internalType": "uint256",
          "name": "rank",
          "type": "uint256"
        }
      ],
      "stateMutability": "view",
      "type": "function"
    },
    {
      "inputs": [],
      "name": "userRegistry",
      "outputs": [
        {
          "internalType": "contract DeSciRegistry",
          "name": "",
          "type": "address"
        }
      ],
      "stateMutability": "view",
      "type": "function"
    },
    {
      "inputs": [],
      "name": "zkpVerifier",
      "outputs": [
        {
          "internalType": "contract ZKPVerifier",
          "name": "",
          "type": "address"
        }
      ],
      "stateMutability": "view",
      "type": "function"
    }
  ],
  "bytecode": "0x610100346200019a57601f620024f138819003918201601f19168301916001600160401b038311848410176200019f578084926080946040528339810103126200019a576200004e81620001b5565b906200005d60208201620001b5565b60408201516001600160a01b0392838216918290036200019a576060620000859101620001b5565b9133156200018157839081600054963360018060a01b031989161760005560405197823391167f8be0079c531659141344cd1fd0a4f28419497f9722a3daafe3b4186f6b6457e0600080a360018055610fa06008556107d080600955600a556103e880600b5580600c5562015180600d55600f556032601055166080521660a05260c0521660e05242600e556123269081620001cb8239608051818181610a9501528181610e8601528181611e3e01526120f2015260a05181818161097f0152611940015260c0518181816109c3015281816113840152818161154c015281816115f3015281816116ad0152611d57015260e0518161093b0152f35b604051631e4fbdf760e01b815260006004820152602490fd5b600080fd5b634e487b7160e01b600052604160045260246000fd5b51906001600160a01b03821682036200019a5756fe60406080815260048036101561001457600080fd5b600091823560e01c806302f60a8614610e4b5780631151c4a814610e2c5780631522b4b414610db85780632d912b6214610d92578063303325c914610d7357806338fe600214610cae5780634294d4c714610c8f578063442a8ce814610b8f5780634bdabe0414610b70578063514dc03d14610b0957806351e054f814610ae35780635a6fcd4014610ac45780635c7460d614610a805780635cc7a05214610a5b5780635d3659b1146109f257806360449db7146109ae57806361d254231461096a5780636aebbd66146109265780636b476cfc146108bf5780636c897d9514610899578063715018a61461083f578063742bc4bf146108205780638160b1d4146107fa5780638da5cb5b146107d25780638e40996a14610749578063941f3d7f146106a857806398cf360714610646578063a53a3da714610627578063bab730741461053e578063c20cb138146104fd578063c6883fbb146104de578063ce897af9146104bf578063d4ef6800146104a2578063d53cb5ae14610475578063edfef42c1461043d578063f05c182d14610366578063f2fde38b146102df5763f8c9e046146101c257600080fd5b346102db57602092836003193601126102d85782356006548082116102d0575b506101ec8161228d565b936101f68261228d565b916102008161228d565b93805b8281106102495761022b8861024589896102388e8b8451978897606089526060890190611177565b91878303908801526111b4565b91848303908501526111b4565b0390f35b61025281611208565b90546001600160a01b039160039190821b1c8216610270848c611336565b5261027a83611208565b9054911b1c16825260028952600587832001546102978287611336565b52600181018082116102bd57906102b8916102b28289611336565b52611311565b610203565b634e487b7160e01b835260118552602483fd5b9050386101e2565b80fd5b8280fd5b5090346102db5760203660031901126102db576102fa61112a565b9061030361126c565b6001600160a01b0391821692831561035057505082546001600160a01b0319811683178455167f8be0079c531659141344cd1fd0a4f28419497f9722a3daafe3b4186f6b6457e08380a380f35b51631e4fbdf760e01b8152908101849052602490fd5b5091903461043957602090816003193601126102db578035906001600160401b0382116104355736602383011215610435578101356103b06103a782611255565b95519586610f73565b80855260248386019160051b8301019136831161043157602401905b82821061040e578585805b825181101561040a57610405906104006001600160a01b036103f98387611336565b51166120c0565b611311565b6103d7565b5080f35b81356001600160a01b038116810361042d5781529083019083016103cc565b8580fd5b8480fd5b8380fd5b5080fd5b8382346104395760203660031901126104395760209181906001600160a01b0361046561112a565b1681526007845220549051908152f35b8382346104395760203660031901126104395760209061049b61049661112a565b611934565b9051908152f35b838234610439578160031936011261043957602090516127108152f35b838234610439578160031936011261043957602090600c549051908152f35b8382346104395781600319360112610439576020906010549051908152f35b5090346102db5760203660031901126102db5735916006548310156102d85750610528602092611208565b905491519160018060a01b039160031b1c168152f35b509190346104395760a0366003190112610439578035906024359060443582606435926127106105868761058187610581886105816084359c8d9661058161126c565b61134a565b036105e457509160a093918786947f7a67f6b72b463e6dde3e06b84d460f1227df198ea0e692d44697112f1fc8cb54976008558060095582600a5583600b5584600c558151958652602086015284015260608301526080820152a180f35b606490602089519162461bcd60e51b8352820152601860248201527f57656967687473206d7573742073756d20746f203130302500000000000000006044820152fd5b838234610439578160031936011261043957602090600d549051908152f35b5090346102db5760203660031901126102db5780359161066461126c565b60648310610674575050600f5580f35b906020606492519162461bcd60e51b8352820152600e60248201526d14da5e99481d1bdbc81cdb585b1b60921b6044820152fd5b5082346102d85760203660031901126102d8578235906001600160401b0382116102d857506020610732936106e36106f69336908301610fc5565b9082855194838680955193849201611011565b82019081520301902061070881611034565b9160018201549160028101546005600383015492015492805196879660a0885260a0880190611105565b946020870152850152606084015260808301520390f35b5082346102d857816003193601126102d85782356005811015610439576024356001600160a01b03811691908290036102db579183918361078c610245956111e8565b8252600560205282822090825260205220918254926001810154946002820154906003830154908301549060058401549260076006860154950154955198899889611140565b838234610439578160031936011261043957905490516001600160a01b039091168152602090f35b8382346104395760203660031901126104395760209061049b61081b61112a565b611357565b8382346104395781600319360112610439576020906008549051908152f35b83346102d857806003193601126102d85761085861126c565b80546001600160a01b03198116825581906001600160a01b03167f8be0079c531659141344cd1fd0a4f28419497f9722a3daafe3b4186f6b6457e08280a380f35b8382346104395760203660031901126104395760209061049b6108ba61112a565b611e1c565b5090346102db5760203660031901126102db578035916108dd61126c565b610e1083106108ee575050600d5580f35b906020606492519162461bcd60e51b83528201526012602482015271125b9d195c9d985b081d1bdbc81cda1bdc9d60721b6044820152fd5b838234610439578160031936011261043957517f00000000000000000000000000000000000000000000000000000000000000006001600160a01b03168152602090f35b838234610439578160031936011261043957517f00000000000000000000000000000000000000000000000000000000000000006001600160a01b03168152602090f35b838234610439578160031936011261043957517f00000000000000000000000000000000000000000000000000000000000000006001600160a01b03168152602090f35b5090346102db57816003193601126102db5780356001600160401b03811161043557610a2091369101610fc5565b5060243590610245610a3a610a348461228d565b9361228d565b610a4d8351948486958652850190611177565b9083820360208501526111b4565b83346102d85760203660031901126102d857610a7d610a7861112a565b6120c0565b80f35b838234610439578160031936011261043957517f00000000000000000000000000000000000000000000000000000000000000006001600160a01b03168152602090f35b838234610439578160031936011261043957602090600e549051908152f35b8382346104395760203660031901126104395760209061049b610b0461112a565b611530565b5082346102d85760203660031901126102d8576102459082906001600160a01b03610b3261112a565b168152600260205220918254926001810154946002820154906003830154908301549060058401549260076006860154950154955198899889611140565b838234610439578160031936011261043957602090600f549051908152f35b5090346102db57826003193601126102db578291839060065493600e549385158015610bd0575b505060809550815194855260208501528301526060820152f35b9150919250610c7c57507ff652222313e28459528d920b65115c16c04f3efc82aaedc97be59f3f377c0d3f546001600160a01b039081168552600260208181528387206005908101549493889390928491905b898610610c3c5750505050505083608095043880610bb6565b909192939499610c6c610c729187610c538e611208565b90549060031b1c1686528484528689872001549061134a565b9a611311565b9493929190610c23565b634e487b7160e01b855260329052602484fd5b838234610439578160031936011261043957602090600a549051908152f35b5082346102d85760203660031901126102d8576001600160a01b03610cd161112a565b1681526002602052818120908251906101008201908282106001600160401b03831117610d605750610245929160e091855282549485825260018401549687602084015260028501548083850152600386015491826060860152860154928360808601526005870154948560a082015260076006890154988960c0840152015496879101525198899889611140565b634e487b7160e01b815260418652602490fd5b838234610439578160031936011261043957602090600b549051908152f35b8382346104395760203660031901126104395760209061049b610db361112a565b611d2a565b5082346102d85760203660031901126102d8578235906001600160401b0382116102d857506002610e096020610df761024596610e1995369101610fc5565b81865193828580945193849201611011565b8101600381520301902001611034565b9051918291602083526020830190611105565b8382346104395781600319360112610439576020906009549051908152f35b50829034610439578160031936011261043957610e6d600e54600d549061134a565b4210610f3a57805163136d888360e01b815260c08185817f00000000000000000000000000000000000000000000000000000000000000006001600160a01b03165afa918215610f3157508291610efe575b50610ec98161228d565b50610ed38161228d565b50815b818110610ef057634e487b7160e01b835260118452602483fd5b610ef990611311565b610ed6565b610f1f915060c03d8111610f2a575b610f178183610f73565b810190611489565b505050505083610ebf565b503d610f0d565b513d84823e3d90fd5b5162461bcd60e51b81526020818401526014602482015273546f6f206672657175656e74207570646174657360601b6044820152606490fd5b90601f801991011681019081106001600160401b03821117610f9457604052565b634e487b7160e01b600052604160045260246000fd5b6001600160401b038111610f9457601f01601f191660200190565b81601f8201121561100c57803590610fdc82610faa565b92610fea6040519485610f73565b8284526020838301011161100c57816000926020809301838601378301015290565b600080fd5b60005b8381106110245750506000910152565b8181015183820152602001611014565b90604051906000835490600182811c908084169687156110fb575b60209485841089146110e757879884899798995290816000146110c55750600114611086575b50505061108492500383610f73565b565b600090815285812095935091905b8183106110ad5750506110849350820101388080611075565b85548884018501529485019487945091830191611094565b9250505061108494925060ff191682840152151560051b820101388080611075565b634e487b7160e01b85526022600452602485fd5b91607f169161104f565b9060209161111e81518092818552858086019101611011565b601f01601f1916010190565b600435906001600160a01b038216820361100c57565b94919260e0969399989794919961010087019a8752602087015260408601526060850152608084015260a083015260c08201520152565b90815180825260208080930193019160005b828110611197575050505090565b83516001600160a01b031685529381019392810192600101611189565b90815180825260208080930193019160005b8281106111d4575050505090565b8351855293810193928101926001016111c6565b600511156111f257565b634e487b7160e01b600052602160045260246000fd5b60065481101561123f5760066000527ff652222313e28459528d920b65115c16c04f3efc82aaedc97be59f3f377c0d3f0190600090565b634e487b7160e01b600052603260045260246000fd5b6001600160401b038111610f945760051b60200190565b6000546001600160a01b0316330361128057565b60405163118cdaa760e01b8152336004820152602490fd5b602090818184031261100c578051906001600160401b03821161100c57019180601f8401121561100c5782516112cd81611255565b936112db6040519586610f73565b818552838086019260051b82010192831161100c578301905b828210611302575050505090565b815181529083019083016112f4565b60001981146113205760010190565b634e487b7160e01b600052601160045260246000fd5b805182101561123f5760209160051b010190565b9190820180921161132057565b60408051630d1a9ad960e31b81526001600160a01b039283166004808301919091529093926024916000917f00000000000000000000000000000000000000000000000000000000000000001682878581845afa96871561147f57839761145b575b50829683975b8151891015611451576113d28983611336565b518751906322f455b560e21b82528582015260209081818981885afa918215611447578792611417575b505061140b906114119261134a565b98611311565b976113bf565b90809250813d8311611440575b61142e8183610f73565b8101031261042d57518161140b6113fc565b503d611424565b89513d89823e3d90fd5b9750505050505050565b6114789197503d8085833e6114708183610f73565b810190611298565b95386113b9565b85513d85823e3d90fd5b91908260c091031261100c5781519160208101519160408201519160608101519160a0608083015192015190565b51906001600160a01b038216820361100c57565b81601f8201121561100c5780516114e181610faa565b926114ef6040519485610f73565b8184526020828401011161100c5761150d9160208085019101611011565b90565b5190811515820361100c57565b8181029291811591840414171561132057565b60405163136d888360e01b8152600491600091829160c08286817f00000000000000000000000000000000000000000000000000000000000000006001600160a01b03165afa918215611929578492611903575b50600190815b838111156115d85750505050806115a2575b50905090565b60640191826064116115c357506064916115bb9161151d565b04803861159c565b601190634e487b7160e01b6000525260246000fd5b604051637520b04560e11b81528781018290526000816024817f00000000000000000000000000000000000000000000000000000000000000006001600160a01b03165afa60009181611770575b5061163a575061163590611311565b61158a565b6000845b61164e575b505061163590611311565b815181101561176b576001600160a01b036116698284611336565b5151166001600160a01b0385161461168c575b6116868591611311565b9061163e565b6040516322f455b560e21b81528981018490529697909690602080836024817f00000000000000000000000000000000000000000000000000000000000000006001600160a01b03165afa90811561175f5787938a91600093611729575b50506116869260646117136117209460ff604061170a61171a978c611336565b5101511661151d565b049061134a565b99611311565b9791505061167c565b819495508092503d8311611758575b6117428183610f73565b810103126102d8575051859190888260646116ea565b503d611738565b6040513d6000823e3d90fd5b611643565b90913d8082843e6117818184610f73565b6020838281010312610439578251926001600160401b0384116102db57818101601f8583010112156102db5783810151916117bb83611255565b946117c96040519687610f73565b838652602086019482840160208660051b8487010101116102d857602082850101955b60208660051b8487010101871061180b57505050505050509038611626565b86516001600160401b0381116102db5760c0868501820186880103601f1901126102db57604051908160c08101106001600160401b0360c0840111176118ed5760c08201604052611862602082878a0101016114b7565b82528685018101604081015160208401526060015160ff811681036104315760408301526080818689010101516001600160401b03811161043157918560c0836118bc8b6020809997988199878f850194010101016114cb565b60608501526118d38b8260a0958692010101611510565b6080850152888b01010151908201528152019601956117ec565b50508f826041602492634e487b7160e01b835252fd5b61191d91925060c03d60c011610f2a57610f178183610f73565b50505050509038611584565b6040513d86823e3d90fd5b9060018060a01b0391827f000000000000000000000000000000000000000000000000000000000000000016604080519463cc27c02b60e01b8652600493168386015260009060249082878381875afa968715611d20578397611d04575b50829683975b8151891015611451576119ab8983611336565b5183519063ee00422160e01b825288820152858186818a5afa908115611cfa578691611ac2575b5060c0810151906119e2826111e8565b6119eb826111e8565b601491828102928184041490151715611ab0576101c0810151600590818102918183041490151715611a9e576101e082015191600a9081840293808504831490151715611a8c576101000151611a41911c6122bf565b928360011b9380850460021490151715611a7a5792610581611a749593610581611a6e9461140b9761134a565b9061134a565b97611998565b634e487b7160e01b895260118b528789fd5b634e487b7160e01b8a5260118c52888afd5b634e487b7160e01b885260118a528688fd5b634e487b7160e01b8752601189528587fd5b90503d8087833e611ad38183610f73565b81016020918281830312611cf65780516001600160401b0391828211611ca9570191610240938484830312611ca957875194850185811084821117611ce457885283518552611b238185016114b7565b8186015287840151838111611cad5782611b3e9186016114cb565b88860152606080850151848111611cb15783611b5b9187016114cb565b90860152608080850151848111611cb15785019083601f83011215611cb157815192611b8684611255565b92611b938c519485610f73565b84845281840182600596871b83010191878311611ce057838101915b838310611cb557505050505086015260a080850151906007821015611cb15786015260c08085015191821015611cad5785015260e080840151908c821015611cad57850152610100808401519085015261012080840151838111611cad5782611c199186016114cb565b9085015261014080840151838111611cad5782611c379186016114cb565b908501526101609182840151908111611ca95790611c569184016114cb565b9083015261018080820151908301526101a080820151908301526101c080820151908301526101e080820151908301526102008082015190830152611c9f610220809201611510565b90820152386119d2565b8980fd5b8a80fd5b8b80fd5b82518a8111611cda578591611ccf8b8480948701016114cb565b815201920191611baf565b50508f80fd5b8f80fd5b634e487b7160e01b8b5260418d52898bfd5b8780fd5b84513d88823e3d90fd5b611d199197503d8085833e6114708183610f73565b9538611992565b81513d85823e3d90fd5b60405191828092630d1a9ad960e31b825260018060a01b03806004921682840152600092839160249788917f0000000000000000000000000000000000000000000000000000000000000000165afa938415611e11578294611df5575b50819282935b8551851015611dc357600a8101809111611db157611dab9094611311565b93611d8d565b634e487b7160e01b8452601183528684fd5b9450949250606e840293808504606e1490151715611de5575050506064900490565b634e487b7160e01b825260119052fd5b611e0a9194503d8084833e6114708183610f73565b9238611d87565b6040513d84823e3d90fd5b6040805163c3c5a54760e01b81526001600160a01b03928316600482018190527f00000000000000000000000000000000000000000000000000000000000000009093169392602092918381602481895afa9081156120b557600091612080575b50611e8c575b50603293505050565b6000906024835180978193634c3f70ab60e11b835260048301525afa93841561207557600094611f0e575b5050509060c00160028151611ecb816111e8565b611ed4816111e8565b14908115611ef0575b50611eeb5780388080611e83565b606490565b6004915051611efe816111e8565b611f07816111e8565b1438611edd565b3d8086833e611f1d8183610f73565b8101838282031261042d5781516001600160401b0392838211611cf6570192610180948585840312611cf657815195860186811085821117612061578252611f64856114b7565b86528085015184811161205d5783611f7d9187016114cb565b9086015280840151838111611cf65782611f989186016114cb565b9085015260608301518281116120595781611fb49185016114cb565b606085015260808301518281116120595781611fd19185016114cb565b608085015260a083015191821161042d57611fed9183016114cb565b60a083015260c081015160058110156104315760c083015260e081015160048110156104315760c093945060e083015261010080820151908301526101208082015190830152610140808201519083015261204c610160809201611510565b9082015291903880611eb7565b8680fd5b8880fd5b634e487b7160e01b89526041600452602489fd5b50513d6000823e3d90fd5b908482813d83116120ae575b6120968183610f73565b810103126102d857506120a890611510565b38611e7d565b503d61208c565b83513d6000823e3d90fd5b6040805163c3c5a54760e01b81526001600160a01b0380841660048301819052939260209290918390829060249082907f0000000000000000000000000000000000000000000000000000000000000000165afa9081156122825760009161224d575b501561221457916060917f30e2ad17d62b2c27acb25c73d860d7c7d2de02662cfc89eb3de67817815a1b909385600052600282528060002092600761216782611357565b9461217183611530565b61217a84611934565b90876127106121da6121ce6121c26121b66121aa6121a061219a8d611d2a565b9c611e1c565b966008549061151d565b611a6e6009548961151d565b611a6e600a548961151d565b611a6e600b548b61151d565b611a6e600c548561151d565b04958693600586019384549b87556001870155600286015560038501556004840155554260068201550154928251948552840152820152a2565b60649250519062461bcd60e51b825260048201526013602482015272155cd95c881b9bdd081c9959da5cdd195c9959606a1b6044820152fd5b908382813d831161227b575b6122638183610f73565b810103126102d8575061227590611510565b38612123565b503d612259565b82513d6000823e3d90fd5b9061229782611255565b6122a46040519182610f73565b82815280926122b5601f1991611255565b0190602036910137565b80156122ea576000905b600190818111156122e5576122df911c91611311565b906122c9565b505090565b5060009056fea26469706673582212204f6122b584ed158d12ce63a85f4c5ed250b598e2a60942e6d9fb986bb088660164736f6c63430008140033",
  "linkReferences": {},
  "deployedLinkReferences": {}
}