{
  "_format": "hh-sol-artifact-1",
  "contractName": "ResearchDataVerifier",
  "sourceName": "contracts/ResearchDataVerifier.sol",
  "abi": [
    {
      "inputs": [],
      "stateMutability": "nonpayable",
      "type": "constructor"
    },
    {
      "inputs": [
        {
          "internalType": "address",
          "name": "owner",
          "type": "address"
        }
      ],
      "name": "OwnableInvalidOwner",
      "type": "error"
    },
    {
      "inputs": [
        {
          "internalType": "address",
          "name": "account",
          "type": "address"
        }
      ],
      "name": "OwnableUnauthorizedAccount",
      "type": "error"
    },
    {
      "inputs": [],
      "name": "ReentrancyGuardReentrantCall",
      "type": "error"
    },
    {
      "anonymous": false,
      "inputs": [
        {
          "indexed": false,
          "internalType": "string",
          "name": "constraintType",
          "type": "string"
        },
        {
          "indexed": false,
          "internalType": "uint256",
          "name": "threshold",
          "type": "uint256"
        },
        {
          "indexed": false,
          "internalType": "string",
          "name": "description",
          "type": "string"
        }
      ],
      "name": "ConstraintAdded",
      "type": "event"
    },
    {
      "anonymous": false,
      "inputs": [
        {
          "indexed": true,
          "internalType": "bytes32",
          "name": "dataId",
          "type": "bytes32"
        },
        {
          "indexed": true,
          "internalType": "address",
          "name": "submitter",
          "type": "address"
        },
        {
          "indexed": false,
          "internalType": "string",
          "name": "dataType",
          "type": "string"
        },
        {
          "indexed": false,
          "internalType": "string",
          "name": "dataHash",
          "type": "string"
        }
      ],
      "name": "DataSubmitted",
      "type": "event"
    },
    {
      "anonymous": false,
      "inputs": [
        {
          "indexed": true,
          "internalType": "bytes32",
          "name": "dataId",
          "type": "bytes32"
        },
        {
          "indexed": false,
          "internalType": "bool",
          "name": "isValid",
          "type": "bool"
        },
        {
          "indexed": false,
          "internalType": "uint256",
          "name": "score",
          "type": "uint256"
        },
        {
          "indexed": false,
          "internalType": "string",
          "name": "status",
          "type": "string"
        }
      ],
      "name": "DataVerified",
      "type": "event"
    },
    {
      "anonymous": false,
      "inputs": [
        {
          "indexed": true,
          "internalType": "bytes32",
          "name": "dataId",
          "type": "bytes32"
        },
        {
          "indexed": false,
          "internalType": "bytes32",
          "name": "featureHash",
          "type": "bytes32"
        },
        {
          "indexed": false,
          "internalType": "uint256",
          "name": "mean",
          "type": "uint256"
        },
        {
          "indexed": false,
          "internalType": "uint256",
          "name": "standardDeviation",
          "type": "uint256"
        }
      ],
      "name": "FeaturesExtracted",
      "type": "event"
    },
    {
      "anonymous": false,
      "inputs": [
        {
          "indexed": true,
          "internalType": "address",
          "name": "previousOwner",
          "type": "address"
        },
        {
          "indexed": true,
          "internalType": "address",
          "name": "newOwner",
          "type": "address"
        }
      ],
      "name": "OwnershipTransferred",
      "type": "event"
    },
    {
      "inputs": [
        {
          "internalType": "bytes32",
          "name": "_dataId",
          "type": "bytes32"
        },
        {
          "internalType": "string",
          "name": "_constraintType",
          "type": "string"
        },
        {
          "internalType": "uint256",
          "name": "_threshold",
          "type": "uint256"
        },
        {
          "internalType": "string",
          "name": "_description",
          "type": "string"
        }
      ],
      "name": "addDataConstraint",
      "outputs": [],
      "stateMutability": "nonpayable",
      "type": "function"
    },
    {
      "inputs": [
        {
          "internalType": "string",
          "name": "_constraintType",
          "type": "string"
        },
        {
          "internalType": "uint256",
          "name": "_threshold",
          "type": "uint256"
        },
        {
          "internalType": "string",
          "name": "_description",
          "type": "string"
        }
      ],
      "name": "addGlobalConstraint",
      "outputs": [],
      "stateMutability": "nonpayable",
      "type": "function"
    },
    {
      "inputs": [
        {
          "internalType": "uint256",
          "name": "",
          "type": "uint256"
        }
      ],
      "name": "allDataIds",
      "outputs": [
        {
          "internalType": "bytes32",
          "name": "",
          "type": "bytes32"
        }
      ],
      "stateMutability": "view",
      "type": "function"
    },
    {
      "inputs": [
        {
          "internalType": "uint256",
          "name": "",
          "type": "uint256"
        }
      ],
      "name": "constraintTypes",
      "outputs": [
        {
          "internalType": "string",
          "name": "",
          "type": "string"
        }
      ],
      "stateMutability": "view",
      "type": "function"
    },
    {
      "inputs": [
        {
          "internalType": "bytes32",
          "name": "",
          "type": "bytes32"
        },
        {
          "internalType": "uint256",
          "name": "",
          "type": "uint256"
        }
      ],
      "name": "dataConstraints",
      "outputs": [
        {
          "internalType": "string",
          "name": "constraintType",
          "type": "string"
        },
        {
          "internalType": "uint256",
          "name": "threshold",
          "type": "uint256"
        },
        {
          "internalType": "bool",
          "name": "isActive",
          "type": "bool"
        },
        {
          "internalType": "string",
          "name": "description",
          "type": "string"
        }
      ],
      "stateMutability": "view",
      "type": "function"
    },
    {
      "inputs": [
        {
          "internalType": "bytes32",
          "name": "",
          "type": "bytes32"
        }
      ],
      "name": "dataFeatures",
      "outputs": [
        {
          "internalType": "uint256",
          "name": "mean",
          "type": "uint256"
        },
        {
          "internalType": "uint256",
          "name": "standardDeviation",
          "type": "uint256"
        },
        {
          "internalType": "uint256",
          "name": "minValue",
          "type": "uint256"
        },
        {
          "internalType": "uint256",
          "name": "maxValue",
          "type": "uint256"
        },
        {
          "internalType": "uint256",
          "name": "dataCount",
          "type": "uint256"
        },
        {
          "internalType": "bytes32",
          "name": "featureHash",
          "type": "bytes32"
        }
      ],
      "stateMutability": "view",
      "type": "function"
    },
    {
      "inputs": [
        {
          "internalType": "bytes32",
          "name": "_dataId",
          "type": "bytes32"
        },
        {
          "internalType": "uint256",
          "name": "_mean",
          "type": "uint256"
        },
        {
          "internalType": "uint256",
          "name": "_stdDev",
          "type": "uint256"
        },
        {
          "internalType": "uint256",
          "name": "_min",
          "type": "uint256"
        },
        {
          "internalType": "uint256",
          "name": "_max",
          "type": "uint256"
        },
        {
          "internalType": "uint256",
          "name": "_count",
          "type": "uint256"
        }
      ],
      "name": "extractDataFeatures",
      "outputs": [],
      "stateMutability": "nonpayable",
      "type": "function"
    },
    {
      "inputs": [],
      "name": "getAllDataIds",
      "outputs": [
        {
          "internalType": "bytes32[]",
          "name": "",
          "type": "bytes32[]"
        }
      ],
      "stateMutability": "view",
      "type": "function"
    },
    {
      "inputs": [],
      "name": "getConstraintTypes",
      "outputs": [
        {
          "internalType": "string[]",
          "name": "",
          "type": "string[]"
        }
      ],
      "stateMutability": "view",
      "type": "function"
    },
    {
      "inputs": [
        {
          "internalType": "bytes32",
          "name": "_dataId",
          "type": "bytes32"
        }
      ],
      "name": "getDataConstraints",
      "outputs": [
        {
          "components": [
            {
              "internalType": "string",
              "name": "constraintType",
              "type": "string"
            },
            {
              "internalType": "uint256",
              "name": "threshold",
              "type": "uint256"
            },
            {
              "internalType": "bool",
              "name": "isActive",
              "type": "bool"
            },
            {
              "internalType": "string",
              "name": "description",
              "type": "string"
            }
          ],
          "internalType": "struct ResearchDataVerifier.Constraint[]",
          "name": "",
          "type": "tuple[]"
        }
      ],
      "stateMutability": "view",
      "type": "function"
    },
    {
      "inputs": [
        {
          "internalType": "bytes32",
          "name": "_dataId",
          "type": "bytes32"
        }
      ],
      "name": "getDataFeatures",
      "outputs": [
        {
          "components": [
            {
              "internalType": "uint256",
              "name": "mean",
              "type": "uint256"
            },
            {
              "internalType": "uint256",
              "name": "standardDeviation",
              "type": "uint256"
            },
            {
              "internalType": "uint256",
              "name": "minValue",
              "type": "uint256"
            },
            {
              "internalType": "uint256",
              "name": "maxValue",
              "type": "uint256"
            },
            {
              "internalType": "uint256",
              "name": "dataCount",
              "type": "uint256"
            },
            {
              "internalType": "bytes32",
              "name": "featureHash",
              "type": "bytes32"
            }
          ],
          "internalType": "struct ResearchDataVerifier.DataFeature",
          "name": "",
          "type": "tuple"
        }
      ],
      "stateMutability": "view",
      "type": "function"
    },
    {
      "inputs": [
        {
          "internalType": "string",
          "name": "_constraintType",
          "type": "string"
        }
      ],
      "name": "getGlobalConstraint",
      "outputs": [
        {
          "components": [
            {
              "internalType": "string",
              "name": "constraintType",
              "type": "string"
            },
            {
              "internalType": "uint256",
              "name": "threshold",
              "type": "uint256"
            },
            {
              "internalType": "bool",
              "name": "isActive",
              "type": "bool"
            },
            {
              "internalType": "string",
              "name": "description",
              "type": "string"
            }
          ],
          "internalType": "struct ResearchDataVerifier.Constraint",
          "name": "",
          "type": "tuple"
        }
      ],
      "stateMutability": "view",
      "type": "function"
    },
    {
      "inputs": [
        {
          "internalType": "bytes32",
          "name": "_dataId",
          "type": "bytes32"
        }
      ],
      "name": "getResearchData",
      "outputs": [
        {
          "components": [
            {
              "internalType": "address",
              "name": "submitter",
              "type": "address"
            },
            {
              "internalType": "string",
              "name": "dataType",
              "type": "string"
            },
            {
              "internalType": "string",
              "name": "dataHash",
              "type": "string"
            },
            {
              "internalType": "string",
              "name": "metadataHash",
              "type": "string"
            },
            {
              "internalType": "uint256",
              "name": "timestamp",
              "type": "uint256"
            },
            {
              "internalType": "bool",
              "name": "isVerified",
              "type": "bool"
            },
            {
              "internalType": "uint256",
              "name": "verificationScore",
              "type": "uint256"
            },
            {
              "internalType": "string",
              "name": "verificationStatus",
              "type": "string"
            }
          ],
          "internalType": "struct ResearchDataVerifier.ResearchData",
          "name": "",
          "type": "tuple"
        }
      ],
      "stateMutability": "view",
      "type": "function"
    },
    {
      "inputs": [
        {
          "internalType": "address",
          "name": "_user",
          "type": "address"
        }
      ],
      "name": "getUserDataIds",
      "outputs": [
        {
          "internalType": "bytes32[]",
          "name": "",
          "type": "bytes32[]"
        }
      ],
      "stateMutability": "view",
      "type": "function"
    },
    {
      "inputs": [
        {
          "internalType": "string",
          "name": "",
          "type": "string"
        }
      ],
      "name": "globalConstraints",
      "outputs": [
        {
          "internalType": "string",
          "name": "constraintType",
          "type": "string"
        },
        {
          "internalType": "uint256",
          "name": "threshold",
          "type": "uint256"
        },
        {
          "internalType": "bool",
          "name": "isActive",
          "type": "bool"
        },
        {
          "internalType": "string",
          "name": "description",
          "type": "string"
        }
      ],
      "stateMutability": "view",
      "type": "function"
    },
    {
      "inputs": [],
      "name": "nextDataId",
      "outputs": [
        {
          "internalType": "uint256",
          "name": "",
          "type": "uint256"
        }
      ],
      "stateMutability": "view",
      "type": "function"
    },
    {
      "inputs": [],
      "name": "owner",
      "outputs": [
        {
          "internalType": "address",
          "name": "",
          "type": "address"
        }
      ],
      "stateMutability": "view",
      "type": "function"
    },
    {
      "inputs": [],
      "name": "renounceOwnership",
      "outputs": [],
      "stateMutability": "nonpayable",
      "type": "function"
    },
    {
      "inputs": [
        {
          "internalType": "bytes32",
          "name": "",
          "type": "bytes32"
        }
      ],
      "name": "researchData",
      "outputs": [
        {
          "internalType": "address",
          "name": "submitter",
          "type": "address"
        },
        {
          "internalType": "string",
          "name": "dataType",
          "type": "string"
        },
        {
          "internalType": "string",
          "name": "dataHash",
          "type": "string"
        },
        {
          "internalType": "string",
          "name": "metadataHash",
          "type": "string"
        },
        {
          "internalType": "uint256",
          "name": "timestamp",
          "type": "uint256"
        },
        {
          "internalType": "bool",
          "name": "isVerified",
          "type": "bool"
        },
        {
          "internalType": "uint256",
          "name": "verificationScore",
          "type": "uint256"
        },
        {
          "internalType": "string",
          "name": "verificationStatus",
          "type": "string"
        }
      ],
      "stateMutability": "view",
      "type": "function"
    },
    {
      "inputs": [
        {
          "internalType": "string",
          "name": "_dataType",
          "type": "string"
        },
        {
          "internalType": "string",
          "name": "_dataHash",
          "type": "string"
        },
        {
          "internalType": "string",
          "name": "_metadataHash",
          "type": "string"
        }
      ],
      "name": "submitResearchData",
      "outputs": [
        {
          "internalType": "bytes32",
          "name": "",
          "type": "bytes32"
        }
      ],
      "stateMutability": "nonpayable",
      "type": "function"
    },
    {
      "inputs": [
        {
          "internalType": "address",
          "name": "newOwner",
          "type": "address"
        }
      ],
      "name": "transferOwnership",
      "outputs": [],
      "stateMutability": "nonpayable",
      "type": "function"
    },
    {
      "inputs": [
        {
          "internalType": "address",
          "name": "",
          "type": "address"
        },
        {
          "internalType": "uint256",
          "name": "",
          "type": "uint256"
        }
      ],
      "name": "userData",
      "outputs": [
        {
          "internalType": "bytes32",
          "name": "",
          "type": "bytes32"
        }
      ],
      "stateMutability": "view",
      "type": "function"
    },
    {
      "inputs": [
        {
          "internalType": "bytes32",
          "name": "_dataId",
          "type": "bytes32"
        }
      ],
      "name": "validateDataConstraints",
      "outputs": [
        {
          "internalType": "bool",
          "name": "isValid",
          "type": "bool"
        },
        {
          "internalType": "uint256",
          "name": "score",
          "type": "uint256"
        },
        {
          "internalType": "string",
          "name": "status",
          "type": "string"
        }
      ],
      "stateMutability": "view",
      "type": "function"
    },
    {
      "inputs": [
        {
          "internalType": "bytes32",
          "name": "_dataId",
          "type": "bytes32"
        },
        {
          "internalType": "address",
          "name": "_zkpContract",
          "type": "address"
        },
        {
          "internalType": "uint256",
          "name": "_proofId",
          "type": "uint256"
        }
      ],
      "name": "verifyDataWithZKP",
      "outputs": [],
      "stateMutability": "nonpayable",
      "type": "function"
    }
  ],
  "bytecode": "0x6080604090808252346200046657331562000450575060008054336001600160a01b0319821681178355906001600160a01b03167f8be0079c531659141344cd1fd0a4f28419497f9722a3daafe3b4186f6b6457e08380a36001808055806007556200006a620004a1565b8092600f825282602091828401906e195c9c9bdc97dd1a1c995cda1bdb19608a1b82526200013f6200009b620004a1565b928584527f4572726f72207468726573686f6c64206e6f7420657863656564696e672035258685015260038a620000d16200046b565b9289845262000119620001068a80870193600585528588019b8c5260609d8e8901968c885251938492839251928391620004c1565b81016009815203019020945185620004e6565b518a84015560028301965115159660ff199760ff898354169116179055519101620004e6565b60088054926801000000000000000093848110156200043c57888101808455811015620004285789620001799184865288862001620004e6565b6200018d8a5199888b52888b019062000634565b98600587820152808a038b82015280620001b9600080516020620028f18339815191529b8c9462000634565b0390a1620001c6620004a1565b600b81526a19185d1857d99bdc9b585d60aa1b8682015289518781016001600160401b0381118282101762000414578b52602a81527f4461746120666f726d6174206d75737420636f6e666f726d20746f20737065638782015269696669636174696f6e7360b01b818c01526200023d916200065b565b62000247620004a1565b600d81526c686173685f76616c696469747960981b868201526200026a620004a1565b601881527f486173682076616c7565206d7573742062652076616c69640000000000000000878201526200029e916200065b565b620002a8620004a1565b96601488528588017f737461746973746963616c5f76616c696469747900000000000000000000000081528a88620002df620004a1565b601a81527f537461746973746963616c2076616c696469747920636865636b0000000000008a820152978b620003146200046b565b948186528b80870192600a8452868801958987528801968d885251809381925180926200034192620004c1565b810160098152030190209451620003599086620004e6565b51858501556002840191511515908254169060ff161790555190600301906200038291620004e6565b81549384101562000400578301808255831015620003ec57849392620003db95838993620003b395522001620004e6565b600a620003ca885196868897885287019062000634565b928501528382038785015262000634565b0390a15161217a9081620007778239f35b634e487b7160e01b82526032600452602482fd5b634e487b7160e01b83526041600452602483fd5b634e487b7160e01b85526041600452602485fd5b634e487b7160e01b84526032600452602484fd5b634e487b7160e01b84526041600452602484fd5b631e4fbdf760e01b815260006004820152602490fd5b600080fd5b60405190608082016001600160401b038111838210176200048b57604052565b634e487b7160e01b600052604160045260246000fd5b60408051919082016001600160401b038111838210176200048b57604052565b60005b838110620004d55750506000910152565b8181015183820152602001620004c4565b81519091906001600160401b0381116200048b57825460019283821691841c82156200062b575b602092838210146200061557601f8111620005c7575b5081601f841160011462000560575092829391839260009462000554575b50501b916000199060031b1c1916179055565b01519250388062000541565b919083601f1981168760005284600020946000905b88838310620005ac575050501062000592575b505050811b019055565b015160001960f88460031b161c1916905538808062000588565b85870151885590960195948501948793509081019062000575565b8560005282600020601f850160051c8101918486106200060a575b601f0160051c019085905b828110620005fd57505062000523565b60008155018590620005ed565b9091508190620005e2565b634e487b7160e01b600052602260045260246000fd5b607f166200050d565b906020916200064f81518092818552858086019101620004c1565b601f01601f1916010190565b90620006da6200066a6200046b565b8381526003602082016001815260408301600181526060840191868352620006b760405160208181620006a48d83815193849201620004c1565b81016009815203019020955186620004e6565b516001850155600284019051151560ff80198354169116179055519101620004e6565b60085491680100000000000000008310156200048b57600183018060085583101562000760576200075b62000745926200073083600080516020620028f1833981519152966008600052602060002001620004e6565b60405193849360608552606085019062000634565b9060016020850152838203604085015262000634565b0390a1565b634e487b7160e01b600052603260045260246000fdfe60806040908082526004918236101561001757600080fd5b600060e0928135841c90816305c7142b14611688575080630af361d9146115fb57806313363fb5146115115780631987b0fb146114985780632b2088481461111c5780632f6b13c71461105f57806332df168b14610f1b57806338f555fa14610eb15780633c05eca114610e5b578063474ff53d14610cb65780634a75fce014610be65780635bd517be14610b8857806366792d0014610b0a5780636b4e0520146106d25780636d670e7514610662578063715018a61461060857806389acd2fa146105195780638b4ce2dd146104fa5780638da5cb5b146104d2578063a369cb1614610455578063aeaf8fe714610412578063cb077748146102c1578063f2fde38b146102355763fc1ff9fa1461012e57600080fd5b34610232576020366003190112610232579060078161022e93863581526002602052209360018060a01b0385541694835196610178886101718160018601611944565b03896117bc565b6102108551916101968361018f8160028801611944565b03846117bc565b6102028751916101ad8361018f8160038a01611944565b8501549760ff600587015416946101d96006880154976101d28451809c819301611944565b038a6117bc565b6101f582519d8e9d8e528d610100908160208201520190611867565b918c8303908d0152611867565b9089820360608b0152611867565b946080880152151560a087015260c086015284830390850152611867565b0390f35b80fd5b509083346102bd5760203660031901126102bd57610251611a0d565b9061025a611a3f565b6001600160a01b039182169283156102a757505082546001600160a01b0319811683178455167f8be0079c531659141344cd1fd0a4f28419497f9722a3daafe3b4186f6b6457e08380a380f35b51631e4fbdf760e01b8152908101849052602490fd5b8280fd5b5091503461040e57606036600319011261040e576001600160401b03833581811161040a576102f390369086016117f8565b91602435916044359081116104065761030f90369087016117f8565b90610318611a3f565b61035e815161032681611739565b8581528460208201526001838201528360608201528251602081885161034f8183858d01611844565b81016009815203019020611be8565b600854600160401b8110156103f35780600161037d92016008556116d4565b6103e1579284926103db926103b67f6bc86bbc66baaccad9497129a6695b9d14d60ac44444c2ebf1bd9767fd27642d976103c997611a82565b8051958695606087526060870190611867565b92602086015284830390850152611867565b0390a180f35b634e487b7160e01b8652858752602486fd5b634e487b7160e01b865260418752602486fd5b8480fd5b8380fd5b5080fd5b50839034610232576020366003190112610232575061022e61043660609235611c3c565b9193909480519586951515865260208601528401526060830190611867565b509083346102bd57816003193601126102bd576024359080358452602052818320805482101561040a579061048991611a23565b5061022e60038351926104a7846104a08184611944565b03856117bc565b6001810154946104c860ff6002840154169261018f83518096819301611944565b51948594856119da565b50903461040e578160031936011261040e57905490516001600160a01b039091168152602090f35b50903461040e578160031936011261040e576020906007549051908152f35b5034610232578060031936011261023257600854610536816120d7565b91610543845193846117bc565b8183526008815260209283810192827ff3f7a9fe364faab93b216da50a3214154f22a0a2b415b23a84c8169e8b636ee3855b8383106105d657505050508451938085019181865251809252858501958260051b8601019392955b8287106105aa5785850386f35b9091929382806105c6600193603f198a82030186528851611867565b960192019601959291909261059d565b60018881928b9a97989a516105f6816105ef8189611944565b03826117bc565b81520192019201919096949396610575565b5034610232578060031936011261023257610621611a3f565b80546001600160a01b03198116825581906001600160a01b03167f8be0079c531659141344cd1fd0a4f28419497f9722a3daafe3b4186f6b6457e08280a380f35b5083903461023257602036600319011261023257813560085481101561040e5761068b906116d4565b9290926106c057835161022e90856106ae826106a78189611944565b03836117bc565b51918291602083526020830190611867565b634e487b7160e01b8252819052602490fd5b509291903461040a57606036600319011261040a57823592602480356001600160a01b038181169591869003610b0657604435958789526020966002885282878b20541615610ace5786516374b7c47560e11b815286810182905288818781865afa908115610ac4578b91610a8f575b5015610a545789908588518094819363088a4d6d60e11b83528a8301525afa918215610a4a57908792918a926108cb575b50507f47eb8987a608e5bb21a0c5e1ff98dec2e496b57b22e4d477fc34c5d2905621eb925001518581519101207f72657365617263685f646174615f766572696669636174696f6e0000000000008686516107cd816117a1565b601a81520152036108965750507f8e709ac2059d91c80c0c82a67ebd9799fcf4973c88b6bb32453f4203399c809d9160a091848652600282526060600782882060058101600160ff198254161790550191610828835461190a565b601f8111610878575b506b1e9adc17dd995c9a599a595960a21b926018840190558688526002845260646006828a200155606481519460018652850152830152600c60608301526080820152a280f35b83895284892061089091601f0160051c810190611a6b565b38610831565b60649360129293519362461bcd60e51b855284015282015271496e76616c69642070726f6f66207479706560701b6044820152fd5b915091503d808a843e6108de81846117bc565b8201928783850312610a465782516001600160401b0393848211610a2e570161020081860312610a16578751926109148461176a565b81519081168103610a2e57835288810151848111610a2e5785610938918301612095565b8984015284605f82011215610a165787516109528161176a565b80610140830191878311610a42578b8b8501915b848310610a3257505050898501528561015f83011215610a2e57885161098b816117a1565b80610180840192888411610a2a578c90915b848310610a1a5750505060608501526109b590612088565b60808401526101a081015160a08401526101c081015160c08401526101e0810151938411610a16577f47eb8987a608e5bb21a0c5e1ff98dec2e496b57b22e4d477fc34c5d2905621eb948994610a0b9201612095565b908201523880610773565b8a80fd5b82518152918101918d910161099d565b8e80fd5b8b80fd5b82518152918101918d9101610966565b8d80fd5b8980fd5b86513d8b823e3d90fd5b865162461bcd60e51b8152808701899052601681870152751692d4081c1c9bdbd9881b9bdd081d995c9a599a595960521b6044820152606490fd5b90508881813d8311610abd575b610aa681836117bc565b81010312610a1657610ab790612088565b38610742565b503d610a9c565b88513d8d823e3d90fd5b865162461bcd60e51b81528087018990526013818701527211185d1848191bd95cc81b9bdd08195e1a5cdd606a1b6044820152606490fd5b8780fd5b50903461040e57602090816003193601126102bd576001600160a01b03610b2f611a0d565b168352600582528083209281518093808654928381520195835280832092905b828210610b715761022e8686610b67828b03836117bc565b51918291826118cf565b835487529586019560019384019390910190610b4f565b508382346102bd5760203660031901126102bd578060c09383358152600360205220805492600182015492600283015490600560038501549385015494015494815196875260208701528501526060840152608083015260a0820152f35b50833461040e57602090816003193601126102bd57909181358152818352838120918254610c13816120d7565b91610c20875193846117bc565b8183528583018095855286852085915b848310610c925750505050508451938085019181865251809252858501958260051b8601019392955b828710610c665785850386f35b909192938280610c82600193603f198a8203018652885161188c565b9601920196019592919092610c59565b8389600192610ca4859c999a9c6120ee565b81520192019201919097959497610c30565b50919290346102bd57602092836003193601126102325790808593928151610cdd8161176a565b81815260609581878981940152828582015282808201528360808201528360a08201528360c08201520152833581526002865220815195610d1d8761176a565b81546001600160a01b03908116885283519488919086610d408160018801611944565b03610d4b90886117bc565b828901968752855180610d618160028901611944565b03610d6c90826117bc565b83870190815286519182610d838160038a01611944565b03610d8e90846117bc565b89850192835286015497608085019889528a600588015460ff169460a0870195151586528760068a01549760c081019889528b51806007819d0190610dd291611944565b03610ddd908c6117bc565b0198895289519d8e9d8e525116908c01525161010080988c01526101208b01610e0591611867565b905190601f19998a8c830301908c0152610e1e91611867565b905190888a82030160808b0152610e3491611867565b955160a089015251151560c088015251908601525192848303019084015261022e91611867565b50903461040e578060031936011261040e57610e75611a0d565b6001600160a01b031682526005602052808220805460243593908410156102325750602092610ea391611721565b91905490519160031b1c8152f35b50839034610232576020366003190112610232578135906001600160401b0382116102325750610ee9610efb926020923691016117f8565b81845193828580945193849201611844565b8101600981520301902061022e60038351926104a7846104a08184611944565b5091346102bd5760c03660031901126102bd578335916024356044359260643560843560a435908789526002602052610f6060018060a01b03878b2054163314611bab565b855192602084019486865288888601528160608601528260808601528360a08601528960c086015260c085528401948486106001600160401b0387111761104c579a85936005938a98969360609b8e9f9b8e9f7fdbe134782069cd0f3540ccfef2dccddfa4cae0f01a39129e14bb7fa5c1ed6a649f6101809e839d8452895190209e8f99610fed8d611786565b8d8d5261010081019586526101208101968752610140810197885261016081019889520198895281526003602052209751885551600188015551600287015551600386015551908401555191015581519384526020840152820152a280f35b634e487b7160e01b8b5260418c5260248bfd5b509083346102bd5760203660031901126102bd57818360c09460a0835161108581611786565b82815282602082015282858201528260608201528260808201520152823581526003602052208251916110b783611786565b81549384845260018301546020850190815260028401549082860191825260a0600560038701549560608901968752870154966080890197885201549601958652825196875251602087015251908501525160608401525160808301525160a0820152f35b50923461040a57606036600319011261040a576001600160401b0381358181116114945761114d90369084016117f8565b6024928335838111610b065761116690369083016117f8565b92604435908111610b065761117e90369083016117f8565b966001946002865414611484576002865584511561144257835115611400576007549887519960209a808c8101923360601b84528d89516034840181838d01916111c792611844565b83018b80518093603484019201916111de92611844565b01904260348301526054820152036054810182526074016111ff90826117bc565b51902098898b8a8051946112128661176a565b3386528286018a8152828701908c825260608801928352608088019342855260a08901958b875260c08a01978c895282519961124d8b6117a1565b60078b526670656e64696e6760c81b838c01528b01998a528c52600290528a20975188546001600160a01b0319166001600160a01b039190911617885551611297908e8901611a82565b516112a59060028801611a82565b516112b39060038701611a82565b518785015551151560058401906112d5919060ff801983541691151516179055565b516006830155516112e891600701611a82565b33825260058952868220928354600160401b94858210156113ee5790611312918982018155611721565b81549060031b908b821b91600019901b1916179055600654938410156113dd57868401806006558410156113cc5750508692837f2c551b453fbb25a30c38ee7a27327de6f7d9cf4e7fd68627262710d5aa44776a9360066113b394527ff652222313e28459528d920b65115c16c04f3efc82aaedc97be59f3f377c0d3f015561139c600754611b86565b6007556113c1875192839289845289840190611867565b8281038b8401523396611867565b0390a3805551908152f35b634e487b7160e01b83526032905281fd5b634e487b7160e01b83526041905281fd5b634e487b7160e01b8552604183528385fd5b82601960649260208a519362461bcd60e51b85528401528201527f4461746120747970652063616e6e6f7420626520656d707479000000000000006044820152fd5b82601960649260208a519362461bcd60e51b85528401528201527f4461746120686173682063616e6e6f7420626520656d707479000000000000006044820152fd5b8651633ee5aeb560e01b81528390fd5b8580fd5b50346102325780600319360112610232578151918291600654808552602080950194600683527ff652222313e28459528d920b65115c16c04f3efc82aaedc97be59f3f377c0d3f92905b8282106114fa5761022e8686610b67828b03836117bc565b8354875295860195600193840193909101906114e2565b5091503461040e57608036600319011261040e576001600160401b039083356024358381116104065761154790369087016117f8565b926064359081116104065761155f90369087016117f8565b818552600260205261157d60018060a01b0384872054163314611bab565b82519361158985611739565b8452604435602085015260018385015260608401528352836020528220805490600160401b8210156115e857906115c591600182018155611a23565b6115d657906115d391611be8565b80f35b634e487b7160e01b8352828452602483fd5b634e487b7160e01b845260418552602484fd5b50839034610232576020918260031936011261040e5780356001600160401b0381116102bd578361022e9360608061163c61167896611669963691016117f8565b9289519061164982611739565b82825280868301528a820152015281875193828580945193849201611844565b810160098152030190206120ee565b925192828493845283019061188c565b905084346102bd5760203660031901126102bd57356006548110156102bd576006602093527ff652222313e28459528d920b65115c16c04f3efc82aaedc97be59f3f377c0d3f01548152f35b60085481101561170b5760086000527ff3f7a9fe364faab93b216da50a3214154f22a0a2b415b23a84c8169e8b636ee30190600090565b634e487b7160e01b600052603260045260246000fd5b805482101561170b5760005260206000200190600090565b608081019081106001600160401b0382111761175457604052565b634e487b7160e01b600052604160045260246000fd5b61010081019081106001600160401b0382111761175457604052565b60c081019081106001600160401b0382111761175457604052565b604081019081106001600160401b0382111761175457604052565b90601f801991011681019081106001600160401b0382111761175457604052565b6001600160401b03811161175457601f01601f191660200190565b81601f8201121561183f5780359061180f826117dd565b9261181d60405194856117bc565b8284526020838301011161183f57816000926020809301838601378301015290565b600080fd5b60005b8381106118575750506000910152565b8181015183820152602001611847565b9060209161188081518092818552858086019101611844565b601f01601f1916010190565b6118cc9160606118a58351608084526080840190611867565b92602081015160208401526040810151151560408401520151906060818403910152611867565b90565b6020908160408183019282815285518094520193019160005b8281106118f6575050505090565b8351855293810193928101926001016118e8565b90600182811c9216801561193a575b602083101461192457565b634e487b7160e01b600052602260045260246000fd5b91607f1691611919565b90600092918054916119558361190a565b9182825260019384811690816000146119b75750600114611977575b50505050565b90919394506000526020928360002092846000945b8386106119a3575050505001019038808080611971565b80548587018301529401938590820161198c565b9294505050602093945060ff191683830152151560051b01019038808080611971565b90926119f36118cc959394608084526080840190611867565b936020830152151560408201526060818403910152611867565b600435906001600160a01b038216820361183f57565b805482101561170b5760005260206000209060021b0190600090565b6000546001600160a01b03163303611a5357565b60405163118cdaa760e01b8152336004820152602490fd5b818110611a76575050565b60008155600101611a6b565b91909182516001600160401b03811161175457611a9f825461190a565b601f8111611b49575b50602080601f8311600114611ae5575081929394600092611ada575b50508160011b916000199060031b1c1916179055565b015190503880611ac4565b90601f198316958460005282600020926000905b888210611b3157505083600195969710611b18575b505050811b019055565b015160001960f88460031b161c19169055388080611b0e565b80600185968294968601518155019501930190611af9565b611b7690836000526020600020601f840160051c81019160208510611b7c575b601f0160051c0190611a6b565b38611aa8565b9091508190611b69565b6000198114611b955760010190565b634e487b7160e01b600052601160045260246000fd5b15611bb257565b60405162461bcd60e51b815260206004820152600e60248201526d2737ba103230ba309037bbb732b960911b6044820152606490fd5b60036060611c2d93611bfb815185611a82565b60208101516001850155611c2460408201511515600286019060ff801983541691151516179055565b01519101611a82565b565b91908201809211611b9557565b600090815260209160038352604092838320936004808352818520958181015415611e4657859680549160085492611c748482611c2f565b92895b828110611dd557505050875b838110611ce65750505050506046851015935083600014611cc357671d995c9a599a595960c21b905191611cb6836117a1565b6008835282015291929190565b6519985a5b195960d21b905191611cd9836117a1565b6006835282015291929190565b611cef816116d4565b5087875180928c908054611d028161190a565b91600191808316908115611dbc5750600114611d88575b505050600981520301902060ff600282015416611d40575b50611d3b90611b86565b611c83565b611d4a9083611e7c565b611d55575b38611d31565b988215611d7557611d6d611d3b918460640490611c2f565b999050611d4f565b634e487b7160e01b895260128552602489fd5b8f80939450528482205b838310611da6575050508101388080611d19565b8054838801528d95879550909201918101611d92565b60ff191686525050508015150282019050388080611d19565b60ff6002611de38385611a23565b50015416611dfa575b611df590611b86565b611c77565b611e0e611e078284611a23565b5085611e7c565b15611dec579a8415611e3357611e2b611df5918660640490611c2f565b9b9050611dec565b634e487b7160e01b8b526012875260248bfd5b5050929350751199585d1d5c995cc81b9bdd08195e1d1c9858dd195960521b84935191611e72836117a1565b6016835282015290565b9060408051611e8f816105ef8186611944565b7fe2f155ec03224c0105cef69bf09bbb2955a3e3af2e9c606c083e05dddd903aad81516020809301206e195c9c9bdc97dd1a1c995cda1bdb19608a1b838551611ed7816117a1565b600f8152015203611f365750508154908115928315611ef95750505050600090565b6001015492606484029380850460641490151715611b9557611f2057600101549104111590565b634e487b7160e01b600052601260045260246000fd5b90917f7f35d69c573a5850ac2e184c46fab921bc33f69c6408f78cf8ce8735716604258351611f69816105ef8186611944565b8381519101206a19185d1857d99bdc9b585d60aa1b848651611f8a816117a1565b600b8152015203611fa15750505060040154151590565b7f8a227ae5716e6a2e0e56245434ff3c2346c59a1ba522f4188646a6780c73043d8351611fd2816105ef8186611944565b8381519101206c686173685f76616c696469747960981b848651611ff5816117a1565b600d815201520361200c5750505060050154151590565b82916105ef61205873737461746973746963616c5f76616c696469747960601b937e9611ca8ebbd11cf72f830bfcc72f6a4f462ece6c5e41a816f21424a55642e9965192838092611944565b8181519101209251612069816117a1565b6014815201521461207a5750600090565b600260038201549101541090565b5190811515820361183f57565b81601f8201121561183f5780516120ab816117dd565b926120b960405194856117bc565b8184526020828401011161183f576118cc9160208085019101611844565b6001600160401b0381116117545760051b60200190565b90600360606040516120ff81611739565b6121408195604051612115816105ef8185611944565b83526001810154602084015260ff6002820154161515604084015261018f6040518096819301611944565b015256fea2646970667358221220dfa92901e1216eab47769462ff6b6aa2b6aa782820357780e557692183373e8164736f6c634300081400336bc86bbc66baaccad9497129a6695b9d14d60ac44444c2ebf1bd9767fd27642d",
  "linkReferences": {},
  "deployedLinkReferences": {}
}