{
  "_format": "hh-sol-artifact-1",
  "contractName": "ZKProof",
  "sourceName": "contracts/ZKProof.sol",
  "abi": [
    {
      "inputs": [],
      "stateMutability": "nonpayable",
      "type": "constructor"
    },
    {
      "inputs": [
        {
          "internalType": "address",
          "name": "owner",
          "type": "address"
        }
      ],
      "name": "OwnableInvalidOwner",
      "type": "error"
    },
    {
      "inputs": [
        {
          "internalType": "address",
          "name": "account",
          "type": "address"
        }
      ],
      "name": "OwnableUnauthorizedAccount",
      "type": "error"
    },
    {
      "inputs": [],
      "name": "ReentrancyGuardReentrantCall",
      "type": "error"
    },
    {
      "anonymous": false,
      "inputs": [
        {
          "indexed": true,
          "internalType": "address",
          "name": "previousOwner",
          "type": "address"
        },
        {
          "indexed": true,
          "internalType": "address",
          "name": "newOwner",
          "type": "address"
        }
      ],
      "name": "OwnershipTransferred",
      "type": "event"
    },
    {
      "anonymous": false,
      "inputs": [
        {
          "indexed": true,
          "internalType": "uint256",
          "name": "proofId",
          "type": "uint256"
        },
        {
          "indexed": true,
          "internalType": "address",
          "name": "submitter",
          "type": "address"
        },
        {
          "indexed": false,
          "internalType": "string",
          "name": "proofType",
          "type": "string"
        },
        {
          "indexed": false,
          "internalType": "string",
          "name": "metadataHash",
          "type": "string"
        }
      ],
      "name": "ProofSubmitted",
      "type": "event"
    },
    {
      "anonymous": false,
      "inputs": [
        {
          "indexed": false,
          "internalType": "string",
          "name": "proofType",
          "type": "string"
        },
        {
          "indexed": false,
          "internalType": "address",
          "name": "verifierContract",
          "type": "address"
        }
      ],
      "name": "ProofTypeAdded",
      "type": "event"
    },
    {
      "anonymous": false,
      "inputs": [
        {
          "indexed": false,
          "internalType": "string",
          "name": "proofType",
          "type": "string"
        },
        {
          "indexed": false,
          "internalType": "bool",
          "name": "isActive",
          "type": "bool"
        }
      ],
      "name": "ProofTypeUpdated",
      "type": "event"
    },
    {
      "anonymous": false,
      "inputs": [
        {
          "indexed": true,
          "internalType": "uint256",
          "name": "proofId",
          "type": "uint256"
        },
        {
          "indexed": false,
          "internalType": "bool",
          "name": "isValid",
          "type": "bool"
        },
        {
          "indexed": true,
          "internalType": "address",
          "name": "verifier",
          "type": "address"
        }
      ],
      "name": "ProofVerified",
      "type": "event"
    },
    {
      "inputs": [
        {
          "internalType": "string",
          "name": "_proofType",
          "type": "string"
        },
        {
          "internalType": "address",
          "name": "_verifierContract",
          "type": "address"
        },
        {
          "internalType": "uint256",
          "name": "_minReputation",
          "type": "uint256"
        }
      ],
      "name": "addProofType",
      "outputs": [],
      "stateMutability": "nonpayable",
      "type": "function"
    },
    {
      "inputs": [
        {
          "internalType": "uint256",
          "name": "_proofId",
          "type": "uint256"
        }
      ],
      "name": "getProof",
      "outputs": [
        {
          "components": [
            {
              "internalType": "address",
              "name": "submitter",
              "type": "address"
            },
            {
              "internalType": "string",
              "name": "proofType",
              "type": "string"
            },
            {
              "internalType": "uint256[8]",
              "name": "proof",
              "type": "uint256[8]"
            },
            {
              "internalType": "uint256[2]",
              "name": "publicInputs",
              "type": "uint256[2]"
            },
            {
              "internalType": "bool",
              "name": "isVerified",
              "type": "bool"
            },
            {
              "internalType": "uint256",
              "name": "submittedAt",
              "type": "uint256"
            },
            {
              "internalType": "uint256",
              "name": "verifiedAt",
              "type": "uint256"
            },
            {
              "internalType": "string",
              "name": "metadataHash",
              "type": "string"
            }
          ],
          "internalType": "struct ZKProof.Proof",
          "name": "",
          "type": "tuple"
        }
      ],
      "stateMutability": "view",
      "type": "function"
    },
    {
      "inputs": [
        {
          "internalType": "string",
          "name": "_proofType",
          "type": "string"
        }
      ],
      "name": "getProofType",
      "outputs": [
        {
          "components": [
            {
              "internalType": "string",
              "name": "name",
              "type": "string"
            },
            {
              "internalType": "bool",
              "name": "isActive",
              "type": "bool"
            },
            {
              "internalType": "address",
              "name": "verifierContract",
              "type": "address"
            },
            {
              "internalType": "uint256",
              "name": "minReputation",
              "type": "uint256"
            }
          ],
          "internalType": "struct ZKProof.ProofType",
          "name": "",
          "type": "tuple"
        }
      ],
      "stateMutability": "view",
      "type": "function"
    },
    {
      "inputs": [],
      "name": "getSupportedProofTypes",
      "outputs": [
        {
          "internalType": "string[]",
          "name": "",
          "type": "string[]"
        }
      ],
      "stateMutability": "view",
      "type": "function"
    },
    {
      "inputs": [],
      "name": "getTotalProofs",
      "outputs": [
        {
          "internalType": "uint256",
          "name": "",
          "type": "uint256"
        }
      ],
      "stateMutability": "view",
      "type": "function"
    },
    {
      "inputs": [
        {
          "internalType": "address",
          "name": "_user",
          "type": "address"
        }
      ],
      "name": "getUserProofs",
      "outputs": [
        {
          "internalType": "uint256[]",
          "name": "",
          "type": "uint256[]"
        }
      ],
      "stateMutability": "view",
      "type": "function"
    },
    {
      "inputs": [
        {
          "internalType": "uint256",
          "name": "_proofId",
          "type": "uint256"
        }
      ],
      "name": "isProofVerified",
      "outputs": [
        {
          "internalType": "bool",
          "name": "",
          "type": "bool"
        }
      ],
      "stateMutability": "view",
      "type": "function"
    },
    {
      "inputs": [],
      "name": "nextProofId",
      "outputs": [
        {
          "internalType": "uint256",
          "name": "",
          "type": "uint256"
        }
      ],
      "stateMutability": "view",
      "type": "function"
    },
    {
      "inputs": [],
      "name": "owner",
      "outputs": [
        {
          "internalType": "address",
          "name": "",
          "type": "address"
        }
      ],
      "stateMutability": "view",
      "type": "function"
    },
    {
      "inputs": [
        {
          "internalType": "string",
          "name": "",
          "type": "string"
        }
      ],
      "name": "proofTypes",
      "outputs": [
        {
          "internalType": "string",
          "name": "name",
          "type": "string"
        },
        {
          "internalType": "bool",
          "name": "isActive",
          "type": "bool"
        },
        {
          "internalType": "address",
          "name": "verifierContract",
          "type": "address"
        },
        {
          "internalType": "uint256",
          "name": "minReputation",
          "type": "uint256"
        }
      ],
      "stateMutability": "view",
      "type": "function"
    },
    {
      "inputs": [
        {
          "internalType": "uint256",
          "name": "",
          "type": "uint256"
        }
      ],
      "name": "proofs",
      "outputs": [
        {
          "internalType": "address",
          "name": "submitter",
          "type": "address"
        },
        {
          "internalType": "string",
          "name": "proofType",
          "type": "string"
        },
        {
          "internalType": "bool",
          "name": "isVerified",
          "type": "bool"
        },
        {
          "internalType": "uint256",
          "name": "submittedAt",
          "type": "uint256"
        },
        {
          "internalType": "uint256",
          "name": "verifiedAt",
          "type": "uint256"
        },
        {
          "internalType": "string",
          "name": "metadataHash",
          "type": "string"
        }
      ],
      "stateMutability": "view",
      "type": "function"
    },
    {
      "inputs": [],
      "name": "renounceOwnership",
      "outputs": [],
      "stateMutability": "nonpayable",
      "type": "function"
    },
    {
      "inputs": [
        {
          "internalType": "string",
          "name": "_proofType",
          "type": "string"
        },
        {
          "internalType": "uint256[8]",
          "name": "_proof",
          "type": "uint256[8]"
        },
        {
          "internalType": "uint256[2]",
          "name": "_publicInputs",
          "type": "uint256[2]"
        },
        {
          "internalType": "string",
          "name": "_metadataHash",
          "type": "string"
        }
      ],
      "name": "submitProof",
      "outputs": [
        {
          "internalType": "uint256",
          "name": "",
          "type": "uint256"
        }
      ],
      "stateMutability": "nonpayable",
      "type": "function"
    },
    {
      "inputs": [
        {
          "internalType": "uint256",
          "name": "",
          "type": "uint256"
        }
      ],
      "name": "supportedProofTypes",
      "outputs": [
        {
          "internalType": "string",
          "name": "",
          "type": "string"
        }
      ],
      "stateMutability": "view",
      "type": "function"
    },
    {
      "inputs": [
        {
          "internalType": "address",
          "name": "newOwner",
          "type": "address"
        }
      ],
      "name": "transferOwnership",
      "outputs": [],
      "stateMutability": "nonpayable",
      "type": "function"
    },
    {
      "inputs": [
        {
          "internalType": "string",
          "name": "_proofType",
          "type": "string"
        },
        {
          "internalType": "bool",
          "name": "_isActive",
          "type": "bool"
        }
      ],
      "name": "updateProofType",
      "outputs": [],
      "stateMutability": "nonpayable",
      "type": "function"
    },
    {
      "inputs": [
        {
          "internalType": "address",
          "name": "",
          "type": "address"
        },
        {
          "internalType": "uint256",
          "name": "",
          "type": "uint256"
        }
      ],
      "name": "userProofs",
      "outputs": [
        {
          "internalType": "uint256",
          "name": "",
          "type": "uint256"
        }
      ],
      "stateMutability": "view",
      "type": "function"
    },
    {
      "inputs": [
        {
          "internalType": "uint256",
          "name": "_proofId",
          "type": "uint256"
        },
        {
          "internalType": "bool",
          "name": "_isValid",
          "type": "bool"
        }
      ],
      "name": "verifyProof",
      "outputs": [],
      "stateMutability": "nonpayable",
      "type": "function"
    }
  ],
  "bytecode": "0x608060409080825234620006bf573315620006a9575060008054336001600160a01b0319821681178355919291906001600160a01b03167f8be0079c531659141344cd1fd0a4f28419497f9722a3daafe3b4186f6b6457e08480a36001808055806005556200006d620006fa565b60158152602090818101907f6964656e746974795f766572696669636174696f6e00000000000000000000008252845193620000aa85846200071a565b60356003958660158201528260ff928392200154166200067657620000ce620006c4565b9583875285870191838352888801918a83526060988981018c81528b518a81808c8c518092620000fe9262000742565b810186815203019020915162000115908362000767565b945186820180549551610100600160a81b0360089190911b811692151586166001600160a81b031997881617929092179055945160029091015560068054680100000000000000009891979190898110156200066257878101808a558110156200064e5791620001b98d8f93620001a18f9e9c9a98968590601f9f9d9b99978f908e8152200162000767565b81519e8f948386525194858094820152019062000742565b8d898d01528b8b7fc5136ee9cbcdfae0f750e383ed3d0d7a24bbcd260f0b5ff469aa6b4a84d274329d8e938d199d8e9101168101030190a1620001fb620006fa565b601581528c838760358c8501937f72657365617263685f61757468656e74696369747900000000000000000000008552516200023881866200071a565b86601582015220015416620005fd578b8f8f89600292620002988f6200025d620006c4565b96898852818801948552858801938452870194603286525190818a516200028681838d62000742565b81018c81520301902095518662000767565b8b850191511515908a8a8d8554935160081b16931691161717905551910155875489811015620005e857878101808a55811015620005d3578f928f928f948f93918f92918f620002f38f601f95889185528385200162000767565b62000311885198899781895251948580928a01528989019062000742565b85015201168101030190a18c8c8984886200032b620006fa565b9486600e808852858801966d646174615f696e7465677269747960901b88525192955b818710620006305750820152602e90200154169050620005fd578b8f8f89600292620003a78f6200037e620006c4565b96898852818801948552858801938452870194601986525190818a516200028681838d62000742565b8b850191511515908a8a8d8554935160081b16931691161717905551910155875489811015620005e857878101808a55811015620005d357938f978f9c9b999795988f8f8f908f976a706565725f72657669657760a81b9f9d988f879d9b998f601f926200041f868d9f8c9485528385200162000767565b6200043d885198899781895251948580928a01528989019062000742565b85015201168101030190a18a62000453620006fa565b600b81528181019d8e529e51918f5b600b8210620005ba575050508084600b602b9301522001541662000587578b938f8f9394600295620004da8f8d8f8c98620004c893620004a1620006c4565b9d8e8281528581019c8d528d81019a8b52019b60648d525194859384925192839162000742565b82019081520301902098518962000767565b88880194511515938554935160081b16931691161717905551910155815492831015620005735782018082558210156200055f57916200052c868b93601f9695620005469b9c9d528385200162000767565b89519788968b8852518094818d8a01528989019062000742565b85015201168101030190a1516115a39081620008b68239f35b634e487b7160e01b8a52603260045260248afd5b634e487b7160e01b8b52604160045260248bfd5b8d5162461bcd60e51b8152600481018990526019602482015260008051602062001e598339815191526044820152606490fd5b8101820151838201528694508993508c91018f62000462565b50634e487b7160e01b8f52603260045260248ffd5b50634e487b7160e01b8f52604160045260248ffd5b8d5162461bcd60e51b8152600481018b90526019602482015260008051602062001e598339815191526044820152606490fd5b93509350509281818701015181850152019189908688938f6200034e565b634e487b7160e01b8e52603260045260248efd5b634e487b7160e01b8e52604160045260248efd5b865162461bcd60e51b8152600481018690526019602482015260008051602062001e598339815191526044820152606490fd5b631e4fbdf760e01b815260006004820152602490fd5b600080fd5b60405190608082016001600160401b03811183821017620006e457604052565b634e487b7160e01b600052604160045260246000fd5b60408051919082016001600160401b03811183821017620006e457604052565b60005b601581106200073157505060156000910152565b81810151838201526020016200071d565b60005b838110620007565750506000910152565b818101518382015260200162000745565b81519091906001600160401b038111620006e457825460019283821691841c8215620008ac575b602092838210146200089657601f811162000848575b5081601f8411600114620007e15750928293918392600094620007d5575b50501b916000199060031b1c1916179055565b015192503880620007c2565b919083601f1981168760005284600020946000905b888383106200082d575050501062000813575b505050811b019055565b015160001960f88460031b161c1916905538808062000809565b858701518855909601959485019487935090810190620007f6565b8560005282600020601f850160051c8101918486106200088b575b601f0160051c019085905b8281106200087e575050620007a4565b600081550185906200086e565b909150819062000863565b634e487b7160e01b600052602260045260246000fd5b607f166200078e56fe608080604052600436101561001357600080fd5b60003560e01c90816308ac8d221461112c5750806311149ada14610f0d5780631acbce1414610bf75780632eb4a65e146109e0578063373b58e61461098857806341c7ce2e1461092757806346bdfb801461087357806356ef9cb5146106db57806366b92f9e14610635578063715018a6146105dc57806374235369146104d25780638129cd071461039b5780638da5cb5b146103725780639b1bc0c9146103315780639ddaf5aa14610294578063bf6618f9146101a0578063e96f88ea146101785763f2fde38b146100e557600080fd5b34610173576020366003190112610173576100fe61125d565b6101066113c7565b6001600160a01b0390811690811561015a57600054826bffffffffffffffffffffffff60a01b821617600055167f8be0079c531659141344cd1fd0a4f28419497f9722a3daafe3b4186f6b6457e0600080a3005b604051631e4fbdf760e01b815260006004820152602490fd5b600080fd5b34610173576020366003190112610173576020610196600435611546565b6040519015158152f35b3461017357602080600319360112610173576004359067ffffffffffffffff82116101735761020c816101d96080943690600401611206565b600060606040516101e9816111ac565b818152828582015282604082015201528160405193828580945193849201611147565b8101600381520301902060405191610223836111ac565b61022c82611312565b835260018201548184019260ff82161515845261027a6002604087019260018060a01b03809560081c16845201549360608701948552604051978897828952519188015260a087019061116a565b935115156040860152511660608401525160808301520390f35b3461017357602036600319011261017357600435600090815260026020526040902080546001600160a01b031661032d6102d060018401611312565b9260ff600c8201541690600d810154906102f1600f600e8301549201611312565b9161030e604051978897885260c0602089015260c088019061116a565b93151560408701526060860152608085015283820360a085015261116a565b0390f35b3461017357600036600319011261017357600554600019810190811161035c57602090604051908152f35b634e487b7160e01b600052601160045260246000fd5b34610173576000366003190112610173576000546040516001600160a01b039091168152602090f35b346101735760403660031901126101735760043567ffffffffffffffff8111610173576103cc903690600401611206565b6103d46113b8565b906103dd6113c7565b60405190610409815192602081818501956103f9818389611147565b81016003815203019020546112d8565b1561048d578261046c7fd91fb3ad497a5eac04e08baacaa347b1eef608d1b43bcd4f35a7ed25ea5e8c25946001610450602061048097604051809381928a51928391611147565b81016003815203019020019060ff801983541691151516179055565b60405192839260408452604084019061116a565b90151560208301520390a1005b60405162461bcd60e51b815260206004820152601960248201527f50726f6f66207479706520646f6573206e6f74206578697374000000000000006044820152606490fd5b346101735760003660031901126101735760065467ffffffffffffffff81116105c6576040519060209061050b828260051b01846111e4565b808352818301908160066000527ff652222313e28459528d920b65115c16c04f3efc82aaedc97be59f3f377c0d3f6000915b8383106105a45750505050604051918083019381845251809452604083019360408160051b85010192916000955b8287106105785785850386f35b909192938280610594600193603f198a8203018652885161116a565b960192019601959291909261056b565b60018681926105b5859a999a611312565b81520192019201919095949561053d565b634e487b7160e01b600052604160045260246000fd5b34610173576000366003190112610173576105f56113c7565b600080546001600160a01b0319811682556001600160a01b03167f8be0079c531659141344cd1fd0a4f28419497f9722a3daafe3b4186f6b6457e08280a3005b346101735760203660031901126101735760043567ffffffffffffffff811161017357610681602061066e6106b3933690600401611206565b8160405193828580945193849201611147565b8101600381520301902061069481611312565b906002600182015491015460405193849360808552608085019061116a565b60ff83161515602085015260089290921c6001600160a01b0316604084015260608301520390f35b34610173576040366003190112610173576004356106f76113b8565b90806000526020600281526107126001604060002001611312565b600054336001600160a01b0391821614918390831561083c575b505050156107e7576107416005548310611503565b816000526002815260ff600c60406000200154166107aa577f70c9579a34961b8e4495afea0520b52edc90522592e0784a023d52983abe2b169082600052600281526040600020600c8101600160ff19825416179055600e4291015560405193151584523393a3005b6064906040519062461bcd60e51b825260048201526016602482015275141c9bdbd988185b1c9958591e481d995c9a599a595960521b6044820152fd5b6084906040519062461bcd60e51b82526004820152602860248201527f4e6f7420617574686f72697a656420746f2076657269667920746869732070726044820152676f6f66207479706560c01b6064820152fd5b600192935090610859918160405193828580945193849201611147565b81016003815203019020015460081c16331484828161072c565b3461017357602080600319360112610173576001600160a01b0361089561125d565b1660005260048152604060002060405190818382549182815201908192600052846000209060005b868282106109135786866108d3828803836111e4565b604051928392818401908285525180915260408401929160005b8281106108fc57505050500390f35b8351855286955093810193928101926001016108ed565b8354855290930192600192830192016108bd565b34610173576020366003190112610173576004356006548110156101735761094e90611273565b6109725761095e61032d91611312565b60405191829160208352602083019061116a565b634e487b7160e01b600052600060045260246000fd5b34610173576040366003190112610173576109a161125d565b6001600160a01b0316600090815260046020526040902080546024359190821015610173576020916109d2916112c0565b90546040519160031b1c8152f35b346101735760603660031901126101735760043567ffffffffffffffff811161017357610a11903690600401611206565b6024356001600160a01b038116919082900361017357610a2f6113c7565b805115610bb25760405190805160ff6001602094858181870195610a54818389611147565b81016003815203019020015416610b6d57600260405191610a74836111ac565b8383528483016001815260408401878152610ab9610aa78860608801956044358752604051809381928c51928391611147565b810160038152030190209551866113f3565b610ad66001860192511515839060ff801983541691151516179055565b518154610100600160a81b03191660089190911b610100600160a81b031617905551910155600654600160401b8110156105c657806001610b1a9201600655611273565b929092610972577fc5136ee9cbcdfae0f750e383ed3d0d7a24bbcd260f0b5ff469aa6b4a84d2743293610b5083610b64956113f3565b60405193849360408552604085019061116a565b918301520390a1005b60405162461bcd60e51b815260048101849052601960248201527f50726f6f66207479706520616c726561647920657869737473000000000000006044820152606490fd5b60405162461bcd60e51b815260206004820152601a60248201527f50726f6f6620747970652063616e6e6f7420626520656d7074790000000000006044820152606490fd5b34610173576101803660031901126101735767ffffffffffffffff60043581811161017357610c2a903690600401611206565b90366043121561017357604051610c408161118f565b6101249181368411610173576024905b848210610efd5750503661014312156101735760405192610c70846111c8565b836101649136831161017357905b828210610eed5750503590811161017357610c9d903690600401611206565b9060ff60016040516020818851610cb78183858d01611147565b8101600381520301902001541615610ea857600260015414610e9657600260015560055492600019841461035c576001840160055560405190610cf98261118f565b33825260208201928684526040830190815260608301918252600060808401524260a0840152600060c08401528460e0840152856000526002602052610d6860406000209460018060a01b038551166bffffffffffffffffffffffff60a01b87541617865551600186016113f3565b5160005b60088110610e7f5750505160005b60028110610e6857505090600f60e083610dac6080610dc99601511515600c86019060ff801983541691151516179055565b60a0810151600d85015560c0810151600e850155015191016113f3565b336000526004602052604060002092835493600160401b8510156105c657610e4b8492610e1f877fc0b04028e7b044e610e837c16aa829c3ac6eda886999b98be29a1449db09701494600160209a0181556112c0565b81549060031b9086821b91600019901b1916179055610e5960405192839260408452604084019061116a565b82810389840152339661116a565b0390a360018055604051908152f35b60019060208351930192600a828701015501610d7a565b600190602083519301926002828801015501610d6c565b604051633ee5aeb560e01b8152600490fd5b60405162461bcd60e51b815260206004820152601e60248201527f496e76616c6964206f7220696e6163746976652070726f6f66207479706500006044820152606490fd5b8135815260209182019101610c7e565b8135815260209182019101610c50565b346101735760208060031936011261017357600435606060e0604051610f328161118f565b600081528285820152604051610f478161118f565b6101003682376040820152604051610f5e816111c8565b60403682378382015260006080820152600060a0820152600060c08201520152610f8b6005548210611503565b600052600280825260406000209160405190610fa68261118f565b83546001600160a01b03908116835293600190610fc4818301611312565b908385019182526040519384878301906000905b6008821061111957505050610fec8561118f565b60408681019586525193600a83016000865b8a821061110657505050611011856111c8565b6060870194855260ff600c8401541697608088019815158952600d8401549260a0890193845261104f600f600e8701549660c08c0197885201611312565b9560e08a019687526040519b8c9a838c525116828b01525196611080610200988960408d01526102208c019061116a565b9851600060608c015b600882106110f057505050516101608a01906000915b8483106110da5750505050505061032d95965115156101a0880152516101c0870152516101e08601525190601f19858403019085015261116a565b815181528d9b509185019190830190830161109f565b825181528e9c5091840191908601908401611089565b8254815291830191908301908401610ffe565b8254815291860191908601908301610fd8565b34610173576000366003190112610173576020906005548152f35b60005b83811061115a5750506000910152565b818101518382015260200161114a565b9060209161118381518092818552858086019101611147565b601f01601f1916010190565b610100810190811067ffffffffffffffff8211176105c657604052565b6080810190811067ffffffffffffffff8211176105c657604052565b6040810190811067ffffffffffffffff8211176105c657604052565b90601f8019910116810190811067ffffffffffffffff8211176105c657604052565b81601f820112156101735780359067ffffffffffffffff82116105c6576040519261123b601f8401601f1916602001856111e4565b8284526020838301011161017357816000926020809301838601378301015290565b600435906001600160a01b038216820361017357565b6006548110156112aa5760066000527ff652222313e28459528d920b65115c16c04f3efc82aaedc97be59f3f377c0d3f0190600090565b634e487b7160e01b600052603260045260246000fd5b80548210156112aa5760005260206000200190600090565b90600182811c92168015611308575b60208310146112f257565b634e487b7160e01b600052602260045260246000fd5b91607f16916112e7565b9060405191826000825492611326846112d8565b9081845260019485811690816000146113955750600114611352575b5050611350925003836111e4565b565b9093915060005260209081600020936000915b81831061137d57505061135093508201013880611342565b85548884018501529485019487945091830191611365565b91505061135094506020925060ff191682840152151560051b8201013880611342565b60243590811515820361017357565b6000546001600160a01b031633036113db57565b60405163118cdaa760e01b8152336004820152602490fd5b919091825167ffffffffffffffff81116105c65761141182546112d8565b601f81116114bb575b50602080601f831160011461145757508192939460009261144c575b50508160011b916000199060031b1c1916179055565b015190503880611436565b90601f198316958460005282600020926000905b8882106114a35750508360019596971061148a575b505050811b019055565b015160001960f88460031b161c19169055388080611480565b8060018596829496860151815501950193019061146b565b600083815260208120601f840160051c810192602085106114f9575b601f0160051c01915b8281106114ee57505061141a565b8181556001016114e0565b90925082906114d7565b1561150a57565b60405162461bcd60e51b8152602060048201526014602482015273141c9bdbd988191bd95cc81b9bdd08195e1a5cdd60621b6044820152606490fd5b60055481101561156757600052600260205260ff600c604060002001541690565b5060009056fea26469706673582212207035bc3de3f8100f6fff917572c2caf0c1ae1e136f5a4fa7b5dca49c48c1f91564736f6c6343000814003350726f6f66207479706520616c72656164792065786973747300000000000000",
  "linkReferences": {},
  "deployedLinkReferences": {}
}