{
  "_format": "hh-sol-artifact-1",
  "contractName": "ZKPVerifier",
  "sourceName": "contracts/ZKPVerifier.sol",
  "abi": [
    {
      "inputs": [],
      "stateMutability": "nonpayable",
      "type": "constructor"
    },
    {
      "inputs": [
        {
          "internalType": "address",
          "name": "owner",
          "type": "address"
        }
      ],
      "name": "OwnableInvalidOwner",
      "type": "error"
    },
    {
      "inputs": [
        {
          "internalType": "address",
          "name": "account",
          "type": "address"
        }
      ],
      "name": "OwnableUnauthorizedAccount",
      "type": "error"
    },
    {
      "inputs": [],
      "name": "ReentrancyGuardReentrantCall",
      "type": "error"
    },
    {
      "anonymous": false,
      "inputs": [
        {
          "indexed": true,
          "internalType": "address",
          "name": "previousOwner",
          "type": "address"
        },
        {
          "indexed": true,
          "internalType": "address",
          "name": "newOwner",
          "type": "address"
        }
      ],
      "name": "OwnershipTransferred",
      "type": "event"
    },
    {
      "anonymous": false,
      "inputs": [
        {
          "indexed": false,
          "internalType": "string",
          "name": "proofType",
          "type": "string"
        },
        {
          "indexed": true,
          "internalType": "address",
          "name": "registrant",
          "type": "address"
        }
      ],
      "name": "ProofTypeRegistered",
      "type": "event"
    },
    {
      "anonymous": false,
      "inputs": [
        {
          "indexed": true,
          "internalType": "bytes32",
          "name": "proofHash",
          "type": "bytes32"
        },
        {
          "indexed": false,
          "internalType": "bool",
          "name": "isValid",
          "type": "bool"
        },
        {
          "indexed": false,
          "internalType": "uint256",
          "name": "timestamp",
          "type": "uint256"
        }
      ],
      "name": "ProofVerified",
      "type": "event"
    },
    {
      "anonymous": false,
      "inputs": [
        {
          "indexed": false,
          "internalType": "string",
          "name": "proofType",
          "type": "string"
        },
        {
          "indexed": true,
          "internalType": "address",
          "name": "updater",
          "type": "address"
        }
      ],
      "name": "VerificationParamsUpdated",
      "type": "event"
    },
    {
      "inputs": [],
      "name": "getSupportedProofTypes",
      "outputs": [
        {
          "internalType": "string[]",
          "name": "",
          "type": "string[]"
        }
      ],
      "stateMutability": "view",
      "type": "function"
    },
    {
      "inputs": [
        {
          "internalType": "string",
          "name": "_proofType",
          "type": "string"
        }
      ],
      "name": "getVerificationParams",
      "outputs": [
        {
          "components": [
            {
              "internalType": "uint256[2]",
              "name": "alpha1",
              "type": "uint256[2]"
            },
            {
              "internalType": "uint256[2][2]",
              "name": "beta2",
              "type": "uint256[2][2]"
            },
            {
              "internalType": "uint256[2][2]",
              "name": "gamma2",
              "type": "uint256[2][2]"
            },
            {
              "internalType": "uint256[2][2]",
              "name": "delta2",
              "type": "uint256[2][2]"
            },
            {
              "internalType": "uint256[2][]",
              "name": "ic",
              "type": "uint256[2][]"
            }
          ],
          "internalType": "struct ZKPVerifier.VerificationParams",
          "name": "",
          "type": "tuple"
        }
      ],
      "stateMutability": "view",
      "type": "function"
    },
    {
      "inputs": [
        {
          "internalType": "bytes32",
          "name": "_proofHash",
          "type": "bytes32"
        }
      ],
      "name": "getVerificationResult",
      "outputs": [
        {
          "internalType": "bool",
          "name": "",
          "type": "bool"
        },
        {
          "internalType": "uint256",
          "name": "",
          "type": "uint256"
        }
      ],
      "stateMutability": "view",
      "type": "function"
    },
    {
      "inputs": [
        {
          "internalType": "bytes32",
          "name": "_proofHash",
          "type": "bytes32"
        }
      ],
      "name": "isProofVerified",
      "outputs": [
        {
          "internalType": "bool",
          "name": "",
          "type": "bool"
        }
      ],
      "stateMutability": "view",
      "type": "function"
    },
    {
      "inputs": [],
      "name": "owner",
      "outputs": [
        {
          "internalType": "address",
          "name": "",
          "type": "address"
        }
      ],
      "stateMutability": "view",
      "type": "function"
    },
    {
      "inputs": [
        {
          "internalType": "string",
          "name": "_proofType",
          "type": "string"
        },
        {
          "internalType": "uint256[2]",
          "name": "_alpha1",
          "type": "uint256[2]"
        },
        {
          "internalType": "uint256[2][2]",
          "name": "_beta2",
          "type": "uint256[2][2]"
        },
        {
          "internalType": "uint256[2][2]",
          "name": "_gamma2",
          "type": "uint256[2][2]"
        },
        {
          "internalType": "uint256[2][2]",
          "name": "_delta2",
          "type": "uint256[2][2]"
        },
        {
          "internalType": "uint256[2][]",
          "name": "_ic",
          "type": "uint256[2][]"
        }
      ],
      "name": "registerProofType",
      "outputs": [],
      "stateMutability": "nonpayable",
      "type": "function"
    },
    {
      "inputs": [],
      "name": "renounceOwnership",
      "outputs": [],
      "stateMutability": "nonpayable",
      "type": "function"
    },
    {
      "inputs": [
        {
          "internalType": "uint256",
          "name": "",
          "type": "uint256"
        }
      ],
      "name": "supportedProofTypes",
      "outputs": [
        {
          "internalType": "string",
          "name": "",
          "type": "string"
        }
      ],
      "stateMutability": "view",
      "type": "function"
    },
    {
      "inputs": [
        {
          "internalType": "address",
          "name": "newOwner",
          "type": "address"
        }
      ],
      "name": "transferOwnership",
      "outputs": [],
      "stateMutability": "nonpayable",
      "type": "function"
    },
    {
      "inputs": [
        {
          "internalType": "string",
          "name": "_proofType",
          "type": "string"
        },
        {
          "internalType": "uint256[2]",
          "name": "_alpha1",
          "type": "uint256[2]"
        },
        {
          "internalType": "uint256[2][2]",
          "name": "_beta2",
          "type": "uint256[2][2]"
        },
        {
          "internalType": "uint256[2][2]",
          "name": "_gamma2",
          "type": "uint256[2][2]"
        },
        {
          "internalType": "uint256[2][2]",
          "name": "_delta2",
          "type": "uint256[2][2]"
        },
        {
          "internalType": "uint256[2][]",
          "name": "_ic",
          "type": "uint256[2][]"
        }
      ],
      "name": "updateVerificationParams",
      "outputs": [],
      "stateMutability": "nonpayable",
      "type": "function"
    },
    {
      "inputs": [
        {
          "internalType": "bytes32",
          "name": "",
          "type": "bytes32"
        }
      ],
      "name": "verificationResults",
      "outputs": [
        {
          "internalType": "bool",
          "name": "",
          "type": "bool"
        }
      ],
      "stateMutability": "view",
      "type": "function"
    },
    {
      "inputs": [
        {
          "internalType": "bytes32",
          "name": "",
          "type": "bytes32"
        }
      ],
      "name": "verificationTimestamps",
      "outputs": [
        {
          "internalType": "uint256",
          "name": "",
          "type": "uint256"
        }
      ],
      "stateMutability": "view",
      "type": "function"
    },
    {
      "inputs": [
        {
          "internalType": "string",
          "name": "_proofType",
          "type": "string"
        },
        {
          "components": [
            {
              "internalType": "uint256[2]",
              "name": "a",
              "type": "uint256[2]"
            },
            {
              "internalType": "uint256[2][2]",
              "name": "b",
              "type": "uint256[2][2]"
            },
            {
              "internalType": "uint256[2]",
              "name": "c",
              "type": "uint256[2]"
            }
          ],
          "internalType": "struct ZKPVerifier.Groth16Proof",
          "name": "_proof",
          "type": "tuple"
        },
        {
          "internalType": "uint256[]",
          "name": "_publicInputs",
          "type": "uint256[]"
        }
      ],
      "name": "verifyGroth16Proof",
      "outputs": [
        {
          "internalType": "bool",
          "name": "",
          "type": "bool"
        }
      ],
      "stateMutability": "nonpayable",
      "type": "function"
    },
    {
      "inputs": [
        {
          "internalType": "string",
          "name": "_proofType",
          "type": "string"
        },
        {
          "components": [
            {
              "internalType": "uint256[2]",
              "name": "a",
              "type": "uint256[2]"
            },
            {
              "internalType": "uint256[2][2]",
              "name": "b",
              "type": "uint256[2][2]"
            },
            {
              "internalType": "uint256[2]",
              "name": "c",
              "type": "uint256[2]"
            }
          ],
          "internalType": "struct ZKPVerifier.Groth16Proof[]",
          "name": "_proofs",
          "type": "tuple[]"
        },
        {
          "internalType": "uint256[][]",
          "name": "_publicInputsArray",
          "type": "uint256[][]"
        }
      ],
      "name": "verifyMultipleProofs",
      "outputs": [
        {
          "internalType": "bool[]",
          "name": "",
          "type": "bool[]"
        }
      ],
      "stateMutability": "nonpayable",
      "type": "function"
    }
  ],
  "bytecode": "0x608060409080825234620007bf573315620007a9575060008054336001600160a01b0319821681178355916001600160a01b03909116907f8be0079c531659141344cd1fd0a4f28419497f9722a3daafe3b4186f6b6457e09080a36001805562000068620007c4565b60018152600260208201526200007d620007c4565b62000087620007c4565b600181526002602082015281526200009e620007c4565b91600383526004928360208201526020830152620000bb620007c4565b90620000c6620007c4565b60058152600660208201528252620000dd620007c4565b60078152600860208201526020830152620000f7620007c4565b9062000102620007c4565b60098152600a6020820152825262000119620007c4565b600b8152600c602080830191909152830152855191606083016001600160401b03811184821017620007945787526002835260005b87811062000776575062000161620007c4565b600181526002602082015262000177846200081a565b5262000183836200081a565b506200018e620007c4565b60038152866020820152620001a3846200083e565b52620001af836200083e565b50620001ba620007fa565b93828552602085019486865288810182815260608201908482526080830197878952603a8c517f72657365617263685f646174615f766572696669636174696f6e00000000000081526002601a82015220935160005b60028110620007615750505160028401906000905b6002821062000728575050505160068301906000905b60028210620006ef5750505051600a8201906000905b60028210620006b657505050600e0194519485516801000000000000000096878211620006a157825482845580831062000633575b50602001916000526020600020916000905b828210620005fa575050505060035485811015620005e557806001620002c292016003556200088c565b620005d157620002de620002d78254620008a8565b82620008e5565b7f72657365617263685f646174615f766572696669636174696f6e00000000003490556200030b620007fa565b928352602083019586528783019081526060830191825260808301938452875195602e6d646174615f696e7465677269747960901b978881526002600e82015220935160005b60028110620005bc5750505160028401906000905b6002821062000583575050505160068301906000905b600282106200054a5750505051600a8201906000905b600282106200051157505050600e019051805190838211620004fc5782548284558083106200048e575b50602001916000526020600020916000905b828210620004555750505050600354908110156200044057806001620003f892016003556200088c565b9290926200042c5750601c906200041b620004148454620008a8565b84620008e5565b019055516121879081620009138239f35b600090634e487b7160e01b82525260246000fd5b604183634e487b7160e01b6000525260246000fd5b805160005b60028110620004795750506002602060019201940191019092620003ce565b6001906020835193019281880155016200045a565b6001600160ff1b038181168203620004e75783168303620004d25790620004cb60209285600052836000209060011b8101908560011b0162000868565b90620003bc565b601187634e487b7160e01b6000525260246000fd5b601188634e487b7160e01b6000525260246000fd5b604186634e487b7160e01b6000525260246000fd5b805160005b6002811062000535575050600260206001920193019101909162000392565b60019060208351930192818701550162000516565b805160005b600281106200056e57505060026020600192019301910190916200037c565b6001906020835193019281870155016200054f565b805160005b60028110620005a7575050600260206001920193019101909162000366565b60019060208351930192818701550162000588565b60019060208351930192818801550162000351565b600088634e487b7160e01b82525260246000fd5b604188634e487b7160e01b6000525260246000fd5b805160005b600281106200061e575050600260206001920194019101909262000298565b600190602083519301928188015501620005ff565b6001600160ff1b0381811682036200068c57831683036200067757906200067060209285600052836000209060011b8101908560011b0162000868565b9062000286565b60118b634e487b7160e01b6000525260246000fd5b60118c634e487b7160e01b6000525260246000fd5b60418a634e487b7160e01b6000525260246000fd5b805160005b60028110620006da575050600260206001920193019101909162000251565b600190602083519301928187015501620006bb565b805160005b600281106200071357505060026020600192019301910190916200023b565b600190602083519301928187015501620006f4565b805160005b600281106200074c575050600260206001920193019101909162000225565b6001906020835193019281870155016200072d565b60019060208351930192818801550162000210565b60209062000783620007c4565b89368237828287010152016200014e565b604187634e487b7160e01b6000525260246000fd5b631e4fbdf760e01b815260006004820152602490fd5b600080fd5b60408051919082016001600160401b03811183821017620007e457604052565b634e487b7160e01b600052604160045260246000fd5b6040519060a082016001600160401b03811183821017620007e457604052565b805115620008285760200190565b634e487b7160e01b600052603260045260246000fd5b805160011015620008285760400190565b8181106200085b575050565b600081556001016200084f565b81811062000874575050565b80620008856002809301826200084f565b0162000868565b6003548110156200082857600360005260206000200190600090565b90600182811c92168015620008da575b6020831014620008c457565b634e487b7160e01b600052602260045260246000fd5b91607f1691620008b8565b90601f8111620008f3575050565b6200091091600052601f6020600020910160051c8101906200084f565b56fe6080604052600436101561001257600080fd5b60003560e01c806319692d08146100f257806321fc7330146100ed57806336beb697146100e857806341c7ce2e146100e357806342c8fd00146100cf5780635ee5bdeb146100de578063715018a6146100d957806374235369146100d45780637e5d70a0146100cf5780638da5cb5b146100ca578063b83f074f146100c5578063c68fe1f9146100c0578063e1d02f1e146100bb5763f2fde38b146100b657600080fd5b6110ce565b610f9d565b610dca565b610da4565b610d7b565b610a74565b610c94565b610c36565b610b5c565b610a0f565b610824565b6106c2565b61046c565b634e487b7160e01b600052604160045260246000fd5b60a081019081106001600160401b0382111761012857604052565b6100f7565b606081019081106001600160401b0382111761012857604052565b604081019081106001600160401b0382111761012857604052565b90601f801991011681019081106001600160401b0382111761012857604052565b604051906101918261010d565b565b60405190608082018281106001600160401b0382111761012857604052565b81601f82011215610208578035906001600160401b03821161012857604051926101e6601f8401601f191660200185610163565b8284526020838301011161020857816000926020809301838601378301015290565b600080fd5b8060431215610208576040519061022382610148565b816064918211610208576024905b82821061023e5750505090565b8135815260209182019101610231565b9080601f83011215610208576040519161026783610148565b82906040810192831161020857905b8282106102835750505090565b8135815260209182019101610276565b80608312156102085760408051916102aa83610148565b8260e491808311610208576064915b8383106102c857505050505090565b602085916102d6848661024e565b8152019201916102b9565b8061010312156102085760408051916102f983610148565b82610164918083116102085760e4915b83831061031857505050505090565b60208591610326848661024e565b815201920191610309565b80610183121561020857604080519161034983610148565b826101e49180831161020857610164915b83831061036957505050505090565b60208591610377848661024e565b81520192019161035a565b6001600160401b0381116101285760051b60200190565b90610200600319830112610208576001600160401b039060043582811161020857836103c7916004016101b2565b926103d18161020d565b926103db82610293565b926103e5836102e1565b926103ef81610331565b926101e43590811161020857816023820112156102085780600401359061041582610382565b9260409261042584519586610163565b80855260209160248387019260061b8501019381851161020857602401915b8483106104545750505050505090565b838691610461848661024e565b815201920191610444565b346102085761047a36610399565b92610486929192611159565b61049a610492876111d1565b5415156114e3565b604051946104a78661010d565b855260208086019182526040860192835260608601938452608086019485526104cf876111d1565b955160005b6002811061054b578861051689600e8a61050e8b6105048c6104fa8d5160028901611269565b5160068701611269565b51600a8501611269565b51910161129d565b7f0f3ace360350f1d49329dd5cf8747551fec483e9595d910765dc837aeaec1f7e604051806105463394826109fb565b0390a2005b815188820155908201906001016104d4565b9061010060231983011261020857604051916105788361012d565b826105828261020d565b815261058d82610293565b6020908183015282610103121561020857604051926105ab84610148565b836101249182116102085760e4905b8282106105cb575050505060400152565b813581529083019083016105ba565b9190610100838203126102085760408051916105f58361012d565b8294610601828261024e565b845281605f8201121561020857825161061981610148565b8060c08301928484116102085785809101915b84831061064a575050506020850152610645919061024e565b910152565b602090610657878561024e565b815201910190859061062c565b81601f820112156102085780359161067b83610382565b926106896040519485610163565b808452602092838086019260051b820101928311610208578301905b8282106106b3575050505090565b813581529083019083016106a5565b3461020857610140366003190112610208576001600160401b03600435818111610208576106f49036906004016101b2565b6106fd3661055d565b91610124359081116102085761080e9261071e610789923690600401610664565b9061072b610492856111d1565b8381516107808151916107728660208093015183880151805190858083519301519101518681519101519160408c015193888551950151956040519b8c9a8b019d8e61152f565b03601f198101835282610163565b519020936115f3565b906107b3826107a2836000526004602052604060002090565b9060ff801983541691151516179055565b426107c8826000526005602052604060002090565b556040805183151581524260208201527f0c0afd2d440ecce8f50a3a8fb8c422b4bb32611b01094a5041d71f88dd21c6a99190a260405190151581529081906020820190565b0390f35b60209060031901126102085760043590565b346102085761083236610812565b600052600460205260ff6040600020541660056020526040600020549061080e60405192839283602090939291936040810194151581520152565b634e487b7160e01b600052603260045260246000fd5b6003548110156108ba5760036000527fc2575a0e9e593c00f959f8c92f12db2869c3395a3b0502d05e2516446f71f85b0190600090565b61086d565b634e487b7160e01b600052600060045260246000fd5b90600182811c92168015610905575b60208310146108ef57565b634e487b7160e01b600052602260045260246000fd5b91607f16916108e4565b9060405191826000825492610923846108d5565b908184526001948581169081600014610990575060011461094d575b505061019192500383610163565b9093915060005260209081600020936000915b8183106109785750506101919350820101388061093f565b85548884018501529485019487945091830191610960565b91505061019194506020925060ff191682840152151560051b820101388061093f565b60005b8381106109c65750506000910152565b81810151838201526020016109b6565b906020916109ef815180928185528580860191016109b3565b601f01601f1916010190565b906020610a0c9281815201906109d6565b90565b346102085760203660031901126102085760043560035481101561020857610a6061080e9160036000527fc2575a0e9e593c00f959f8c92f12db2869c3395a3b0502d05e2516446f71f85b0161090f565b6040519182916020835260208301906109d6565b3461020857610a8236610812565b6000526004602052602060ff604060002054166040519015158152f35b9080601f8301121561020857813590610ab782610382565b92610ac56040519485610163565b828452602092838086019160051b8301019280841161020857848301915b848310610af35750505050505090565b82356001600160401b038111610208578691610b1484848094890101610664565b815201920191610ae3565b6020908160408183019282815285518094520193019160005b828110610b46575050505090565b8351151585529381019392810192600101610b38565b34610208576060366003190112610208576001600160401b0360043581811161020857610b8d9036906004016101b2565b9060243591818311610208573660238401121561020857826004013592610bb384610382565b93610bc16040519586610163565b80855260209060248287019160081b8401019236841161020857602401905b838210610c1c57505050506044359182116102085761080e92610c0a610c10933690600401610a9f565b91611fd6565b60405191829182610b1f565b8261010091610c2b36856105da565b815201910190610be0565b3461020857600080600319360112610c9157610c50611159565b80546001600160a01b03198116825581906001600160a01b03167f8be0079c531659141344cd1fd0a4f28419497f9722a3daafe3b4186f6b6457e08280a380f35b80fd5b3461020857600080600319360112610c9157600354610cb281610382565b90610cc06040519283610163565b8082526003835260209283830191817fc2575a0e9e593c00f959f8c92f12db2869c3395a3b0502d05e2516446f71f85b845b838310610d575750505050604051928484019085855251809152604084019460408260051b8601019392955b828710610d2b5785850386f35b909192938280610d47600193603f198a820301865288516109d6565b9601920196019592919092610d1e565b6001888192610d69859b9a989b61090f565b81520192019201919096939596610cf2565b34610208576000366003190112610208576000546040516001600160a01b039091168152602090f35b3461020857610db236610812565b60005260056020526020604060002054604051908152f35b3461020857610dd836610399565b91610de4949394611159565b855115610e6157610e2894610dfb84511515611185565b610e03610184565b9485526020850152604084015260608301526080820152610e23836111d1565b61133e565b610e31816113ec565b7f729d0ad7335cc633fec8b8835a62fac161eaa4866e3a11951207a8294dc165cb604051806105463394826109fb565b60405162461bcd60e51b815260206004820152601a60248201527f50726f6f6620747970652063616e6e6f7420626520656d7074790000000000006044820152606490fd5b6000915b60028310610eb757505050565b600190825181526020809101920192019190610eaa565b906000905b60028210610ee057505050565b6020604082610ef26001948751610ea6565b01930191019091610ed3565b906020808352610200830190610f178185018451610ea6565b610f28818401516060860190610ece565b806102206080604095610f428782015160e08a0190610ece565b610f5560608201516101608a0190610ece565b0151956101e0808201528651809552019401926000905b838210610f7b57505050505090565b9091929394838282610f906001948a51610ea6565b0196019493920190610f6c565b3461020857602080600319360112610208576004356001600160401b03811161020857610fce9036906004016101b2565b61101f604091606060808451610fe38161010d565b8551610fee81610148565b863682378152610ffc6120c4565b878201526110086120c4565b868201526110146120c4565b8382015201526111d1565b9080519161102c8361010d565b61103581611751565b8352600e6002916110478382016120ff565b86860152611057600682016120ff565b84860152611067600a82016120ff565b6060860152019081549061107a82610382565b9261108785519485610163565b8284526000908152868120968085015b8483106110b2576080880186905286518061080e8a82610efe565b83826001926110c08c611751565b815201990192019197611097565b34610208576020366003190112610208576001600160a01b0360043581811690819003610208576110fd611159565b801561114057600080546001600160a01b03198116831782559092167f8be0079c531659141344cd1fd0a4f28419497f9722a3daafe3b4186f6b6457e08380a380f35b604051631e4fbdf760e01b815260006004820152602490fd5b6000546001600160a01b0316330361116d57565b60405163118cdaa760e01b8152336004820152602490fd5b1561118c57565b60405162461bcd60e51b815260206004820152601860248201527f49432061727261792063616e6e6f7420626520656d70747900000000000000006044820152606490fd5b60206111ea9181604051938285809451938492016109b3565b8101600281520301902090565b634e487b7160e01b600052601160045260246000fd5b818110611218575050565b6000815560010161120d565b9060005b6002811061123557505050565b600190602083519301928185015501611228565b818110611254575050565b8061126360028093018261120d565b01611249565b916000915b60029081841015611296579060208261128a6001945188611224565b0194019201919261126e565b5050915050565b815191600160401b83116101285781548383558084106112fc575b506112cd602080920192600052602060002090565b6000925b8484106112df575050505050565b600283826112f06001945186611224565b019201930192906112d1565b6001600160ff1b038181168203611339578416840361133957611333908360005260206000209060011b8101908560011b01611249565b386112b8565b6111f7565b90805160005b6002811061139357505090600e608083611368602061019196015160028601611269565b611379604082015160068601611269565b61138a6060820151600a8601611269565b0151910161129d565b600190602083519301928186015501611344565b9190601f81116113b657505050565b610191926000526020600020906020601f840160051c830193106113e2575b601f0160051c019061120d565b90915081906113d5565b600354600160401b8110156101285761140c600191828101600355610883565b9290926114de578051906001600160401b038211610128576114388261143286546108d5565b866113a7565b60209081601f84116001146114745750928293918392600094611469575b50501b916000199060031b1c1916179055565b015192503880611456565b919083601f19811661148b88600052602060002090565b946000905b888383106114c457505050106114ab575b505050811b019055565b015160001960f88460031b161c191690553880806114a1565b858701518855909601959485019487935090810190611490565b6108bf565b156114ea57565b60405162461bcd60e51b815260206004820152601960248201527f50726f6f662074797065206e6f742072656769737465726564000000000000006044820152606490fd5b926101009895929794919996938a519061154e828260209e8f016109b3565b019788528988015260408701526060860152608085015260a084015260c083015260e0820152018183519193019160005b82811061158d575050505090565b83518552938101939281019260010161157f565b60001981019190821161133957565b60001981146113395760010190565b8051600210156108ba5760600190565b8051600110156108ba5760400190565b80518210156108ba5760209160051b010190565b90916115fe826111d1565b9161161061160c8551611f74565b1590565b80156116df575b6116d65761162b61160c6020860151611f8d565b6116d657815193600e84019461164186546115a1565b036116cc57600093845b845181101561169e577f30644e72e131a029b85045b68181585d2833e84879b9709143e1f593f000000161167f82876115df565b5110156116945761168f906115b0565b61164b565b5050505050905090565b506116be94506116b2846116b89497611791565b91611846565b92611c2f565b816116c7575090565b905090565b5050505050600090565b50505050600090565b506116f061160c6040860151611f74565b611617565b604051906103008083018381106001600160401b0382111761012857604052368337565b60405190602082018281106001600160401b03821117610128576040526020368337565b6040519061174a82610148565b6040368337565b60405191906000835b6002821061176e5750505061019182610148565b600160208192855481520193019101909161175a565b9190820180921161133957565b919091604080516117a181610148565b36903780549283156108ba576000918083526020916117c1838520611751565b92845b825181101561183c576117d781846115df565b516117eb575b6117e6906115b0565b6117c4565b9360018086019182871161133957898310156108ba5761182e611834926118296117e695898c52878c20906118208c8b6115df565b51931b01611751565b611a0b565b90611a7c565b9490506117dd565b5092955050505050565b916119e1600a60209361199d604061030097876118616116f5565b978251518952611872835160200190565b51828a01526118b982840161188981515160200190565b51868c01528051515160608c01526118ac6118a5825160200190565b5160200190565b5160808c01525160200190565b515160a08a0152855460c08a01526118db6001870160005b90549060031b1c90565b60e08a0152611929600287016118f56003890160006118d1565b6101008c015280546101208c015261191a6118d16002830160005b5060010190600090565b6101408c015260020190600090565b50546101608a015280516101808a015201516101a0880152611984600685016119566007870160006118d1565b6101c08a015280546101e08a01526119756118d1600283016000611910565b6102008a015260020190600090565b5054610220880152018051516102408701525160200190565b51610260850152016119b36001820160006118d1565b61028084015280546102a08401526119d26118d1600283016000611910565b6102c084015260020190600090565b50546102e08201526119f1611719565b92839160085afa9081611a02575090565b60019150511490565b604090818051611a1a81610148565b3690378215611a61576060926020835192611a348461012d565b8051845201516020830152828201528151928391611a5183610148565b8336843760075afa156102085790565b50905051611a6e81610148565b600081526000602082015290565b90611a8561173d565b5081511580611af0575b6116c75780511580611ae4575b611ae057608091602060409281611ab1610193565b938051855201518284015280518484015201516060820152611ad161173d565b92839160065afa156102085790565b5090565b50602081015115611a9c565b50602082015115611a8f565b60405190611b0982610148565b601a82527f72657365617263685f646174615f766572696669636174696f6e0000000000006020830152565b60405190611b4282610148565b600e82526d646174615f696e7465677269747960901b6020830152565b60405190611b6c82610148565b6014825273737461746973746963616c5f616e616c7973697360601b6020830152565b60405190611b9c82610148565b601982527f706565725f7265766965775f7175616c696669636174696f6e000000000000006020830152565b60405190611bd582610148565b6012825271646174615f7175616c6974795f73636f726560701b6020830152565b60405190611c0382610148565b601a82527f72657365617263685f6574686963735f636f6d706c69616e63650000000000006020830152565b805160208092012090611c40611afc565b8051908201208203611c57575050610a0c90611cf4565b611c5f611b35565b8051908201208203611c76575050610a0c90611d67565b611c7e611b5f565b8051908201208203611c95575050610a0c90611db4565b611c9d611b8f565b8051908201208203611cb4575050610a0c90611dff565b611cbc611bc8565b8051908201208203611cd3575050610a0c90611e6d565b611cdb611bf6565b805191012014611ceb5750600190565b610a0c90611f07565b805160028110611d6057156108ba576020810151908051600110156108ba5760400151908015611d60578060011b818104600203611339578211611d6057670de0b6b3a7640000809111918215611d56575b5050611d5157600190565b600090565b1190503880611d46565b5050600090565b805160018110611d6057156108ba57602081015115611dae5780516002811015611d93575b5050600190565b600110156108ba576040606491015111611d51573880611d8c565b50600090565b805160038110611d6057156108ba576020810151908051600110156108ba57601e611de36040830151926115bf565b519210611d60576103e810611dae5761012c10611d5157600190565b805160038110611d6057156108ba57602081015190611e27611e20826115cf565b51916115bf565b519160468110908115611e62575b50611d6057600511611dae5760508110908115611e57575b50611d5157600190565b606491501138611e4d565b606491501138611e35565b805160048110611d6057156108ba57602081015190611e8b816115cf565b5191611e96826115bf565b51918051600310156108ba5760800151606482118015611efd575b8015611ef3575b8015611ee9575b6116d657611ed9611ee493611ed9604696611ede95611784565b611784565b60021c90565b101590565b5060648111611ebf565b5060648311611eb8565b5060648411611eb1565b805160038110611d6057156108ba576020810151906001611f31611f2a836115cf565b51926115bf565b519203611d6057605f8110908115611f69575b50611dae5760018110908115611f5e5750611d5157600190565b600591501138611e4d565b606491501138611f44565b805115159081611f82575090565b602091500151151590565b805190815115159182611fc8575b5081611fb9575b81611fab575090565b602091508101510151151590565b60208101515115159150611fa2565b602001511515915038611f9b565b9091611fe4610492836111d1565b825181510361204d57611ff78351612092565b9260005b8151811015612046578061203c61202b61201861204194866115df565b5161202384886115df565b5190886115f3565b61203583896115df565b9015159052565b6115b0565b611ffb565b5050505090565b60405162461bcd60e51b815260206004820152601860248201527f4172726179206c656e67746873206d757374206d6174636800000000000000006044820152606490fd5b9061209c82610382565b6120a96040519182610163565b82815280926120ba601f1991610382565b0190602036910137565b60409081516120d281610148565b809260005b8181106120e357505050565b60209082516120f181610148565b8336823781850152016120d7565b9060405190604082018281106001600160401b03821117610128576040526000825b600290818310156121495790602060019261213b88611751565b815201950191019093612121565b50505090915056fea26469706673582212206d45d7a0b12ac6c35118bce1dda95e5875ebd2600323f09662d8600b89c7e17a64736f6c63430008140033",
  "linkReferences": {},
  "deployedLinkReferences": {}
}